:020000040800F2
:10000000F811002089010008BD4100080719000807
:10001000713E00089D060008C3770008000000003C
:100020000000000000000000000000004D5D00081E
:10003000650C0008000000007D4E0008F16000081B
:10004000A3010008A3010008A3010008A301000800
:10005000A3010008A3010008A3010008A3010008F0
:10006000A3010008A3010008A3010008A3010008E0
:10007000A3010008A3010008A3010008A3010008D0
:10008000A3010008A3010008A3010008A3010008C0
:10009000A3010008A3010008A3010008A3010008B0
:1000A000A3010008A3010008A3010008A3010008A0
:1000B000536300086D63000829640008A301000869
:1000C000A3010008A3010008A3010008A301000880
:1000D000A3010008A3010008F9720008A3010008A9
:1000E000A3010008A3010008A301000800F002F822
:1000F00000F03AF80AA090E8000C82448344AAF188
:100100000107DA4501D100F02FF8AFF2090EBAE885
:100110000F0013F0010F18BFFB1A43F0010318473B
:100120006081000080810000103A24BF78C878C147
:10013000FAD8520724BF30C830C144BF04680C60ED
:10014000704700000023002400250026103A28BF35
:1001500078C1FBD8520728BF30C148BF0B60704739
:100160001FB51FBD10B510BD00F031F81146FFF7E7
:10017000F7FF07F077FB00F04FF803B4FFF7F2FF4B
:1001800003BC00F057F800000948804709480047C1
:10019000FEE7FEE7FEE7FEE7FEE7FEE7FEE7FEE737
:1001A000FEE7FEE704480549054A064B7047000094
:1001B000F5600008ED000008F80B0020F8110020A1
:1001C000F80D0020F80D0020704770477047754605
:1001D00000F02CF8AE4605006946534620F00700B3
:1001E000854618B020B5FFF7DDFFBDE820404FF091
:1001F00000064FF000074FF000084FF0000B21F011
:100200000701AC46ACE8C009ACE8C009ACE8C009DD
:10021000ACE8C0098D46704710B50446AFF30080C6
:100220002046BDE81040FFF7A8BF00000048704717
:10023000980B002001491820ABBEFEE72600020003
:10024000704710B501F088FD00F08CFD00F000FB58
:1002500004F0C2FE04F02AFE10BD000000B591B00B
:100260000121084604F0F2FE01214FF4037004F06E
:100270001DFFF020ADF8400000208DF8430010A9CC
:100280004D4801F05FFA0320ADF8400000208DF8E2
:10029000430010A9494801F055FA494800F01EFCF6
:1002A0004848059048480690002007904FF4167083
:1002B00008900020099080200A9040000B90800058
:1002C0000C9020200D90C0010E9000200F9005A9E9
:1002D0003B4800F0A9FC0121394800F0F3FB394804
:1002E0004C3800F089F80020009001208DF80400BF
:1002F0008DF805004FF46020029000200390062046
:100300008DF8100069462F484C3800F0B7F84FF4CC
:10031000004004F08FFE07230622042129484C38B0
:1003200000F0D4F807230122052126484C3800F0BC
:10033000CDF807230422062122484C3800F0C6F8E5
:100340000723032219461F484C3800F0BFF8072343
:10035000022208211B484C3800F0B8F80723052278
:10036000092118484C3800F0B1F8012115484C38E3
:1003700000F037F8012113484C3800F027F81148F5
:100380004C3800F0FFF800BF0E484C3800F06CF815
:100390000028F9D10B484C3800F004F900BF094897
:1003A0004C3800F057F80028F9D1012105484C38A5
:1003B00000F0EDF811B000BD00080140000C014054
:1003C000080002404C2401400406002021B182684C
:1003D00042F00102826003E0826822F00102826042
:1003E000704721B1826842F48072826003E08268C3
:1003F00022F480728260704710B50446124884422D
:1004000008D10121401504F061FE0021601504F0BF
:100410005DFE17E00D48844208D10121001504F06B
:1004200055FE0021201504F051FE0BE008488442DF
:1004300008D10121C80304F049FE00214FF4004017
:1004400004F044FE10BD00000024014000280140DB
:10045000003C0140014600208A6802F004020AB113
:10046000012000E000207047014600208A6802F069
:1004700008020AB1012000E00020704730B50246B2
:100480000020002350680F4C20400D790C6844EA8E
:1004900005242043506090680B4C2040D1E9025461
:1004A0002C434D7944EA450420439060D06A20F4FF
:1004B00070000C7C641EE4B2234340EA0350D06217
:1004C00030BD0000FFFEF0FFFDF7F1FFF0B5044680
:1004D0000D4600200021092D11DDE068A5F10A0676
:1004E00006EB4607072606FA07F18843A5F10A0638
:1004F00006EB460603FA06F10843E0600CE02069CB
:1005000005EB4507072606FA07F1884305EB450684
:1005100003FA06F108432061072A0FDA606B561EC2
:1005200006EB86071F2606FA07F18843561E06EBE0
:10053000860605FA06F10843606322E00D2A0FDA09
:10054000206BD61F06EB86071F2606FA07F18843A5
:10055000D61F06EB860605FA06F10843206310E075
:10056000E06AA2F10D0606EB86071F2606FA07F1E0
:100570008843A2F10D0606EB860605FA06F108434C
:10058000E062F0BD816841F008018160704721B1EF
:10059000826842F4A002826003E0826822F4A00232
:1005A00082607047816841F00401816070470000FB
:1005B00014484079C0011349097940EA8110114972
:1005C000C97840EA41100F49897840EA01100D4985
:1005D000497840EAC1000B49097840EA81000A499C
:1005E00008700848807AC0010649097A40EA01107B
:1005F0000449C97940EA410002498979084302491E
:1006000048707047AC0500201200002010B51D484E
:10061000007838B94FF400611B4801F072F90120ED
:100620001A49087019488079B0B91948007830B172
:100630001848407818B1012000F0D2F802E00020FC
:1006400000F0CEF81248407818B1012001F09EF970
:1006500002E0002001F09AF90D48807840B14FF493
:1006600080710D4801F04DF901200849487007E0FC
:100670004FF48071084801F042F9002003494870A6
:1006800010BD00006F000020000C01405800002049
:100690006B000020670000200008014000BFFEE75B
:1006A00010B5FFF7CEFD06F043FB04F01DFC05F08E
:1006B0004FFB03F051FF10BD70B505460C4601F02D
:1006C00051FA882001F014FA01F098FA10B1284686
:1006D00001F00EFA01F092FA10B1204601F008FA8A
:1006E00001F08CFA08B101F063FA052000F0CEFAAF
:1006F00070BD000010B505480078012801D104F054
:1007000041FE00200149087010BD00000E000020CD
:1007100010B52948807800284DD02848807DC0F346
:100720004000002847D026488079002830D125484D
:10073000807A10B10020244988732348807B1E28CA
:1007400039DD00202049887301201D49887102206D
:100750001E494870087001201D4948721D49887063
:10076000002008704FF480511B4801F0C8F80020A9
:100770001149887014490882887348840E4988702A
:1007800001200F4988714FF434701449086012E059
:100790000C48807A10B900200B4988730A48807B86
:1007A0000A2808DD002008498873054988714FF43C
:1007B000A0600A49086010BD58000020B80500205C
:1007C000AC050020A0050020D40500206700002013
:1007D000FA0500206B000020000801400400002002
:1007E00010B50446C4B11748C078A8B91548807838
:1007F00090B91548008AB4280EDD4FF48051134893
:1008000001F07FF801200F49887000200E4908820E
:1008100088720873887313E094B90A4880780128B5
:100820000ED10948008AB4280ADD4FF480510748E8
:1008300001F065F800200349887003490882887335
:1008400010BD000058000020D40500200008014021
:1008500070B50024032505E0234830F81500044452
:10086000A81D85B2B5F5167FF6DB6420B4FBF0F465
:100870001E48407978B11D4840781D4948711B4891
:10088000407808711B484088B0F5E16F2BDD0020EF
:100890001649487127E0A0B206F010FB164951F83E
:1008A0002060304607F090F940B21149487108467F
:1008B00090F9050010F1280F0CDD084690F90500AD
:1008C000642807DA084640790C49897B084440B21D
:1008D000074908710A48807810B1CE200449087190
:1008E00000200449488070BD040600205F000020FD
:1008F000A0050020D4050020C47D0008B805002014
:10090000FA05002070B55E4B1B78002B43D15D4B80
:100910005C881B8804EB0323AF24634303EB83034E
:100920005B004FF6FF7493FBF4F3A3F5E1731BB286
:10093000554C23802346B3F9003023802346B3F976
:100940000040524B1D781B785B1C504E3370504B4F
:1009500023F8154033461B78102B1CDB002334464C
:1009600023704C4C2360002009E0494B33F91030D0
:10097000484C24682344474C2360431CD8B21028B9
:10098000F3DB444B1B681B11424C236023461B883E
:100990001BB2414C2380414B9B79002B59D1404BDA
:1009A0005C881B8804EB03236424634303EB830309
:1009B0005B004FF6FF7493FBF4F33A4C238023461D
:1009C0001B88238023461C88374B1D781B785B1CB3
:1009D000354E3370354B43F8254033461B78102B8A
:1009E00033DB002334462370314C2360002109E0BF
:1009F0002E4B53F821302E4C246823442C4C23607A
:100A00004B1CD9B21029F3DB294B1B681B09284C5E
:100A1000236023461B88274C238023461B880A24F7
:100A200093FBF4F504FB1532052A07D3214B1B88F1
:100A300093FBF4F35B1C204CA37106E01D4B1B8859
:100A40000A2493FBF4F31C4CA37100231B4CE3809A
:100A50000BE0124B9B78184CA371184BDB88B3F555
:100A6000E16F02DD00230D4CA3710023054C2380B0
:100A70006380134C23706370094C2380638070BDC6
:100A8000940000208A0000207A00002088000020C6
:100A9000380B002080000020780000205F0000203C
:100AA0008E0000207E00002089000020580B0020CE
:100AB000840000207C000020A0050020D405002038
:100AC0009200002021B1026842F00102026004E0BD
:100AD00002684FF6FE731A400260704701684FF6D5
:100AE000FE72114001600021016041608160C160BF
:100AF0004B49884208D14A490839496841F00F01F9
:100B0000474A083A51608AE045491431884208D181
:100B100043490839496841F0F001414A083A5160B7
:100B20007DE03F492831884208D13D49083949686C
:100B300041F470613A4A083A516070E038493C31FA
:100B4000884208D136490839496841F47041344A2D
:100B5000083A516063E032495031884208D1304947
:100B60000839496841F470212D4A083A516056E02D
:100B70002B496431884208D129490839496841F430
:100B80007001274A083A516049E025497831884286
:100B900008D123490839496841F07061204A083A70
:100BA00051603CE01F49884206D1011F096841F0AD
:100BB0000F01021F116032E01A491431884208D136
:100BC0001849091F096841F0F001164A121F116007
:100BD00025E014492831884208D11249091F0968C3
:100BE00041F470610F4A121F116018E00D493C3149
:100BF000884208D10B49091F096841F47041094A2C
:100C0000121F11600BE007495031884207D1054996
:100C1000091F096841F47021024A121F11607047D0
:100C2000080002400804024010B50022026847F69E
:100C3000F0739A430C6A8B6823430C6923434C6915
:100C400023438C692343CC6923434C6A23438C6A36
:100C500023431A430260CB6843600B6883604B6890
:100C6000C36010BD7047000010B504466FF004006B
:100C700005F02AFA2046E11704EB5171C1F3C701D0
:100C8000014A117010BD00005600002030B5044626
:100C9000002504E04FF47A7000F004F86D1CA542C2
:100CA000F8D330BD01460D4A12784A434FF0E02395
:100CB0005A6100229A6101221A6100BF4FF0E022BE
:100CC000106900F001021AB100F48032002AF5D058
:100CD00000224FF0E0231A619A617047560000200D
:100CE00010B51C48C08AC0F3C02028B14FF4805111
:100CF000194800F0FBFD06E04FF48051164800F063
:100D0000F5FDC0F10100C4B21448807A88B91CB95D
:100D10000020134981F82100114890F82100022891
:100D200017DD01200D49887200200D4981F821004E
:100D30000FE01CB100200A4981F82100084890F812
:100D40002100022805DD002004498872044981F849
:100D5000210010BDB8050020000C0140AC050020AA
:100D6000D405002070B50024022505E0234830F8A2
:100D700015000444A81D85B2B5F5167FF6DB642086
:100D8000B4FBF0F41E48C07978B11D48C0781D4905
:100D9000C8701B48C07888701B488088B0F5E16F28
:100DA0002BDD00201649C87127E0A0B206F086F8B6
:100DB000164951F82060304606F006FF40B211494E
:100DC000C870084690F9030010F1280F0CDD0846A2
:100DD00090F90300642807DA0846C0780C49C97BFB
:100DE000084440B2074988700A48407810B1CE20C4
:100DF0000449887000200449888070BD04060020E2
:100E00005F000020A0050020D4050020C47D00085C
:100E1000B8050020FA0500200149C86070470000AD
:100E20000020024030B5044604254FF4302000F085
:100E300089F80546042D17D10C48006940F00200DE
:100E40000A49086108464461006940F040000861B1
:100E50004FF4302000F076F805460448006941F66A
:100E6000FD71084001490861284630BD002002405C
:100E700004200B49C96801F0010109B101200EE00D
:100E80000749C96801F0040109B1022007E00449DB
:100E9000C96801F0100109B1032000E00420704787
:100EA000002002400348006940F0800001490861C9
:100EB00070470000002002400549096821F0100138
:100EC000034A116011460968014311607047000030
:100ED0000020024070B504460D460426F00200F0E2
:100EE00031F80646042E11D10948006940F001008E
:100EF000074908612580F00200F024F806460448FE
:100F0000006941F6FE71084001490861304670BD34
:100F10000020024001460020034A106800F038001B
:100F20000843106070470000002002400248034957
:100F3000486003484860704723016745002002402D
:100F4000AB89EFCD00B502460423FFF791FF0346BE
:100F500003E0FFF78DFF0346521E012B01D1002A4B
:100F6000F7D102B90523184600BD00007448008877
:100F7000744908800846007840B273490870704888
:100F80004088704908800846007840B26E49487031
:100F90006B4880886B4908800846007840B26A49EF
:100FA00088706748C088674908800846007840B262
:100FB0006549C8706248008962490880084600781F
:100FC00040B2614988715E4840895E4908800846A0
:100FD000007840B25C49C8715948808959490880F5
:100FE0000846007840B2584908725548C0895549AA
:100FF00008800846007840B2534908715048008A7A
:10100000504908800846007840B24F4948714C4822
:10101000408A4C4908800846007840B24A49C87264
:101020004748808A474908800846007840B24649C8
:1010300008734348C08A43490880084600784249FB
:1010400048723F48008B3F490880084600783E4977
:1010500088723B48408B3B4908800846007840B284
:10106000394908743648808B36490880084600782C
:1010700040B2354948743248C08B3249088008462E
:101080000078314988742E48008C2E490880084623
:1010900000782D49C8742A48408C2A49088008469F
:1010A0000078294908752648808C2649088008461A
:1010B0000078254948752248C08C22490880084696
:1010C000007840B2204948731D48008D1D490880B2
:1010D0000846007840B21C4988731948408D194968
:1010E0000880084600881849C8821548808D15492F
:1010F000088008460088144908831148C08D1149AA
:10110000088008460078114908700D48008E0D4986
:101110000880084600780C49C8760948408E09497D
:101120000880084600780A4908700548808E0549FD
:1011300008800846007840B20649087070470000F1
:1011400000F0000830000020B80500202E0000202C
:101150002F0000207100002010B5FFF707FF0548A1
:101160000078502804D0012000F006F8FFF7FEFEBA
:1011700010BD00002F0000202DE9F041064600259B
:1011800000240027FFF7D2FE01273420FFF744FE9A
:1011900000BF08E0FE494A1402FB0510FFF742FEBB
:1011A000FC4908706D1CBD4203D2FA48007804283F
:1011B000F0D0002E7ED0F64C2820F7490870084663
:1011C000008881B22046FFF785FEF2490870A41C12
:1011D0001E20F14908700846008881B22046FFF7BA
:1011E00079FEEC490870A41C1D20EB4908700846E4
:1011F000008881B22046FFF76DFEE6490870A41C06
:101200000620E54908700846008881B22046FFF7AD
:1012100061FEE0490870A41C2D20DF4908700846D3
:10122000008881B22046FFF755FEDA490870A41CF9
:101230000020D94908700846008881B22046FFF78F
:1012400049FED4490870A41C0020D3490870084600
:10125000008881B22046FFF73DFECE490870A41CED
:101260000520CD4908700846008881B22046FFF766
:1012700031FEC8490870A41C0A20C74908700846F6
:10128000008881B22046FFF725FEC2490870A41CE1
:101290000020C14908700846008881B22046FFF747
:1012A00019FEBC490870A41C0720BB4908700846F9
:1012B000008800E0C7E081B22046FFF70BFEB54989
:1012C0000870A41CFD20B44908700846008881B24B
:1012D0002046FFF7FFFDAF490870A41CBB20AE49B4
:1012E00008700846008881B22046FFF7F3FDA9493F
:1012F0000870A41C1920A84908700846008881B20B
:101300002046FFF7E7FDA3490870A41C1E20A24950
:1013100008700846008881B22046FFF7DBFD9D4932
:101320000870A41C50209C4908700846008881B2AF
:101330002046FFF7CFFD97490870A41C4B20964923
:1013400008700846008881B22046FFF7C3FD914926
:101350000870A41C6220904908700846008881B279
:101360002046FFF7B7FD8B490870A41C50208A491E
:1013700008700846008881B22046FFF7ABFD85491A
:101380000870A41C0020844908700846008881B2B7
:101390002046FFF79FFD7F490870A41C00207E496E
:1013A00008700846008881B22046FFF793FD79490E
:1013B0000870A41C43F2FF70774908800846008833
:1013C00081B22046FFF786FD72490870A41CEB200D
:1013D000714908800846008881B22046FFF77AFDEF
:1013E0006C490870A41C01206B49088008460088DD
:1013F00081B22046FFF76EFD66490870A41C0120EB
:10140000654908700846008881B22046FFF762FDF2
:1014100060490870A41C50205F4908700846008885
:1014200081B22046FFF756FD5A490870A41C0020DF
:10143000594908700846008881B22046FFF74AFDE6
:101440005449087068E1524C544800785249087079
:101450000846008881B22046FFF73CFD4D490870E0
:10146000A41C4E4840784C4908700846008881B258
:101470002046FFF72FFD47490870A41C4748807895
:10148000454908700846008881B22046FFF722FDD2
:1014900040490870A41C4148C0783F49087008467C
:1014A000008881B22046FFF715FD3A490870A41C58
:1014B0003A488079384908700846008881B2204649
:1014C000FFF708FD33490870A41C3448C07932493D
:1014D00008700846008881B22046FFF7FBFC2D49C2
:1014E0000870A41C2D48007A2B4908700846008813
:1014F00081B22046FFF7EEFC26490870A41C27485D
:101500000079254908700846008881B22046FFF717
:10151000E1FC20490870A41C204840791E4908704D
:101520000846008881B22046FFF7D4FC19490870AC
:10153000A41C1A48C07A184908700846008881B26D
:101540002046FFF7C7FC13490870A41C1348007B12
:10155000114908700846008881B22046FFF7BAFC9E
:101560000C490870A41C0D48407A0B4908700846C5
:10157000008881B22046FFF7ADFC06490870A41C24
:101580000648807A044908700846008881B207E05E
:1015900000F000082C00002030000020B8050020DA
:1015A0002046FFF797FC62490870A41C6148007C44
:1015B000614908700846008881B22046FFF78AFC1E
:1015C0005B490870A41C5B48407C5B490870084676
:1015D000008881B22046FFF77DFC55490870A41CA5
:1015E0005448807C544908700846008881B22046DF
:1015F000FFF770FC4E490870A41C4E48C07C4E4951
:1016000008700846008881B22046FFF763FC48490D
:101610000870A41C4748007D4749087008460088A8
:1016200081B22046FFF756FC41490870A41C41488E
:10163000407D414908700846008881B22046FFF786
:1016400049FC3B490870A41C3A48407B3A49087061
:101650000846008881B22046FFF73CFC34490870F8
:10166000A41C3448807B344908700846008881B245
:101670002046FFF72FFC2E490870A41C2D48C08A75
:1016800000B22D4908800846008881B22046FFF745
:1016900021FC27490870A41C2648008B00B226496B
:1016A00008800846008881B22046FFF713FC2049D5
:1016B0000870A41C214800781F490870084600885B
:1016C00081B22046FFF706FC19490870A41C19488E
:1016D000C07E194908700846008881B22046FFF78D
:1016E000F9FB13490870A41C5020134908700846E0
:1016F000008881B22046FFF7EDFB0D490870A41C5D
:101700000F4800780C4908700846008881B22046CE
:10171000FFF7E0FB0649087002E06420FFF7B6FA25
:10172000034800780428F8D1FFF7BCFBBDE8F0813E
:101730002C000020B8050020300000202E000020E2
:10174000710000202DE9F04102460025002600200E
:1017500000230024002791F803C00CF00F0591F836
:1017600003C00CF0100CBCF1000F03D091F802C0C4
:101770004CEA050591F800C0BCF1000F31D01468A7
:1017800000202BE04FF0010C0CFA00F3B1F800C080
:101790000CEA03069E4220D183004FF00F0C0CFA96
:1017A00003F7BC4305FA03FC4CEA040491F803C0B8
:1017B000BCF1280F06D14FF0010C0CFA00FCC2F866
:1017C00014C00AE091F803C0BCF1480F05D14FF0F6
:1017D000010C0CFA00FCC2F810C0401C0828D1D340
:1017E0001460B1F800C0BCF1FF0F34DD5468002074
:1017F0002EE000F1080C4FF0010808FA0CF3B1F8E4
:1018000000C00CEA03069E4221D183004FF00F0C6A
:101810000CFA03F7BC4305FA03FC4CEA040491F804
:1018200003C0BCF1280F05D100F1080C08FA0CF830
:10183000C2F8148091F803C0BCF1480F07D100F141
:10184000080C4FF0010808FA0CF8C2F81080401C90
:101850000828CED35460BDE8F0810000F0B50A46F8
:10186000002300240021002500F00046B6F1004FBF
:1018700002D11D4EF16901E01B4E7168C0F30345B2
:1018800083B200F44016B6F5401F08D121F0706114
:10189000154E766826F07066134F7E6012E000F4F5
:1018A0008016B6F5801F06D1032606FA05F4A1437B
:1018B00041F0706106E0460D360103FA06F6B143C9
:1018C00041F0706122B1460D360103FA06F631434C
:1018D00000F00046B6F1004F02D1034EF16101E085
:1018E000014E7160F0BD0000000001400246002082
:1018F00093680B400BB1012000E00020704741616C
:1019000070470161704700BFFEE700001A48C078C9
:1019100040B31A48C08AC0F3802018B31848C07971
:1019200080B91848807A10B100201749887316488A
:10193000807B14281EDD0020134988730120104984
:10194000C87117E00F48807A10B900200E498873DB
:101950000D48807B08280DDD00200B49887308495D
:10196000C87107E00548C08AC0F3802010B9002084
:101970000349C8717047000058000020B8050020D6
:10198000AC050020A0050020D405002010B50446B9
:101990008CB11048807870B90E48C07858B94FF4AF
:1019A00000610D48FFF7ADFF01200A49C870002013
:1019B0000A4988730DE064B90648C078012808D147
:1019C000C1020548FFF79BFF00200249C870034988
:1019D000887310BD5800002000080140D405002085
:1019E00010B500200F4908600F48006820F00F0074
:1019F0000D4908600846006840F0030008600020B8
:101A00000A49C1F8A0010220FFF74CF9012005495D
:101A100008600220FFF746F900200449C1F8A4013C
:101A200010BD0000A4812142040C0140008021422D
:101A300010B500200F4908600F48006820F00F0023
:101A40000D4908600846006840F003000860012066
:101A50000A49C1F8A0010220FFF724F90120054935
:101A600008600220FFF71EF900200449C1F8A40114
:101A700010BD0000A4812142040C014000802142DD
:101A800070B5054600241748006820F00F0015497E
:101A900008600846006840F008000860002616E06C
:101AA0000020114908600220FFF7FCF801200F49CF
:101AB000C1F8A4016006040E0B488438006808B120
:101AC000601CC4B20120FFF7EDF8701CC6B2082EEE
:101AD000E6DB15B9FFF7ACFF01E0FFF781FF204619
:101AE00070BD0000040C0140A4812142008021420D
:101AF00070B504461848006820F00F0016490860C9
:101B00000846006840F003000860002013490860A0
:101B100000251EE0E00920B101201049091F0860DE
:101B200003E000200D49091F08606006040E022032
:101B3000FFF7B8F80120094908600220FFF7B2F862
:101B400000200749C1F8A4010220FFF7ABF8681C88
:101B5000C5B2082DDEDB70BD040C0140A48121421A
:101B60000080214210B50F48006820F00F000D4999
:101B700008600846006840F00300086001200A4938
:101B800008600A49C1F8A4010420FFF78BF800207F
:101B9000054908600420FFF785F800200349C1F8D3
:101BA000A40110BD040C0140A0812142008021420B
:101BB00010B50F48006820F00F000D490860084676
:101BC000006840F00300086000200A4908600A49E4
:101BD000C1F8A0010420FFF765F80120054908605D
:101BE0000549C1F8A0010420FFF75CF810BD000012
:101BF000040C0140A48121420080214210B5002440
:101C00001448006820F00F00124908600846006878
:101C100040F00800086001200F490860FFF742F813
:101C200001200E49C1F8A401FFF73CF807E0601C51
:101C3000C4B2FA2C03DDFFF7BBFF002010BD06483D
:101C4000803800680028F2D10349091D086001208E
:101C5000F4E70000040C0140A081214200802142F1
:101C600008B50121082003F021FA4FF44070ADF8C7
:101C7000000010208DF8030003208DF80200694653
:101C80000748FFF75FFD4FF440710548FFF739FE45
:101C90000120044908600449C1F8A40108BD0000FE
:101CA000000C0140A08121420080214208B50121A1
:101CB0001C2003F0FBF941F60310ADF800001020E2
:101CC0008DF8030003208DF8020069461B48FFF7DA
:101CD00039FD02211948FFF714FE4FF4A050ADF86A
:101CE000000004208DF8030003208DF802006946EF
:101CF0001348FFF727FD4FF40060ADF800001020F7
:101D00008DF8030003208DF8020069460C48FFF7A8
:101D100019FD40F20320ADF8000003208DF8020009
:101D200010208DF8030069460648FFF70BFD4FF4BD
:101D300000710448FFF7E3FD08BD00000008014002
:101D4000000C0140001001404AF6AA200149086039
:101D500070470000003000402DE9F04100240025CC
:101D600005E0334830F815000444A81D85B2B5F5E8
:101D7000167FF6DB6420B4FBF0F42E48007978B1CE
:101D80002C4800782C4908702A48007848702B4865
:101D90000088B0F5E16F2BDD00202649087127E0AF
:101DA000A0B205F08BF8264951F82070384605F0AE
:101DB0000BFF40B220494870084690F9010010F12D
:101DC000280F0CDD084690F90100642807DA084660
:101DD00040781C49497B084440B2174908701A48AA
:101DE000007810B1CE2014490870002013490880F3
:101DF000114890F9000010F1280F12DB0E4890F9FD
:101E0000000050280DDC0C4991F9001001F146004A
:101E100000EBD071C1F34F0631460C4804F01EFFB1
:101E200003E00021094804F019FFBDE8F08100003B
:101E3000040600205F000020A0050020D40500203B
:101E4000C47D0008B8050020FA050020002C0140E0
:101E500008B5FC4890F90000401C70B90020F94911
:101E600008700090F84890F9001000231A460320EB
:101E700001F0BEFE0020F5490870F24890F900001C
:101E80000B287BD2DFE800F07A064156657B92ACE6
:101E9000FEFDFC00ED480078012804DDEB480078E9
:101EA000401EEA490870E9480078012806D0022857
:101EB0000DD0032814D0042824D11AE01E20B62304
:101EC000024600210090012001F092FE1BE01E203E
:101ED000B6239C2200210090012001F089FE12E02F
:101EE000AA201C23EE2200210090012001F080FE98
:101EF00009E01E209E23B62200210090012001F05F
:101F000077FE00E000BF00BF46E3D048007801281C
:101F100004DDCE480078401ECC490870CC48CB493F
:101F20000978405CB6231E2200210090012001F0B8
:101F30005FFE31E3C5480078012804DDC34800781E
:101F4000401EC2490870C1480178012001F04EFDD1
:101F500022E3BE480078002804DDBC480078401E1B
:101F6000BA49087000200090B948B8490978425C25
:101F700000231946012001F03BFE0DE30BE3B348BB
:101F80000078002804DDB1480078401EAF49087091
:101F900000200090AE48AD490978435CAD4909780E
:101FA000425C0021012001F023FEF5E2A748007801
:101FB000002804DDA5480078401EA4490870A44804
:101FC000A2490978405C0090A148A3490978435C84
:101FD000A0490978425C0021012001F009FEDBE202
:101FE0009E48007800287BD098480078072878D24F
:101FF000DFE800F08E041A3049607800984890F9C4
:102000000000102805DD96480078401E40B2944933
:1020100008700020034602460090914890F9001095
:10202000032001F0E5FD74E08D4890F900000128DF
:1020300005DD8B480078401E40B2894908700020B9
:10204000034602460090864890F90010032001F0F4
:10205000CFFD5EE0824890F900001E2805DD804833
:102060000078401E40B27E490870002003460246B8
:1020700000907B4890F90010032001F0B9FD48E082
:102080004BE20CE25BE0764890F9000010F12D0F76
:1020900005DD73480078401E40B271490870002089
:1020A0000346024600906E4890F90010032001F0AC
:1020B0009FFD2EE06A4890F90000052805DD68487C
:1020C0000078401E40B26649087000200346024670
:1020D0000090634890F90010032001F089FD18E09A
:1020E00018E015E05E4890F90000012805DD5C4825
:1020F0000078401E40B25A4908700020034602464C
:102100000090574890F90010032001F071FD00E0A5
:1021100000BF13E04D480078012804DD4B480078EB
:10212000401E4A4908704A4848490978405CB6232D
:10213000002211460090012001F05AFD2CE2474890
:10214000007800287CD041480078102879D2DFE858
:1021500000F078081E344A61899FB5CBE1FCFAF99A
:10216000F8F73F4890F90000102805DD3C4800785A
:10217000401E40B23A4908700020034602460090D3
:10218000374890F90010032001F032FD4AE134484D
:1021900090F90000012805DD31480078401E40B26A
:1021A0002F49087000200346024600902C4890F901
:1021B0000010032001F01CFD34E1294890F90000D3
:1021C0001E2805DD26480078401E40B224490870CC
:1021D0000020034602460090214890F90010032099
:1021E00001F006FD1EE11E4890F9000010F12D0FD0
:1021F00005DD1B480078401E40B2194908700020D8
:10220000034602460090164890F90010032001F0A2
:10221000EFFC07E1124890F90000052805DD1048A1
:102220000078401E40B20E49087000200346024666
:1022300000900B4890F90010032001F0D9FCF1E068
:10224000F1E0EEE036000020A00500203B00002079
:102250004A0000203C0000203D0000203F000020FC
:1022600040000020CD4890F90000012805DDCB4852
:102270000078401E40B2C94908700020034602465B
:102280000090C64890F90010032001F0B1FCC9E0AD
:10229000C24890F90000142805DDC0480078401EAF
:1022A00040B2BE4908700020034602460090BB4879
:1022B00090F90010032001F09BFCB3E0B74890F9BF
:1022C0000000192805DDB5480078401E40B2B3492A
:1022D00008700020034602460090B04890F90010B4
:1022E000032001F085FC9DE0AC4890F90000322805
:1022F00005DDAA480078401E40B2A84908700020B9
:10230000034602460090A54890F90010022001F013
:102310006FFC87E0A14890F900002D2805DD9F485B
:102320000078401E40B29D490870002003460246D6
:1023300000909A4890F90010022001F059FC71E0D9
:1023400059E044E02DE016E0FFE7944890F90000E2
:10235000322805DD91480078401E40B28F49087050
:1023600000200346024600908C4890F9001002209D
:1023700001F03EFC56E0894890F900002D2805DD6B
:1023800086480078401E40B2844908700020034609
:1023900002460090814890F90010022001F028FCCC
:1023A00040E07E4890F90000012805DD7B48007878
:1023B000401E40B279490870002003460246009052
:1023C000764890F90010022001F012FC2AE07348D0
:1023D00090F90000C0F1010040B2704908707048E7
:1023E00091F90010405C00231A4619460090012024
:1023F00001F0FEFB16E0694890F90000002805DDB9
:1024000066480078401E40B26449087000200346C8
:1024100002460090614890F90010022001F0E8FBAC
:1024200000E000BF3AE05F480078012804DD5D4825
:102430000078401E5B4908705A4800780A280BDA79
:10244000574858490978405CB6230022114600904D
:10245000012001F0CDFB21E052480078092803DD7E
:10246000504800780E2803DB4E4800780F280DD125
:102470004C4800780A384A49085C0090084643787E
:10248000B6220021012001F0B3FB07E01E20B62395
:102490000A2200210090012001F0AAFB7CE04248C2
:1024A000007898B13D4890F90000C0F1010040B2B9
:1024B0003A4908703A4891F90010405C00231A46E6
:1024C00019460090012001F093FB25E03548007883
:1024D000012804DD33480078401E32490870314835
:1024E00000780A280BDA2E482E490978405C8E23A2
:1024F000002211460090012001F07AFB0CE02948EF
:1025000000780A382649085C0090084643788E22F5
:102510000021012001F06CFB3EE02348007898B1D7
:102520001E4890F90000C0F1010040B21B4908703C
:102530001B4891F90010405C00231A461946009090
:10254000012001F055FB25E016480078012804DD44
:1025500014480078401E13490870124800780A2871
:102560000BDA0F480F490978405C9C230022114682
:102570000090012001F03CFB0CE00A4800780A388A
:102580000749085C0090084643789C2200210120FE
:1025900001F02EFB00E000BF00BF08BD400000209E
:1025A0004A0000203B0000203F00002008B51B48E7
:1025B00090F90000401C78B900201849087000907C
:1025C000174890F9001000231A46032001F010FB71
:1025D00000201449087020E01048007870B90120EC
:1025E0000E4908701E20B6230246002100900120EB
:1025F00001F0FEFA01200B4908700EE000200749A7
:1026000008700090064890F9001000231A46032035
:1026100001F0EEFA00200349087008BD36000020E2
:10262000A00500203B000020F8B51C20EE239C22D2
:1026300000210090012001F0DBFA40F2DC50FEF7AF
:1026400025FB02F01DFCFFF77FFB14480089642185
:1026500090FBF1F0C5B21148008990FBF1F201FB4B
:102660001200C4B20A2094FBF0F0C4B20B480089F7
:102670000A2190FBF1F201FB1200C6B20848805D0E
:1026800000900748035D425D0021012001F0B0FA8F
:1026900040F2DC50FEF7FAFAF8BD0000A005002079
:1026A0004A00002008B5FB4890F90000401C70B9B2
:1026B0000020F84908700090F74890F900100023B6
:1026C0001A46032001F094FA0020F4490870F148FA
:1026D00090F900000B286ED2DFE800F06D06565727
:1026E000586E86FDFCFBFA00EC480078012806D005
:1026F000022815D0032823D0042842D12BE0E84833
:10270000007860B90120E6490870FF20E1490870AF
:102710000020034602460146009001F069FA31E0CC
:10272000E0484078B6231E2200210090012001F0ED
:102730005FFA0220D74908700120D849087021E0CB
:102740000121084601F052F90320D2490870012006
:10275000D249087016E000200090D2480278002389
:102760001946012001F044FA0420CA4908700020EB
:10277000CA490870CC490870CC490870CC49087027
:1027800000E000BF00BF7EE3FDE7FCE70520C14994
:102790000870C2480078C449087000200090C14801
:1027A00003780978425C0021012001F021FA002021
:1027B000BA490870E7E7FAE30620B6490870B74857
:1027C0000078BA490870B74800780090B548097891
:1027D000435CB5490978425C0021012001F008FA08
:1027E0000020AE490870CEE7AC480078B0490870C8
:1027F000AD48007801281AD1AC480078022816D1DB
:1028000008460078032812D1A6484078B623002253
:1028100011460090012001F0EBF901209F4908705A
:1028200007209C4908700020A249087076E09E4865
:10283000007801281AD19D480078012816D19C48BB
:102840000078012812D197484078B623002211461B
:102850000090012001F0CCF9012090490870082077
:102860008C49087000209349087057E08E48007822
:1028700004281AD18D480078052816D18C48007894
:10288000062812D1874840788E23002211460090F6
:10289000012001F0ADF901208049087009207D492F
:1028A000087000208349087038E07F4800780728C6
:1028B0001FD17E48007808281BD17D480078092860
:1028C00017D1784840789C2300221146009003E0FD
:1028D00044E3D9E2D4E022E0012001F089F90120AB
:1028E0006E4908700A206B49087000207149087011
:1028F00014E0002000906B48027800231946012064
:1029000001F076F9042063490870002063490870DB
:102910006549087065490870654908707BE365483A
:102920000078E0B35D480078072829D2DFE800F09E
:1029300028040A10161C22005F4890F900005F4925
:1029400088701EE05C4890F900005C49C87018E08F
:10295000594890F900005949887112E0564890F999
:102960000000564908720CE0534890F900005349A2
:10297000087106E0504890F900005049487100E0A5
:1029800000BF00BF00204B49087046484349097802
:10299000405CB623002211460090012000E005E0D3
:1029A00001F026F90020FEF7E7FB68E03B480078DD
:1029B00007285FD2DFE800F05E04132231404F00A9
:1029C0003E4880783C49087000200346024600904B
:1029D000084690F90010032001F00AF94BE037484F
:1029E000C07835490870002003460246009008462A
:1029F00090F90010032001F0FBF83CE02F488079AB
:102A00002D4908700020034602460090084690F9C0
:102A10000010032001F0ECF82DE02848007A264948
:102A200008700020034602460090084690F9001006
:102A3000032001F0DDF81EE0204800791E490870EF
:102A40000020034602460090084690F9001003203B
:102A500001F0CEF80FE019484079174908700020BE
:102A6000034602460090084690F90010032001F04A
:102A7000BFF800E000BF00BF01200E490870CAE2A5
:102A80000C48007800286ED00448007810287AD2CC
:102A900016E0000036000020A00500203B000020CA
:102AA0006F0000204A0000203C0000203D00002074
:102AB0003E0000203F00002040000020B80500201C
:102AC000DFE800F061080E141A20262C32383D424F
:102AD000474C535CFE4890F90000FE49887053E073
:102AE000FB4890F90000FB49C8704DE0F84890F9A8
:102AF0000000F849887147E0F54890F90000F54971
:102B0000087241E0F24890F90000F24908713BE098
:102B1000EF4890F90000EF49487135E0EC4890F932
:102B20000000EC4908742FE0E94890F90000E949F9
:102B3000487429E0E6480078E649887424E0E448CF
:102B40000078E449C8741FE0E1480078E14908755D
:102B50001AE0DF480078DF49487515E0DC48007866
:102B6000DD49087010E067E00DE0D94800780128E1
:102B700003D1FEF701FBFEF7F9F905E0D448007830
:102B8000D449C87600E000BF00BF0020D3490870D8
:102B9000D34800780A280BDAD248D1490978405C3A
:102BA000B623002211460090012001F021F821E017
:102BB000CB480078092803DDC94800780E2803DBDC
:102BC000C74800780F280DD1C54800780A38C54994
:102BD000085C009008464378B6220021012001F0ED
:102BE00007F807E01E20B6230A22002100900120EA
:102BF00000F0FEFFBA4800780E2802DA0020FEF747
:102C0000BBFAB74800780F2815D16420FEF73EF8CC
:102C10000021B54804F0F8FC0A20FEF737F804F06C
:102C200079FC0A20FEF732F80121AF4804F0ECFCF1
:102C30000020FEF7A1FA26E1A9480078102875D2F5
:102C4000DFE800F074081A2C3E5062758799ACBF1B
:102C5000D2E5FAF89F4880789D4908700020034625
:102C600002460090084690F90010032000F0C0FFD3
:102C700001209A49087005E19648C0789449087087
:102C80000020034602460090084690F900100320F9
:102C900000F0AEFF012091490870F3E08D48807983
:102CA0008B4908700020034602460090084690F9C0
:102CB0000010032000F09CFF012088490870E1E02B
:102CC0008448007A8249087000200346024600903A
:102CD000084690F90010032000F08AFF01207F4988
:102CE0000870CFE07B4800797949087000200346DE
:102CF00002460090084690F90010032000F078FF8B
:102D0000012076490870BDE072484079704908702A
:102D10000020034602460090084690F90010032068
:102D200000F066FF01206D490870ABE0A9E069483A
:102D3000007C674908700020034602460090084660
:102D400090F90010032000F053FF01206349087040
:102D500098E06048407C5E490870002003460246C7
:102D60000090084690F90010032000F041FF012078
:102D70005A49087086E05748807C40B25449087030
:102D80000020034602460090084690F900100220F9
:102D900000F02EFF01205149087073E04D48C07CBF
:102DA00040B24B4908700020034602460090084696
:102DB00090F90010022000F01BFF01204749087025
:102DC00060E04448007D40B241490870002003465D
:102DD00002460090084690F90010022000F008FF1B
:102DE00001203E4908704DE03A48407D40B23849E4
:102DF00008700020034602460090084690F9001033
:102E0000022000F0F5FE0120344908703AE0314814
:102E1000807E40B22E490870002003460246009092
:102E20002D48007841B2022000F0E2FE01202B493B
:102E3000087027E012E0FFE70020254908702948C4
:102E400091F90010405C00231A46194600900120B9
:102E500000F0CEFE01202149087013E01D48C07E1D
:102E600040B21B4908700020034602460090084605
:102E700090F90010022000F0BBFE012017490870F5
:102E800000E000BF00BFC6E01448007870B31048EF
:102E9000007840B10F48C08A11490978491E0122C3
:102EA0008A40104307E00B48C08A0D490978491E43
:102EB00001228A4090430749C882094800780A28BD
:102EC0001BDA084806490978405C8E2300220EE090
:102ED00040000020B80500202E0000203F00002008
:102EE0003B0000204A0000200044004019E0114649
:102EF0000090012000F07CFE0CE0484800780A3881
:102F00004749085C0090084643788E220021012042
:102F100000F06EFE0020FEF72FF9002041490870F6
:102F20001BE04148C08A3D490978491E01228A4078
:102F3000104008B1012000E000203C4908703848EA
:102F400091F90010405C00231A46194600900120B8
:102F500000F04EFE0120334908705CE031480078F3
:102F6000D0B33248007840B12F48008B2B49097804
:102F7000491E01228A40104307E02B48008B274955
:102F80000978491E01228A40904327490883234833
:102F900000780A280CDA224820490978405C9C23F2
:102FA000002211460090012000F022FE0DE031E0E9
:102FB0001A4800780A381A49085C00900846437895
:102FC0009C220021012000F013FE0020FEF7D4F81F
:102FD0000020144908701CE0FFE71348008B0F49DC
:102FE0000978491E01228A40104008B1012000E002
:102FF00000200E4908700A4891F90010405C002337
:103000001A4619460090012000F0F2FD0120054902
:10301000087000E000BF00BF08BD00003B000020BA
:103020004A0000203F000020B8050020400000209A
:1030300008B5FE4890F90000401C70B90020FB491B
:1030400008700090FA4890F9001000231A460320F7
:1030500000F0CEFD0020F7490870F44890F9000018
:103060000B287DD2DFE800F07C064156698097B1DD
:10307000FEFDFC00EF480078042804DAED480078F3
:10308000401CEC490870EB480078012806D0022863
:103090000DD0032814D0042824D11AE01E20B62312
:1030A000024600210090012000F0A2FD1BE01E203E
:1030B000B6239C2200210090012000F099FD12E02F
:1030C000AA201C23EE2200210090012000F090FD98
:1030D00009E01E209E23B62200210090012000F06E
:1030E00087FD00E000BF00BF52E3D248007805280A
:1030F00004DAD0480078401CCE490870CE48CD494B
:103100000978405CB6231E2200210090012000F0C7
:103110006FFD3DE30021084600F068FCC5490978D1
:10312000884204DDC3480078401CC2490870C14889
:103130000178012000F05AFC2AE3BE4800780928F3
:1031400004DABC480078401CBA490870002000909E
:10315000B948B8490978425C00231946012000E0CB
:1031600015E300F045FD13E3B2480078092804DABE
:10317000B0480078401CAF49087000200090AE486D
:10318000AC490978435CAD490978425C00210120D3
:1031900000F02EFDFCE2A7480078092804DAA548D3
:1031A0000078401CA3490870A348A2490978405CF4
:1031B0000090A148A2490978435CA0490978425C83
:1031C0000021012000F014FDE2E29E480078002872
:1031D0007BD098480078072878D2DFE800F08E048A
:1031E0001A304A607800984890F90000262805DADD
:1031F00095480078401C40B293490870002003466F
:1032000002460090904890F90010032000F0F0FC76
:1032100074E08D4890F900000A2805DA8A480078A1
:10322000401C40B2884908700020034602460090C6
:10323000854890F90010032000F0DAFC5EE0824837
:1032400090F900003C2805DA7F480078401C40B225
:103250007D49087000200346024600907A4802E04B
:1032600057E218E260E090F90010032000F0C0FC83
:1032700044E0754890F900000A2805DA72480078A1
:10328000401C40B27049087000200346024600907E
:103290006D4890F90010032000F0AAFC2EE06A4867
:1032A00090F900001A2805DA67480078401C40B2FF
:1032B000654908700020034602460090624890F974
:1032C0000010032000F094FC18E018E015E05E48C0
:1032D00090F900000A2805DA5B480078401C40B2EB
:1032E000594908700020034602460090564890F95C
:1032F0000010032000F07CFC00E000BF13E04D480C
:103300000078062804DA4B480078401C49490870C8
:10331000494848490978405CB6230022114600908C
:10332000012000F065FC33E24648007800287BD09D
:1033300040480078102878D2DFE800F077081E3483
:103340004A60889EB4CAE0FBF9F8F7F63E4890F967
:103350000000262805DA3C480078401C40B23A4973
:1033600008700020034602460090374890F900108C
:10337000032000F03DFC51E1334890F900000A2899
:1033800005DA31480078401C40B22F49087000200F
:103390000346024600902C4890F90010032000F0EC
:1033A00027FC3BE1284890F900003C2805DA264834
:1033B0000078401C40B224490870002003460246B1
:1033C0000090214890F90010032000F011FC25E145
:1033D0001D4890F900000A2805DA1B480078401CB7
:1033E00040B2194908700020034602460090164872
:1033F00090F90010032000F0FBFB0FE1124890F958
:1034000000001A2805DA10480078401C40B20E4926
:10341000087000200346024600900B4890F9001007
:10342000032000F0E5FBF9E0F9E0F6E036000020CB
:10343000A00500203B0000204A0000203C000020A6
:103440003D0000203F00002040000020D14890F9BE
:1034500000000A2805DACF480078401C40B2CD4968
:1034600008700020034602460090CA4890F90010F8
:10347000032000F0BDFBD1E0C64890F900002828E9
:1034800005DAC4480078401C40B2C24908700020E8
:10349000034602460090BF4890F90010032000F058
:1034A000A7FBBBE0BB4890F900002D2805DAB9481E
:1034B0000078401C40B2B74908700020034602461D
:1034C0000090B44890F90010032000F091FBA5E0B3
:1034D000B04890F90000632805DAAE480078401C37
:1034E00040B2AC4908700020034602460090A9484B
:1034F00090F90010022000F07BFB8FE0A54890F9C6
:1035000000005F2805DAA3480078401C40B2A149BA
:10351000087000200346024600909E4890F9001073
:10352000022000F065FB79E061E04CE02DE016E060
:10353000FFE7984890F90000632805DA954800787D
:10354000401C40B293490870002003460246009098
:10355000904890F90010022000F04AFB5EE08D4890
:1035600090F900005F2805DA8A480078401C40B2D4
:10357000884908700020034602460090854890F96B
:103580000010022000F034FB48E0824890F900006F
:10359000012802DA01207F4908707E4890F9000076
:1035A0007D2805DA7B480078401C40B279490870D4
:1035B0000020034602460090764890F90010022051
:1035C00000F016FB2AE0734890F90000C0F10100FA
:1035D00040B270490870704891F90010405C0023B7
:1035E0001A4619460090012000F002FB16E06948D7
:1035F00090F90000012805DA66480078401C40B2C6
:10360000644908700020034602460090614890F922
:103610000010022000F0ECFA00E000BF3AE05F4842
:1036200000780F2804DA5D480078401C5B49087078
:103630005A4800780A280BDA574858490978405CFC
:10364000B623002211460090012000F0D1FA21E0BB
:1036500052480078092803DD504800780E2803DB23
:103660004E4800780F280DD14C4800780A384A4956
:10367000085C009008464378B6220021012000F043
:10368000B7FA07E01E20B6230A220021009001208D
:1036900000F0AEFA7CE04248007898B13D4890F9DD
:1036A0000000C0F1010040B23A4908703A4891F96F
:1036B0000010405C00231A4619460090012000F0DB
:1036C00097FA25E0354800780E2804DA3348007868
:1036D000401C32490870314800780A280BDA2E481D
:1036E0002E490978405C8E2300221146009001206B
:1036F00000F07EFA0CE0294800780A382649085C78
:103700000090084643788E220021012000F070FAD4
:103710003EE02348007898B11E4890F90000C0F1BF
:10372000010040B21B4908701B4891F90010405C31
:1037300000231A4619460090012000F059FA25E0AE
:10374000164800780E2804DA14480078401C134903
:103750000870124800780A280BDA0F480F490978D8
:10376000405C9C23002211460090012000F040FAAA
:103770000CE00A4800780A380749085C00900846BF
:1037800043789C220021012000F032FA00E000BFC3
:1037900000BF08BD400000204A0000203B00002080
:1037A0003F00002010B54FF480612C48FEF79EF8D2
:1037B000B0B14FF400412A48FEF798F880B14FF4B9
:1037C00080512648FEF792F850B14FF4006123482B
:1037D000FEF78CF820B108212048FEF787F8A0BB3F
:1037E0000020204988770A20FDF750FA4FF48061C5
:1037F0001A48FEF77BF808B9312010BD4FF400419C
:103800001748FEF773F808B93220F6E74FF48051F5
:103810001248FEF76BF808B93320EEE74FF4006169
:103820000E48FEF763F808B93420E6E708210B4894
:10383000FEF75CF850B901200B490870094890F870
:1038400024000A2808DB3520D7E701E00020D4E770
:10385000002005490870D0E70020CEE700100140A5
:1038600000080140D40500203A00002038B50025AA
:103870005448007838B153480078012803D05248A2
:10388000807A00283AD05148007851490870FFF7F3
:1038900089FF4E490870084600784D4909788842EA
:1038A0002CD04A4800783138052825D2DFE800F0CE
:1038B00003090F151B00FEF779FE5020FDF7E6F90E
:1038C0001BE0FEF7EFFE5020FDF7E0F915E0FFF7F3
:1038D000AFFB5020FDF7DAF90FE0FEF7B9FA502000
:1038E000FDF7D4F909E001203A49087003F0CCFB58
:1038F0000A20FDF7CBF900E000BF00BF3648007892
:1039000002285DD13548807F022859D1344800789B
:10391000062839D2DFE800F03803190E242D0020E4
:103920000090304890F9001000231A46032000F060
:103930005FF92AE0002000902A4890F90410002343
:103940001A46032000F054F91FE00020009025489B
:1039500090F9021000231A46032000F049F914E000
:1039600002200346002211460090012000F040F999
:103970000BE0002000901B48807941B200231A46DA
:10398000022000F035F900E000BF00BF002409E08C
:10399000002502E0FEF7D8F96D1C42F21070854256
:1039A000F8D3641CB4F57A7FF2D30F480C49097838
:1039B000405CB6231E2200210090012000F018F97F
:1039C00038BD000070000020AC0500203800002049
:1039D000390000206F00002036000020D4050020B0
:1039E0003B000020A00500204A0000202DE9F04700
:1039F00085B081460E46002500200190029003907C
:103A000004904D48007830B14C48807DC0F3800070
:103A100008B1012000E000204749497831B1474909
:103A2000C98AC1F3002109B1012100E0002140EA67
:103A300041004149897840EA810141488078404A03
:103A4000D278104341EA00113D4800783C4A527850
:103A5000104341EA40103A49097940EA8110384957
:103A6000497940EAC1103649C97940EA41203449D0
:103A7000897940EA81203249897A40EAC1202E4979
:103A8000C97831B12D49C98AC1F3003109B1012189
:103A900000E0002140EA01302949497A40EA4130FA
:103AA0001FFA80FA00240CE04AFA04F000F001004A
:103AB00028B1601CC1B201AA681C1154C5B2601CB7
:103AC000C4B2102CF0DBB9F1000F32D02DB301A835
:103AD000805D0A2190FBF1F0C7B201A8805D90FBE8
:103AE000F1F201FB120000F0FF085FB1154810F879
:103AF000080000901348C35D9E220021012000F0C1
:103B000077F812E00F4810F808009E2300221146B3
:103B10000090012000F06CF807E03A202A230022F0
:103B200011460090012000F063F8002005B0BDE8C8
:103B3000F0872846FAE70000FA050020B8050020C3
:103B4000AC0500204A000020254A127A2ABB244AEC
:103B5000927812BB224AD278FAB9214A1278E2B995
:103B60001F4A5278CAB91E4A1279B2B91C4A527910
:103B70009AB91B4A927982B9194AD2796AB9184A14
:103B8000527A52B9174AD27822B1174AD28AC2F36E
:103B9000003212B9124A927A0AB1012200E00022E0
:103BA0001146124A927802F00102082343EAC21237
:103BB0000E4BDB7803F0010342EA431201F00103EC
:103BC00042EA0312094B9B7903F0010342EA4302E4
:103BD000064B1B7803F0010342EA03007047000024
:103BE000AC050020FA050020B80500205800002090
:103BF0002DE9F04306460C4617469846DDF81C9022
:103C0000FFF7A2FF0546062E78D2DFE806F0030B89
:103C1000134B909700204F49087048708870082017
:103C2000C87093E04B48077080F8018080F80290DC
:103C3000C5708BE0642094FBF0F038B1642094FBF5
:103C4000F0F04549085C4349087002E00020414912
:103C50000870642094FBF0F060B9642094FBF0F1EC
:103C600000FB11400A2190FBF1F018B900203949FE
:103C700048700BE0642094FBF0F100FB11400A2136
:103C800090FBF1F03449085C324948700A2094FBFB
:103C9000F0F100FB11403049085C2E49887008465D
:103CA000C57053E0002C02DB2A48C57006E045F0E1
:103CB00040002849C870E043401C44B2642094FB93
:103CC000F0F038B1642094FBF0F02349085C2149FE
:103CD000087002E000201F490870642094FBF0F097
:103CE00068B9642094FBF0F100FB11400A2190FBBD
:103CF000F1F020B90020174948700CE025E064205D
:103D000094FBF0F100FB11400A2190FBF1F0124905
:103D1000085C104948700A2094FBF0F100FB114048
:103D20000D49085C40F001000A4988700EE0FF2050
:103D30000849087048708870C87007E0002005497D
:103D4000087048708870C87000E000BF00BFBDE810
:103D5000F0830000320000204A00002010B5044625
:103D600024B140210448FDF7CCFD03E04021024886
:103D7000FDF7C5FD10BD0000000C014010B5044664
:103D800024B180210448FDF7BCFD03E080210248F6
:103D9000FDF7B5FD10BD0000000C014008B5012184
:103DA000084601F083F901213C2001F07FF901214F
:103DB0002A48FDF753FDF820ADF8000010208DF8DB
:103DC000030003208DF8020069462548FDF7BAFC80
:103DD00008212348FDF793FD10212148FDF78FFDB1
:103DE00020211F48FDF78BFD40211D48FDF787FD71
:103DF00080211B48FDF783FD0420ADF80000102052
:103E00008DF8030003208DF8020069461548FDF780
:103E100099FC04211348FDF772FD4FF40040ADF802
:103E2000000048208DF8030003208DF80200694649
:103E30000D48FDF787FC41F60840ADF8000048202A
:103E40008DF8030003208DF8020069460748FDF74E
:103E500079FC01210148FDF701FD08BD0002300099
:103E6000000C014000140140000801400010014016
:103E700000BFFEE72DE9F0474FF0000800270120C2
:103E8000C2490870C2484078C2490978884204D0C3
:103E90000020BE490870BDE8F087BD480078801E4C
:103EA00081B2BB48401C03F073FE0746B848007857
:103EB000B749095CB6480078401EB54A105C01EB72
:103EC00000201FFA80F8474503D00020AF49087052
:103ED000E1E71021B048FDF714FDAD4880780128D6
:103EE00074D0032804D0052871D0062870D144E08E
:103EF0000020AA490870A6480079A549C97840EA77
:103F00000124002C30DDB4F5837F2DDCA0498879B5
:103F10000321A34A51704106090E91700321A14A61
:103F200011701BE0A04931F814100A129D490B785A
:103F30000978491CDFF86CC28CF800109849CA5403
:103F40002146621C94B2984A12F8112061460B78FF
:103F50000978491C8CF800109149CA54011EA0F13F
:103F60000102D0B2DED107E083208D4948700220E3
:103F7000887003208B490870E1E0012087490870B0
:103F8000834800798249C97840EA0124002C20DD69
:103F9000402C1EDC0620824948707D48C07888701D
:103FA0007B480079C8707A484079087178488079F0
:103FB000487106207B4908707548807974494979B1
:103FC00040EA0126784820F814600AE00AE07EE022
:103FD000ACE0862072494870022088700320714945
:103FE0000870ACE000206D490870694800796849A4
:103FF000C97840EA0124292C60DB402C5EDC64484F
:1040000081790120664A5070092091FBF0F0401C34
:1040100090700220634A1070A4F12900C5B240E0FC
:10402000624A1078C21700EB5272D210D21C5D4B5C
:104030001A70EB1705EB13731B11DFF874C13CF812
:1040400013304FEAE57C05EB1C7C4FEA2C1CA5EBFA
:104050000C194FF0010C0CFA09FC03EA0C03CBB16C
:10406000524A1078C21700EB5272D210A0EBC20372
:1040700001229A404A4BDFF82CC19CF800C013F88B
:104080000C301A43D3B2464ADFF818C19CF800C07E
:1040900002F80C3045480078401C444A1070681CF7
:1040A000C5B2081EA1F10102D1B2B9D13F4A1070C8
:1040B0003C480078401C3B4A107007E08320384998
:1040C00048700220887003203649087037E00220CB
:1040D000324908702E4800792D49C97840EA0124F8
:1040E000402C1AD105202E4948702948C078887084
:1040F00027480079C870264840790871244880799B
:10410000487106202749087021488079204949795B
:1041100040EA01262748068007E0862020494870AB
:104120000220887003201F49087008E080201C4985
:1041300048700120887003201A49087000BF00BF32
:10414000144800781649087016480178144803F09E
:104150001FFD07463912134802780078401C114BA6
:1041600018700F488154184601780078401C187068
:104170000B484754012240F227710F4803F087FA99
:1041800000200249087000BF85E600001F000020E3
:10419000D80100202E000020001001405500002012
:1041A000A002002023000020CC0300202B000020D0
:1041B0005C0500201C000020004400407047000007
:1041C00070B5002100230F22C47804B3154C246875
:1041D00004F4E064C4F5E064210AC1F10403CA40B8
:1041E000447804FA03F184781440214309010E4C09
:1041F0000678A155047804F01F050124AC40057829
:104200006D11AD0005F1E025C5F8004109E0047825
:1042100004F01F050124AC40044D0678761145F8E2
:10422000264070BD0CED00E000E400E080E100E01D
:1042300002490143024A1160704700000000FA057C
:104240000CED00E010B5BB480078F8B9BA484078EA
:1042500008281BDBB94890F90200B84991F903100E
:104260000844B74991F90010884203DC0120B549A0
:10427000087015E0B24890F90000B04991F90210B9
:1042800088420DDC0020AF49087009E0A948007899
:1042900030B1A9484078082802DB0020A9490870FD
:1042A000A448807870B1A448007808280ADBA648A2
:1042B000807818B10120A349887028E00020A14926
:1042C000887024E09B48807808BB9B4800780828C9
:1042D0001DDB9D488078B8B1994890F90400974952
:1042E00091F90010884203DB0120964988700EE0A6
:1042F000934890F90400914991F90110884206DC35
:1043000000209049887002E000208E49887089481A
:104310000078F8B98848807808281BDB884890F92D
:104320000000864991F90410884203DC0120854988
:10433000487019E0814890F90500804991F904100E
:1043400008447F4991F9001088420DDC00207D4926
:10435000487009E07748007830B1774880780828BD
:1043600002DB002077494870754890F900007349D6
:1043700091F9101088420BDD714890F900006F49E7
:1043800091F90210884203DC0120704908702EE088
:104390006A4890F90200694991F903100844684994
:1043A00091F90010884203DC0220684908701EE081
:1043B000634890F90000614991F9101088420BDCC4
:1043C0005F4890F900005D4991F90410884203DDCF
:1043D00003205E4908700AE0594890F900005749E7
:1043E00091F90410884202DC0420584908705648AC
:1043F000807978B9524880795049897C884216DBA7
:104400005048007898B94F48407880B901204E490B
:1044100088710CE04C488079012808D1484880799F
:104420004649C97C884202DC0020474988714648D9
:10443000807901287CD145480078012806D00228DF
:104440001ED003283BD0042870D14FE04FF4805198
:104450003F48FDF756FA01203B49887000203D494E
:1044600008828872087388734FF400613848FDF73A
:1044700048FA01203449C87000203649887356E054
:1044800001203049087001033148FDF73AFA012054
:104490002D49887000202F4908828872087388731C
:1044A000284948704FF400612948FDF728FA002098
:1044B0002549C870274988732349887137E04FF42C
:1044C00080512348FDF71BFA00201F4988702149BD
:1044D000088288734FF400611D48FDF712FA01202D
:1044E0001949C87000201B49887320E00020154935
:1044F00008704FF480511648FDF701FA0020124968
:10450000887014490882887301200E494870C102DE
:104510000F48FDF7F6F901200B49C87000200D493E
:1045200088730949887102E002E0FFE700BF00BF1D
:1045300010BD0000FA05002067000020B80500202B
:10454000A00500206B00002058000020750000200E
:1045500000080140D405002010B5F8480078E0B903
:10456000F748807D00F00100B8B1F64890F90000EE
:10457000F34991F90610884203DD0120F2490870E1
:104580000EE0F04890F90000ED4991F906108842DC
:1045900006DC0020EC49087002E00020EA490870BF
:1045A000E6480078A0B9E648807DC0F3001078B1F5
:1045B000E44890F90000E24991F90810884203DAD2
:1045C0000120E149487006E00020DF49487002E020
:1045D0000020DD494870D948007978B1D848807DFD
:1045E000C0F3C01050B10020D449C871D749088326
:1045F0004882D2494872D5498883C882D4484078D5
:1046000003284EDDD348807800284AD0CB488078F4
:10461000002846D1CC480079002842D1C848807D86
:10462000C0F3C00000283CD0C64890F904004E28D2
:1046300002DC0020C5490873C448007B052851DD11
:104640000020C24908730320C14948700870002047
:10465000C14908704FF48051C048FDF750F900205F
:10466000BC498870B949088288730120BA498870AA
:104670000020B249C871B84908704FF48051B7485A
:10468000FDF73DF90020B3498870B049088288736E
:10469000B14988700120AC4908710020AB494884B9
:1046A00020E0A648807820B9A548807DC0F3C000EE
:1046B000C0B9A7484078032802D0A548407810B96F
:1046C0000820A3494870A2480078032802D0A048D7
:1046D000007810B908209E49087000209749C871D9
:1046E0009949087198480079012841D19748408C30
:1046F000B0F5C37F18DD00209349087193494884C1
:104700004FF480719548FDF7FAF800209149487000
:10471000914988708F49487008208D494870087009
:10472000B4208A49088223E000208A498870012049
:10473000087048700020C87087494870FCF750F82E
:10474000002085490870FCF74BF8012082498870E9
:1047500001028248FDF7D5F801207E494870C10268
:104760007F48FDF7CEF801207A4908707649087134
:1047700077484078042850DD7648807800284CD06F
:104780006E484078002848D16F484079002844D1CD
:104790006B48C08AC0F34020F0B36A4890F9020029
:1047A000002802DB0020694988726848807A0A285C
:1047B00050DD002065498872042065494870087002
:1047C0000020654908704FF480516448FDF797F860
:1047D0000020604988705D49088288735E4988704E
:1047E000564908725C4908704FF480515B48FDF7E8
:1047F00086F80020574988705449088288735649C2
:104800008870042052494870087001204E49487150
:1048100000204E4948841DE0FFE74848407820B911
:104820004748C08AC0F34020A0B900204749887299
:10483000424908724449487145484078042802D1E9
:1048400008204349487042480078042802D10820D3
:104850003F4908703C484079012837D13B48408C9B
:10486000B0F5C37F0CDD00203749487137494884D3
:104870000820374948700870B4203449088225E080
:104880000020344988700120087000204870C870EA
:1048900031494870FBF7A4FF00202F490870FBF74F
:1048A0009FFF00202C4988704FF480712B48FDF742
:1048B00026F80020274948704FF400612848FDF78A
:1048C00020F80120234908701F494871204840788A
:1048D000022847DD1F48807878B31948807DC0F3EF
:1048E000400050B31748807A28B1002017498873D8
:1048F0001549887154E01548807B142850DD00204C
:1049000012498873022012494870087001200B492F
:10491000487211498870002008704FF480510F4888
:10492000FCF7EDFF00200B49887008490882887366
:10493000488401200449887132E013E0FA05002020
:10494000B8050020A0050020AC050020D4050020FB
:1049500067000020580000206B0000200008014084
:10496000000C0140D748807DC0F34000C0B9002052
:10497000D5494872D5498871D5484078022802D077
:10498000D348407810B90820D1494870D048007801
:10499000022802D0CE48007810B90820CC4908700F
:1049A000CB484078022849D10020CA49888308466C
:1049B000808BB0F5347F44DD0820C549487008700D
:1049C000C548807A30BBC548807818B3C148807B21
:1049D000142836DD0020BF498873C14908704FF4A0
:1049E0008051C048FCF78BFF0020BC498870B94952
:1049F000088288730120BA4988700220B44948703F
:104A00000870B148407A401CAF4948720020B14953
:104A1000888316E0B148807810B10020AD498873D2
:104A2000AC48808B40F2E62188420ADD0020A9498B
:104A300088830820A6494870087002E00020A54934
:104A400088830020A349C882A0488079012846D1E4
:104A50000846408CA449096888421CD900209B491B
:104A600088719C4948844FF480719E48FCF747FF49
:104A700000209A4948709A498870984948704FF4C4
:104A8000A060994908600820914948700870B420D6
:104A90009049088223E00020904988700120087026
:104AA00048700020C8708E494870FBF799FE0020BE
:104AB0008B490870FBF794FE012089498870010238
:104AC0008848FCF71EFF012084494870C1028748CE
:104AD000FCF717FF0120814908707C498871FCF7B9
:104AE00015FFFCF7FDF87848C078B8B97548C08A5A
:104AF000C0F3403090B1784880797249097D88428E
:104B000002DD012071494872734880796D49497D01
:104B1000884206DA00206D49487202E000206B49A5
:104B200048726A48407970B16648008BC0F34020F3
:104B300048B101206A49C87001216A48FCF7DFFECC
:104B40000120664948716148007970B15D48007E76
:104B5000C0F3C00048B101206149C870012161481B
:104B6000FCF7CDFE01205D4948715848807970B14D
:104B70005448007EC0F3400048B101205849C87035
:104B800001215848FCF7BBFE0120544948714F48A9
:104B9000007820B14B48007E00F00100F0BB4B488C
:104BA000807920B14748007EC0F34000B0BB464842
:104BB000007820B14348007EC0F3800070BB4348BA
:104BC000007920B13F48007EC0F3C00030BB3F48B1
:104BD000407820B13B48007EC0F30010F0B93B485C
:104BE000807820B13748007EC0F34010B0B9374814
:104BF000C07820B13348007EC0F3801070B900BF88
:104C00003148407820B12F48008BC0F3002028B9EC
:104C10002E48407930B12B48008B00E022E0C0F3F1
:104C20004020F8B92948C07920B12648008BC0F34C
:104C30008020B8B92548807A20B12248008BC0F383
:104C4000C02078B92048C07820B11E48008BC0F33E
:104C5000003038B91D48407A78B11A48008BC0F34B
:104C6000403050B101201E49C87001211D48FCF799
:104C700046FE01201949487109E000201849C87012
:104C800001211848FCF73DFE0020144948710F48E7
:104C9000407A20B102211348FCF731FE03E00221E3
:104CA0001048FCF72EFE0948007828B14FF4007137
:104CB0000F48FCF726FE04E04FF400710C48FCF7A7
:104CC0001EFE10BDB8050020FA050020AC0500202E
:104CD00067000020D4050020A00500205800002017
:104CE0006B0000200008014004000020000C01407F
:104CF0000010014000B589B00121112000F0D6F963
:104D000001212D48FCF7AAFD4020ADF82000042029
:104D10008DF8230003208DF8220008A92748FCF70E
:104D200011FD0121022000F0A1F94FF6FF70ADF84E
:104D300018004720ADF814000020ADF81A00ADF8B7
:104D4000160005A91E4801F0A1FF0020ADF80800DB
:104D5000ADF80A000120ADF80C000020ADF80E00FF
:104D6000ADF8100002A9164801F01DFF50211448AB
:104D700001F057FF0421124801F065FF802110481F
:104D800001F058FF1D208DF8040001208DF805006A
:104D900000208DF8060001208DF8070001A8FFF71C
:104DA0000FFA01220221064801F03EFE01210448CB
:104DB00001F016FD09B000BD000C1A000010014002
:104DC0000004004000B589B00121082000F06EF910
:104DD0004FF4C040ADF8200018208DF823000320C8
:104DE0008DF8220008A92348FCF7ACFC0121C80279
:104DF00000F05CF96320ADF818004720ADF814000E
:104E00000020ADF81A001020ADF8160005A91A48C8
:104E100001F03CFF6020ADF804000420ADF808006C
:104E20000020ADF80E00ADF80A0001A9124801F00B
:104E300005FE0821104801F04DFE6020ADF8040089
:104E40000420ADF808000020ADF80E00ADF80A000F
:104E500001A9094801F048FE0821074801F096FE23
:104E60000121054801F0C8FC0121034801F0B8FC0C
:104E700009B000BD000C0140002C0140704700004B
:104E800010B508480088DC280BD006480088C0F11F
:104E9000DC0040B20449087000F09EF80020FCF7E6
:104EA0006BF910BD72000020710000200020052168
:104EB00005E00B4A32F8112010448A1D91B2B1F579
:104EC000167FF6DB6422B0FBF2F0B0F5FA7F03D96F
:104ED0000122044B9A7202E00022024B9A72704740
:104EE00004060020A00500203548007900283AD1AA
:104EF000344800893449897A884208DB314800897E
:104F00003149497A884202DC0020304948732F48F1
:104F1000407B022853DB2B4800892B49497A884281
:104F20000BDD2948807DC0F3401030B101202449B9
:104F3000087127498870274908702248008922494A
:104F4000897A88420BDA2048807DC0F3801030B126
:104F500001201B4908711E49C8701E4908700020B5
:104F60001A4948732BE0174800891749897A884203
:104F700005DB144800891449497A884202DD002083
:104F8000124948731148407B0A2818DB0D480189F3
:104F90000D48807A401D81420EDB0A4801890A488B
:104FA000407A401F814207DC00200549087108490A
:104FB0008870C8700749087000200449487370471A
:104FC000FA050020A0050020B8050020D405002027
:104FD000AC050020700000200020042105E0114AEB
:104FE00032F8112010448A1D91B2B1F5167FF6DB1C
:104FF0006422B0FBF2F0322242435D23B2FBF3F2B3
:105000000932094B1A801A461288084B93F900306E
:105010001A44074B1A811A461289FF2A01DBFF2224
:105020001A817047040600207200002071000020E1
:10503000A005002001460020034A506820F44040AB
:1050400008435060704700000010024029B1064A32
:1050500052690243044B5A6104E0034A5269824395
:10506000014B5A61704700000010024029B1064A06
:10507000D2690243044BDA6104E0034AD2698243F5
:10508000014BDA61704700000010024029B1064A66
:1050900012690243044B1A6104E0034A1269824315
:1050A000014B1A61704700000010024029B1064A06
:1050B00092690243044B9A6104E0034A9269824375
:1050C000014B9A61704700000010024029B1064A66
:1050D000D2680243044BDA6004E0034AD268824398
:1050E000014BDA6070470000001002400F48006872
:1050F00040F001000D490860084640680C4908402E
:105100000A494860084600680A490840074908609B
:105110000846006820F4802008600846406820F4B3
:10512000FE0048604FF41F00886070470010024086
:105130000000FFF8FFFFF6FE30B50021002200243A
:1051400000232D4D6D6805F00C0121B1042905D017
:10515000082923D105E0294D056022E0274D05608F
:105160001FE0254D6D6805F47012234D6D6805F440
:105170008034022505EB92421CB9214D5543056050
:105180000BE01D4D6D6805F400351DB11C4D5543F8
:10519000056002E0194D5543056002E0174D0560BA
:1051A00000BF00BF144D6D6805F0F0010909154DF1
:1051B0006B5C0568DD4045600F4D6D6805F4E0618E
:1051C000090A104D6B5C4568DD4085600A4D6D68CD
:1051D00005F46051C90A0B4D6B5C4568DD40C56044
:1051E000054D6D6805F44041890B074D6B5CC56842
:1051F000B5FBF3F5056130BD0010024000127A00E6
:1052000000093D0096000020A600002010B50146D0
:105210000022002300204A11012A02D1094C2368F0
:1052200006E0022A02D1074C236A01E0054C636ABA
:1052300001F01F02012494401C400CB1012000E049
:10524000002010BD001002400248406800F00C0031
:10525000704700000010024001460020034A5068D9
:1052600020F0F0000843506070470000001002403A
:105270001149096821F480310F4A1160114609680B
:1052800021F480211160B0F5803F03D0B0F5802F6C
:105290000ED106E00849096841F48031064A1160E0
:1052A00007E00549096841F4A021034A116000E0C4
:1052B00000BF00BF70470000001002400146002000
:1052C000034A506820F4E0600843506070470000D3
:1052D0000010024001460020034A506820F460504C
:1052E00040EAC10050607047001002400149086662
:1052F000704700000000424202460020044B5868FC
:1053000020F47C1042EA01031843014B58607047B7
:105310000010024001460020034A506820F00300BC
:1053200008435060704700000010024038B500206C
:1053300000900024002500BF3120FFF767FF0546DD
:105340000098401C00900098B0F5A06F01D0002D8F
:10535000F2D03120FFF75AFF08B1012400E0002409
:10536000204638BD10B504462146054802F025FA0E
:1053700000BF4021024802F053F90028F9D010BDC7
:105380000044004010B5DA480078DA490870D8487F
:105390004078D9494870D64880788870D448C07819
:1053A000C8700846407820B111287DD022287CD1D1
:1053B00088E1D1488078002878D0F02802D0F12800
:1053C00075D1A0E000F0C6FEFBF7F2F8C9480078FE
:1053D000CA49487006208870F020C870D82008712B
:1053E000E2204871C64840788871C5480078C87185
:1053F000C348C0780872C24880784872C048407973
:105400008872BF480079C872BD4880790873BC486B
:10541000007A4873BB48807988730020C873B84805
:10542000407A64380874B648807A6438487400203A
:105430008874C8740875B44800784875B2484078D4
:105440008875B2480078C875B04840780876B0488A
:10545000008800124876AE48007888760020C8762A
:10546000087748778877C87781F8200081F821008D
:1054700081F8220081F8230081F8240081F82500BA
:1054800081F8260081F8270081F8280081F829009A
:1054900081F82A0081F82B0081F82C0099480078C7
:1054A00081F82D00974803E048E01DE11BE042E051
:1054B000007981F82E009348807881F82F00914878
:1054C000007A81F83000002081F8310081F8320044
:1054D00081F8330081F8340081F83500012135204E
:1054E00000F020F928E083480078844948700020C3
:1054F0008870F220C8707F4800780871002104206D
:1055000000F010F918E07B4800787C4948700620CC
:105510008870F120C870002406E07E48015D774A5B
:10552000201D1154601CC4B2122CF6DB0121152081
:1055300000F0F8F800E000BF00BFD6E06E488078C9
:105540000F2872D00BDC0F2870D2DFE800F0B548CE
:10555000494A50565C6268707682898A8F001F289B
:1055600071D010DC13286FD006DC10286DD0112804
:105570006CD012285AD183E01C2868D01D2867D02F
:105580001E28F7D180E0F4280CD006DC202872D049
:10559000212871D0F228EDD10CE0F5280FD0F628A3
:1055A000E8D114E05448C07840B25B49087001204B
:1055B000087182E05048C0784E4908707DE04E483E
:1055C000C07840B2544948700120487175E04A489B
:1055D000C07840B25049C8700120C8716DE06CE0DD
:1055E0006BE04548C07840B24549487065E04248A4
:1055F000C07840B2424908705FE03F48C07840B28E
:105600003F49C87059E03C48C07840B23C49887076
:1056100053E03948C07840B2394948714DE03648C6
:10562000C07840B23649087147E026E044E032488D
:10563000C07840B2324988713FE02F48C07840B20C
:105640002F49087239E025E01BE017E017E019E068
:1056500019E02948C07830498870012088712CE011
:105660002BE02548C0782649487226E02248C078B9
:105670002349887221E013E018E01EE01DE01CE0E1
:105680001BE01AE019E018E00120FBF775FDFBF7BD
:105690006DFC12E01848C07840B2194948730CE01C
:1056A0001548C07840B21649887306E01248C078A1
:1056B00040B21349C87300E000BF00BF0020FBF7F1
:1056C0005BFD12E00C4880781E2802D01F2808D10C
:1056D00003E001201149087004E00120104908701E
:1056E00000E000BF00BF00E000BF00BF10BD000031
:1056F000420100202E00002008000020AC00002005
:10570000B8050020A0050020100000201200002095
:10571000020000204E8200085F0000206F00002081
:10572000700000202DE9F04105460F4600261021AB
:105730002448FCF7E6F8AA20234908703FB3012467
:1057400005E02148005D304486B2601CC4B2AC4222
:10575000F7DDF043401C86B24FEA16281A49681C50
:1057600001F8008006F0FF08A81C01F80080EE2177
:10577000154AE81C1154002405E01349085DFFF7A1
:10578000F1FD601CC4B2281D8442F6DB11E000214B
:105790000D4A681C1154EE21A81C1154002405E088
:1057A0000949085DFFF7DEFD601CC4B2E81C8442B5
:1057B000F6DB3220FBF76AFA10210248FCF79FF86B
:1057C000BDE8F08100100140AC00002010B532218E
:1057D0002020FAF771FFFCF7C5F98920FCF788F95A
:1057E000FCF70CFA40B30120FCF74AF92149088084
:1057F0000120FCF745F91F4948800120FCF740F9DA
:105800001D4908700120FCF73BF91C490880012064
:10581000FCF736F9194948800020FCF731F91649A0
:105820004870FCF7C5F90520FBF730FA0020144951
:10583000C870FBF767F802E001201149C8701048F2
:10584000C07870B90F48807900EB400040000A2111
:1058500090FBF1F00F3084B221460B4801F0FCF9C7
:1058600007E00748C078012803D10F21064801F05E
:10587000F3F910BD8A000020920000208E00002065
:10588000FA050020A0050020002C014010B5FD48BD
:10589000007800287DD14FF6FF70FB4908804880D2
:1058A0008880C880088148818881C88108824882B0
:1058B0008882C8820883F54890F9040000EB8000D4
:1058C0004FF6FF7101EA4000EF494883EF4890F935
:1058D000050000EB80004FF6FF7101EA4000EA4945
:1058E00088834FF6FF70C883088448848884C884FE
:1058F000088548858885C885088648868886C8863C
:10590000088748878887C887A1F84000A1F8420027
:10591000A1F84400A1F84600A1F84800A1F84A0007
:10592000DA4890F9060000EB80004FF6FF7101EABB
:105930004000D549A1F84C004FF6FF70A1F84E0089
:10594000D24890F9080000EB80004FF6FF7101EAA1
:105950004000CD49A1F85000CC4890F9020000EB7E
:1059600080004FF6FF7101EA4000C749A1F85200DC
:10597000C64890F9030000EB80004FF6FF7101EA82
:105980004000C149A1F854004FF6FF70A1F856003D
:1059900000E095E0A1F85800A1F85A00A1F85C00D9
:1059A000A1F85E00A1F86000A1F86200A1F864000F
:1059B000A1F86600A1F86800A1F86A00A1F86C00DF
:1059C000A1F86E00A1F87000A1F87200A1F87400AF
:1059D000A1F87600A1F87800A1F87A00A1F87C007F
:1059E000A1F87E00AA48007808B9012000E0002054
:1059F000A549A1F880004FF6FF70A1F88200A1F838
:105A00008400A1F88600A1F88800A1F88A00A1F816
:105A10008C00A1F88E00A1F89000A1F89200A1F8E6
:105A20009400A1F89600A1F89800A1F89A00A1F8B6
:105A30009C00A1F89E00A1F8A000A1F8A200A1F886
:105A4000A400A1F8A600A1F8A800A1F8AA00A1F856
:105A5000AC00A1F8AE00A1F8B000A1F8B200A1F826
:105A6000B400A1F8B600A1F8B800A1F8BA00A1F8F6
:105A7000BC00A1F8BE00A1F8C000A1F8C200A1F8C6
:105A8000C400A1F8C600A1F8C800A1F8CA00814866
:105A900090F9000000EB80004FF6FF7101EA400032
:105AA0007949A1F8CC004FF6FF70A1F8CE00A1F81B
:105AB000D0007848807900EB80004000A1F8D20047
:105AC0007048007801287DD16F48B0F8520000B2CC
:105AD0006E4991F9021001EB8101B0EB410F0CD03E
