:100000000C943A010C944E010C944E010C944E0148
:100010000C944E010C944E010C944E010C944E0124
:100020000C944E010C944E010C944E010C944E0114
:100030000C944E010C944E010C944E010C944E0104
:100040000C944E010C944E010C944E010C944E01F4
:100050000C944E010C944E010C944E010C944902E8
:100060000C944E010C944E010C944E010C944E01D4
:100070000C944E010C944E010C944E010C944E01C4
:100080000C944E010C944E010C944E010C944E01B4
:100090000C944E010C944E010C944E010C944E01A4
:1000A0000C944E010C944E010C944E010C944E0194
:1000B0000C944E010C944E010C944E010C944E0184
:1000C0000C944E010C944E010C944E010C944E0174
:1000D0000C944E010C944E010C944E010C944E0164
:1000E0000C944E019E01A101900194019801D80148
:1000F000A501A901AF01B301B701BD01C101C5014E
:10010000D801CB01CF01D3010C94CF010C94940101
:100110000C94D3010C94B3010C949E010C94AF0188
:100120000C94A1010C94B7010C9498010C94A901B2
:100130000C94C1010C94A5010C9490010C94CB017A
:100140000C94D8010C94BD010C94C50100000A0B5D
:1001500002090C0D0E080703040100000000000056
:10016000000000000000000000000000000000008F
:10017000000000000000000012111000000000004C
:10018000000000000000000000000000000000006F
:10019000000000000000000000000000000000223D
:1001A00000250028002B002E003100340002010041
:1001B00000050108010B0100002100240027002A8E
:1001C000002D003000330001010000040107010A86
:1001D0000105050505070508080808020202020ACC
:1001E0000A080804040404010101010101010103DA
:1001F00003030303030303040707070C0C0C0C0C95
:100200000C0C0C0202020206060606060606060B87
:100210000B0B0B0B0B0B0B0A050A0A050A0A04044D
:10022000040A0102102020080810204010204080FD
:1002300002010201080402010102040810204080AA
:100240008040201008040201800402018040201038
:100250000804020108040201010204081020408081
:1002600001020408102040800840048080402010D3
:100270002040100011241FBECFEFD1E2DEBFCDBF62
:1002800000E00CBF22E0A0E0B2E001C01D92A93066
:10029000B207E1F70E9493020C9437030C9400001C
:1002A00090E0FC01EE5DFD4F2491FC01EF52FE4F0A
:1002B0008491882399F090E0880F991FFC01E954FC
:1002C000FE4FA591B491FC01E356FE4F85919491A8
:1002D0008FB7F894EC91E22BEC938FBF0895362FF3
:1002E00090E0FC01E45BFE4F4491FC01EE5DFD4FAC
:1002F0002491FC01EF52FE4F9491992309F46BC0B5
:10030000442309F455C050E0FA013197E231F10578
:1003100008F04EC08827EE58FF4F8F4F0C942F03E4
:10032000809180008F7707C0809180008F7D03C00F
:1003300080918000877F809380003AC084B58F775A
:1003400002C084B58F7D84BD33C08091B0008F77AB
:1003500003C08091B0008F7D8093B00029C0809150
:1003600090008F7707C0809190008F7D03C08091AF
:100370009000877F809390001BC08091A0008F77B2
:1003800007C08091A0008F7D03C08091A000877F6F
:100390008093A0000DC0809120018F7707C08091CD
:1003A00020018F7D03C080912001877F80932001F1
:1003B000E92FF0E0EE0FFF1FE356FE4FA591B49139
:1003C0008FB7F894EC91311103C020952E2301C012
:1003D0002E2B2C938FBF08953FB7F8948091050280
:1003E00090910602A0910702B091080226B5A89B41
:1003F00005C02F3F19F00196A11DB11D3FBFBA2FB7
:10040000A92F982F8827820F911DA11DB11DBC0116
:10041000CD0142E0660F771F881F991F4A95D1F7DB
:1004200008958F929F92AF92BF92CF92DF92EF92F8
:10043000FF920E94EC014B015C0188EEC82E83E024
:10044000D82EE12CF12C0E94EC01DC01CB018819A3
:100450009909AA09BB09883E9340A105B10558F046
:1004600021E0C21AD108E108F10888EE880E83E085
:10047000981EA11CB11CC114D104E104F10419F7A8
:10048000FF90EF90DF90CF90BF90AF909F908F90B4
:1004900008951F920F920FB60F9211242F933F933E
:1004A0008F939F93AF93BF9380910102909102022B
:1004B000A0910302B09104023091000223E0230FC7
:1004C0002D3720F40196A11DB11D05C026E8230F8C
:1004D0000296A11DB11D209300028093010290930A
:1004E0000202A0930302B09304028091050290914E
:1004F0000602A0910702B09108020196A11DB11D4C
:100500008093050290930602A0930702B09308021D
:10051000BF91AF919F918F913F912F910F900FBEFF
:100520000F901F901895789484B5826084BD84B52F
:10053000816084BD85B5826085BD85B5816085BDDE
:1005400080916E00816080936E0010928100809196
:10055000810082608093810080918100816080931E
:100560008100809180008160809380008091B10043
:1005700084608093B1008091B00081608093B0006E
:1005800080919100826080939100809191008160C0
:100590008093910080919000816080939000809181
:1005A000A10082608093A1008091A100816080936E
:1005B000A1008091A00081608093A0008091210122
:1005C00082608093210180912101816080932101CB
:1005D0008091200181608093200180917A00846065
:1005E00080937A0080917A00826080937A00809173
:1005F0007A00816080937A0080917A00806880938D
:100600007A001092C1008DE00E94500187E00E94A4
:1006100050018AE20E945001C0E0D0E061E08DE02C
:100620000E946F0161E087E00E946F010E94110249
:1006300060E087E00E946F010E94110260E087E0A5
:100640000E946F0160E08DE00E946F0160E08AE22D
:100650000E946F01209711F30E940000DFCFEE0F80
:10066000FF1F881F8BBF0790F691E02D1994F89417
:02067000FFCFBA
:00000001FF
