:10000000BAC30000E9C30000E7C30000E5C3000075
:10001000E3C30000E1C30000DFC30000DDC3000054
:10002000DBC300000C940A430C940A430C940A436B
:10003000D3C30000D1C30000CFC30000CDC3000074
:10004000CBC30000C9C30000C7C30000C5C3000084
:10005000C3C30000C1C30000BFC300000C94004232
:10006000BBC300000C94D4420C94AA42B5C3000058
:10007000B3C30000B1C30000AFC30000ADC30000B4
:10008000ABC30000A9C30000A7C30000A5C30000C4
:10009000A3C30000A1C300009FC300009DC30000D4
:1000A0009BC3000099C3000097C3000095C30000E4
:1000B00093C3000091C300008FC300008DC30000F4
:1000C0008BC3000089C3000087C3000085C3000004
:1000D00083C3000081C300000C9474420C944A4214
:1000E0007BC300002F73746F70002F7374657020D2
:1000F000007072696E7420737461727400005EBC6B
:10010000E2613FDD83C29C7E20A3FD1F41009D2351
:10011000BE46DB65F88C11AF32CA57E97400C0C126
:1001200001C30302C2C60607C705C5C404CC0C0D33
:10013000CD0FCFCE0E0ACACB0BC90908C8D81819E3
:10014000D91BDBDA1A1EDEDF1FDD1D1CDC14D4D543
:1001500015D71716D6D21213D311D1D010F03031D3
:10016000F133F3F23236F6F737F53534F43CFCFD73
:100170003DFF3F3EFEFA3A3BFB39F9F83828E8E903
:1001800029EB2B2AEAEE2E2FEF2DEDEC2CE4242583
:10019000E527E7E62622E2E323E12120E0A06061F3
:1001A000A163A3A26266A6A767A56564A46CACADB3
:1001B0006DAF6F6EAEAA6A6BAB69A9A86878B8B963
:1001C00079BB7B7ABABE7E7FBF7DBDBC7CB47475C3
:1001D000B577B7B67672B2B373B17170B050909113
:1001E000519353529296565797559594549C5C5DF3
:1001F0009D5F9F9E5E5A9A9B5B9959589888484983
:10020000894B8B8A4A4E8E8F4F8D4D4C8C44848502
:100210004587474686824243834181804000C181B1
:100220004001C0804101C0804100C1814001C080C7
:100230004100C1814000C1814001C0804101C080B6
:100240004100C1814000C1814001C0804100C181A5
:100250004001C0804101C0804100C1814001C08097
:100260004100C1814000C1814001C0804100C18185
:100270004001C0804101C0804100C1814000C18176
:100280004001C0804101C0804100C1814001C08067
:100290004100C1814000C1814001C0804101C08056
:1002A0004100C1814000C1814001C0804100C18145
:1002B0004001C0804101C0804100C1814000C18136
:1002C0004001C0804101C0804100C1814001C08027
:1002D0004100C1814000C1814001C0804100C18115
:1002E0004001C0804101C0804100C1814001C08007
:1002F0004100C1814000C1814001C0804101C080F6
:100300004100C1814000C1814001C0804100C181E4
:100310004001C0804101C0804100C18140000020F7
:10032000002300260029002C002F003200000100CD
:10033000000301060109012320636F6E6E6563747B
:10034000656420746F200023002320726561647946
:1003500020666F72207265717565737473000D0A83
:10036000000D0A0000002100240027002A002D00B3
:100370003000330001010000040107010A01000000
:100380002200250028002B002E003100340002013D
:100390000000050108010B01050505050705080812
:1003A0000808020202020A0A0808040404040101FF
:1003B0000101010101010303030303030303040714
:1003C00007070C0C0C0C0C0C0C0C020202020606AB
:1003D0000606060606060B0B0B0B0B0B0B0B0A0592
:1003E0000A0A050A0A0404040A0102102020080867
:1003F0001020401020408002010201080402010187
:10040000020408102040808040201008040201806F
:1004100004020180402010080402010804020101C6
:1004200002040810204080010204081020408008C7
:100430004004808040201020401000000A0B020978
:100440000C0D0E080703040100000000000000006E
:10045000000000000000000000000000000000009C
:100460000000000000001211100000000000000059
:10047000000000000000000000000000000000007C
:10048000000000000000000000000000485454502C
:100490002056657273696F6E206E6F74207375706D
:1004A000706F727465640047617465776179205478
:1004B000696D652D6F75740053657276696365208B
:1004C000556E617661696C61626C650042616420A1
:1004D00047617465776179004E6F7420496D706C67
:1004E000656D656E74656400496E7465726E616CED
:1004F00020536572766572204572726F720045787E
:10050000706563746174696F6E204661696C6564BF
:10051000005265717565737465642072616E6765FC
:10052000206E6F74207361746973666961626C65B3
:1005300000556E737570706F72746564204D6564DC
:100540006961205479706500526571756573742D09
:1005500055524920546F6F204C6172676500526597
:10056000717565737420456E7469747920546F6F6A
:10057000204C6172676500507265636F6E646974C8
:10058000696F6E204661696C6564004C656E6774C6
:100590006820526571756972656400476F6E650009
:1005A000436F6E666C696374005265717565737430
:1005B0002054696D652D6F75740050726F787920C5
:1005C00041757468656E7469636174696F6E2052F9
:1005D00065717569726564004E6F7420416363656F
:1005E000707461626C65004D6574686F64204E6F55
:1005F0007420416C6C6F776564004E6F7420466F99
:10060000756E6400466F7262696464656E00506165
:10061000796D656E742052657175697265640055F7
:100620006E617574686F72697A65640042616420F6
:10063000526571756573740054656D706F72617287
:100640007920526564697265637400557365205042
:10065000726F7879004E6F74204D6F6469666965BA
:100660006400536565204F7468657200466F756E4F
:1006700064004D6F766564205065726D616E656EC5
:10068000746C79004D756C7469706C652043686F8B
:1006900069636573005061727469616C20436F6EA9
:1006A00074656E7400526573657420436F6E746573
:1006B0006E74004E6F20436F6E74656E74004E6FE3
:1006C0006E2D417574686F72697461746976652006
:1006D000496E666F726D6174696F6E004163636528
:1006E000707465640043726561746564004F4B000B
:1006F000537769746368696E672050726F746F63B3
:100700006F6C7300436F6E74696E7565000D0A003F
:10071000485454502F312E3120000D0A00636C6F65
:10072000736500557365722D436F6E6E65637469F2
:100730006F6E00436F6E74656E742D4C656E6774DA
:100740006800436F6E74656E742D54797065004156
:10075000726475696E6F2D65746865726E6574007C
:10076000557365722D4167656E74000D0A000D0AA0
:1007700000002043144311241FBECFEFD1E2DEBF9F
:10078000CDBF00E00CBF1CE0A0E0B2E0E4EBFAEA71
:1007900000E00BBF02C007900D92AC37B107D9F74C
:1007A00021E1ACE7BCE001C01D92AE30B207E1F739
:1007B00013E0CAEBD3E000E006C021970109802FC7
:1007C000FE010E944350C93BD10780E00807A9F70A
:1007D0000E944D450C94495513CC8CBD9DBD089588
:1007E0002091AF103091B010821793074CF04091D8
:1007F000AD105091AE10420F531F841795074CF067
:1008000084EE9BE2909303118093021190E080E0CC
:100810000895821B930B2091BD103091BE10820F62
:10082000931FFC01608381E090E008952091B71050
:100830003091B810821793074CF04091B510509149
:10084000B610420F531F841795074CF084EE9BE2BD
:10085000909303118093021190E080E00895821B31
:10086000930B880F991F2091C1103091C210820FF5
:10087000931FFC017183608381E090E008952091D3
:100880000211309103112115310509F47CC0F901E1
:10089000E35EFB42E131F10508F041C08827EC5AE4
:1008A000FB4F8F4F0C944350C604650468046B04DF
:1008B0006E047104740477048F047A047D04800448
:1008C000830486048F0489048C048DEF93E00895DB
:1008D00089E395E008958AE195E008958EE095E03A
:1008E00008958FEE94E008958AED94E0089586ECE3
:1008F00094E008958DEA94E008958DE894E00895D9
:1009000081E894E0089584E794E008958DE594E00B
:1009100008958FE494E008958DE294E008952D36D3
:10092000310529F15CF425303105D9F02631310546
:10093000D9F0232B51F48CE495E008952437310548
:10094000E1F034F42F363105A9F084E595E00895FF
:1009500026383105A9F0223F3D42B9F78CE595E0F4
:10096000089583E294E0089583EC95E008958CEA7D
:1009700095E0089589E995E0089584E895E0089563
:1009800086E795E0089590E080E0089582E194E0A4
:100990000895FC01818D928D0895089581508231D2
:1009A00008F05AC0E82FF0E08827E652FB4F8F4F3F
:1009B0000C944350FA04FE04EC04F204F6042C05F3
:1009C000010507050B051105150519051F0523056B
:1009D0002C0527052D053105809180008F778093A8
:1009E00080000895809180008F7DF9CF80918000F4
:1009F000877FF5CF84B58F7784BD089584B58F7DCB
:100A0000FBCF8091B0008F778093B00008958091E4
:100A1000B0008F7DF9CF809190008F778093900008
:100A20000895809190008F7DF9CF80919000877F0D
:100A3000F5CF8091A0008F778093A00008958091DA
:100A4000A0008F7DF9CF8091A000877FF5CF8091A6
:100A500020018F77809320010895809120018F7D60
:100A6000F9CF80912001877FF5CF1F93CF93DF933C
:100A7000282F30E0F901E65CFB4F8491F901E75142
:100A8000FC4FD491F901E856FC4FC491CC23A1F05E
:100A9000162F811183DFEC2FF0E0EE0FFF1FE258DD
:100AA000FC4FA591B4918FB7F894EC91111108C047
:100AB000D095DE23DC938FBFDF91CF911F910895F6
:100AC000DE2BF8CF90E09C01220F331FF901E55E89
:100AD000FC4F418141112DC04091BB105091BC1081
:100AE000841795074CF0E091B910F091BA10E40F1B
:100AF000F51F8E179F0784F084EE9BE290930311FD
:100B000080930211F901EE5BF24F60837183255EE1
:100B10003C4FF9018081A9CF841B950B880F991F49
:100B2000E091C310F091C410E80FF91F6083718346
:100B3000E9CF0895CF93DF9390E0FC01E751FC4F9C
:100B4000249188569C4FFC0184918823C9F090E041
:100B5000880F991FFC01EC59FC4FA591B491FC0141
:100B6000E258FC4FC591D49161110DC09FB7F89424
:100B70008C91209582238C938881282328839FBF82
:100B8000DF91CF910895623051F49FB7F8943C9172
:100B9000822F809583238C93E8812E2BEFCF8FB704
:100BA000F894EC912E2B2C938FBFEACF3FB7F8949B
:100BB0008091DD0C9091DE0CA091DF0CB091E00CE7
:100BC00026B5A89B05C02F3F19F00196A11DB11DA8
:100BD0003FBFBA2FA92F982F8827BC01CD01620FE4
:100BE000711D811D911D42E0660F771F881F991F9F
:100BF0004A95D1F708958F929F92AF92BF92CF926C
:100C0000DF92EF92FF926B017C01D0DF4B015C0120
:100C1000C114D104E104F104B1F0C8DF6819790905
:100C20008A099B09683E73408105910588F321E09C
:100C3000C21AD108E108F10888EE880E83E0981EF8
:100C4000A11CB11CE5CFFF90EF90DF90CF90BF903B
:100C5000AF909F908F9008952FB7F8946091D90C22
:100C60007091DA0C8091DB0C9091DC0C2FBF089511
:100C700021E0FC018485883008F020E0822F08956F
:100C8000EF92FF920F931F93CF93DF938C017B0121
:100C9000D0E0C0E0F701EC0FFD1F6491662361F026
:100CA000D801ED91FC910190F081E02DC8011995DA
:100CB000892B11F02196EECFCE01DF91CF911F91BC
:100CC0000F91FF90EF900895AF92BF92CF92DF9275
:100CD000EF92FF920F931F93CF93DF936C017B01F1
:100CE0008B01040F151FEB015E01AE18BF08C01782
:100CF000D10759F06991D601ED91FC910190F081F5
:100D0000E02DC6011995892B79F7C501DF91CF91A7
:100D10001F910F91FF90EF90DF90CF90BF90AF9019
:100D20000895FC01538D448D252F30E0842F90E0F1
:100D3000821B930B541710F0CF96089501970895D6
:100D4000FC01918D828D981761F0A28DAE0FBF2F9F
:100D5000B11D5D968C91928D9F5F9F73928F90E0F5
:100D600008958FEF9FEF0895FC01918D828D981764
:100D700031F0828DE80FF11D858D90E008958FEFA1
:100D80009FEF0895FC01918D228D892F90E0805C6A
:100D90009F4F821B91098F739927089582E29EE0ED
:100DA000F1DF21E0892B09F420E0822F089583E709
:100DB0009DE0E8DF21E0892B09F420E0822F0895EF
:100DC000CF92DF92EF92FF921F93CF93DF93EC01CC
:100DD0006A017B01122FE889F98982E08083C114BE
:100DE00081EED806E104F104A1F060E079E08DE342
:100DF00090E0A70196010E94574F21503109410907
:100E000051095695479537952795211580E1380763
:100E100098F0E889F989108260E874E88EE190E042
:100E2000A70196010E94574F2150310941095109EC
:100E30005695479537952795EC85FD853083EE854A
:100E4000FF852083188EEC89FD891083EA89FB8950
:100E5000808180618083EA89FB89808188608083CA
:100E6000EA89FB89808180688083EA89FB898081A7
:100E70008F7D8083DF91CF911F91FF90EF90DF9066
:100E8000CF900895FC01A48DA80FB92FB11DA35ACE
:100E9000BF4F2C91848D90E001968F739927848F9A
:100EA000A689B7892C93A089B1898C9183708064BD
:100EB0008C93938D848D981306C00288F389E02D5E
:100EC00080818F7D80830895EF92FF920F931F930F
:100ED000CF93DF93EC0181E0888F9B8D8C8D9813ED
:100EE0001AC0E889F989808185FF15C09FB7F894F9
:100EF000EE89FF896083E889F98980818370806445
:100F000080839FBF81E090E0DF91CF911F910F918F
:100F1000FF90EF900895F62E0B8D10E00F5F1F4F9E
:100F20000F731127E02E8C8D8E110BC00FB607FCAE
:100F3000FACFE889F989808185FFF5CFCE01A2DF5C
:100F4000F2CFEB8DEC0FFD2FF11DE35AFF4FF08236
:100F50009FB7F8940B8FEA89FB8980818062D0CF9C
:100F6000CF93DF93EC01888D8823B1F0AA89BB89E8
:100F7000E889F9898C9185FD03C0808186FD0CC0CC
:100F80000FB607FCF7CF8C9185FFF2CF808185FFEC
:100F9000EDCFCE0177DFEACFDF91CF91089580E0EA
:100FA00090E0892B21F003DF81110E94000080E096
:100FB00090E0892B49F080E090E0892B29F00E9495
:100FC000000081110E94000080E090E0892B49F030
:100FD00080E090E0892B29F00E94000081110E949E
:100FE000000080E090E0892B21F0D8DE81110C9484
:100FF00000000895CF92DF92EF92FF92CF93DF939C
:10100000FC014483558366837783C281D381209713
:1010100001F1CB01BA0128EE33E040E050E00E943C
:10102000574F69017A019B01AC01A8EEB3E00E9421
:10103000954FC114D104E104F10491F461157105D7
:101040008105910569F486E190E090930311809306
:101050000211DF91CF91FF90EF90DF90CF90089534
:10106000C886D986EA86FB866C877D878E879F87B0
:10107000F0CFFC0125893689121613064CF48585BC
:10108000968597FD05C08230910534F00497CCF029
:101090006FEF7FEFCB010895A389B4898789908D85
:1010A000A80FB91F6C9170E090E080E021503109E9
:1010B000368B258B2789308D2F5F3F4F308F278BC5
:1010C00008958789908D880F991FA389B489A80FE7
:1010D000B91F6D917C91E8CFFC018285882359F07E
:1010E000818D928D1816190634F4858596850097A2
:1010F00029F00297B9F090E080E00895A389B489BF
:10110000838D948D9C012F5F3F4F348F238FA80FC9
:10111000B91F6C93818D928D0197928F818F81E0A1
:1011200090E00895A389B489838D948D9C012F5FED
:101130003F4F348F238F880F991FA80FB91F6C93CF
:1011400011967C93E7CF009741F0DC015896ED9122
:10115000FC9104A0F5A1E02D19940895009741F0A9
:10116000DC015896ED91FC91068CF78DE02D1994D9
:101170000895009741F0DC015896ED91FC91048CA4
:10118000F58DE02D199486E190E090930311809302
:1011900002118FEF9FEF0895009741F0DC01589600
:1011A000ED91FC910084F185E02D199486E190E0A9
:1011B00090930311809302118FEF9FEF0895CF92C8
:1011C000DF92EF92FF920F931F93CF93DF937C01F7
:1011D0006C01C60ED71EC801B0E0A0E0F0E0E0E070
:1011E000640F751FA6014E195F094617570784F053
:1011F000EF2B29F0280F391FF901A0830196DF9109
:10120000CF911F910F91FF90EF90DF90CF900895B5
:10121000E60149916E01C42FD0E00E2E02C0CC0F22
:10122000DD1F0A94E2F7AC2BBD2BE730F10551F43A
:10123000F901E80FF91FA0830196B0E0A0E0F0E00B
:10124000E0E0D0CF3196CECF009741F0DC01589648
:10125000ED91FC910488F589E02D199486E190E0E8
:1012600090930311809302118FEF9FEF08950097E1
:1012700041F0DC015896ED91FC9100A0F1A1E02D28
:10128000199486E190E090930311809302118FEFFF
:101290009FEF0895CF93DF93EC01288539854A8528
:1012A0005B85A8EEB3E00E94954FA5DC8C859D85FB
:1012B0008230910538F0880F991F880F991F059784
:1012C0000197F1F7DF91CF9108955F926F927F922E
:1012D0008F929F92AF92BF92CF92DF92EF92FF9246
:1012E0000F931F93CF93DF938C017B014A01390148
:1012F000DC015896ED91FC91C280D3805A01AC0C70
:10130000BD1CD5015C90028CF38DE02D3097E9F087
:101310001995EC010196C9F4F801868182FF04C099
:10132000C801B8DFC801A3DFCE01DF91CF911F91C3
:101330000F91FF90EF90DF90CF90BF90AF909F9074
:101340008F907F906F905F900895F801A08DB18D80
:1013500012962D913C911397E701C20FD31FE8819C
:10136000E150E73108F06FC0F0E08827E554F64F10
:101370008F4F0C944350010A010A1A0A1A0A230AD1
:10138000230A260A230A230A230A230A230A230AF2
:10139000230A230A230A290A230A230A230A230ADF
:1013A000D2091A0A47E050E0420F531F14962D91BC
:1013B0003C911597420F531F57FE51C014968D91C3
:1013C0009C918C0D9D1D02968615970509F044C0D1
:1013D000EC0CFD1CD7012C91F50180818058990BF4
:1013E00028171906C9F5818190E08C309105A4F584
:1013F0008E51944D9093031180930211CFEFDFEF44
:1014000093CF9B818C81BC0197FF02C0695F7F4FA6
:10141000F3E075956795FA95E1F76E5F7F4F8770FA
:10142000992741E050E0892B11F450E040E0460F4D
:10143000571FBACF4B816C81542F462F4F5F5F4FA0
:10144000440F551FB1CF45E050E0AECF43E050E030
:10145000ABCF4FEF5FEFB0CF80EF9BE2CBCF641607
:10146000750621F04F3F5F4F09F091C0D701AC0DD9
:10147000BD1D8C91581661F0D80116968C9182FF93
:1014800004C0C80107DFC801F2DE8FEE9BE2B2CFD5
:10149000EFEFE50DE73108F075C0F0E08827EC5A72
:1014A000F54F8F4F0C9443506B0A6B0A910A910AC7
:1014B000C20AC20AC20AC20AC20AC20AC20AC20ACC
:1014C000C20AC20AA00AA00ABE0AC20AC20AC20A04
:1014D000C20AC20A910A13962C911397822F90E0A8
:1014E000982F882714962C91280F392F311DC90168
:1014F00037FD079663E0959587956A95E1F7277024
:10150000332741E050E0232B11F450E040E0840FFA
:10151000951FF501C181D0E08C179D0709F404CF18
:10152000ABCF13968C91139790E0982F8827149641
:101530002C91820F911DD5011196CC91C695EBCFC0
:1015400096012D5F3F4FB4E0CB0ED11CF701E20FA7
:10155000F31F808190E0982F8827F701EC0DFD1D87
:101560004081840F911D280D391DF901C0818C0C1B
:101570009D1CD4012C91DC2FC22FCECFF501C1814F
:10158000D0E0D2CEC1E0D0E081E090E0C5CFF8015C
:10159000868175CF2F923F924F925F926F927F928A
:1015A0008F929F92AF92BF92CF92DF92EF92FF9273
:1015B0000F931F93CF93DF9300D000D000D01F92E2
:1015C000CDB7DEB77C013B012A01DC015896ED91D5
:1015D000FC915997028113810F5F1F4F312C212CF1
:1015E000452BB1F018968D919D910D90BC91A02D39
:1015F00089839A83AB83BC83F70184859585A6850F
:10160000B7858D839E83AF83B887CE0101961C0179
:10161000D12CC12C912C812CD7015896ED91FC91A5
:101620000115110549F4008CF18DE02DA401B301E1
:10163000C70119955C0127C002A0F3A1E02D980114
:10164000A101BE01675F7F4FC70119955C01D701FA
:101650009FEFA916B906D1F516968C9181FD04C0AD
:10166000AA24AA94BA2C0FC0009102111091031160
:101670000437110511F5C7010DDEC701F8DD109320
:10168000031100930211C5012A960FB6F894DEBF2C
:101690000FBECDBFDF91CF911F910F91FF90EF90C3
:1016A000DF90CF90BF90AF909F908F907F906F9082
:1016B0005F904F903F902F900895023FBDE21B072F
:1016C000F1F6C7014BDDC70154DDD9CF5896ED9136
:1016D000FC910688F789E02DA801B301680D791DFA
:1016E000C701199561157105F9F482EF9DE2909398
:1016F000031180930211F701868181FFB1CF009120
:10170000021110910311023FFDE21F0721F00F3675
:10171000110509F0A5CFC70121DDC7012ADD10930E
:101720000311009302119CCF6F3F760721F3860EC1
:10173000971E061B170B09F099C0D7015896ED911B
:10174000FC91C114D10441F0CA94CD2809F457C0CA
:1017500082E0C82ED12C60CFA281B381A60DB71D27
:101760008C9141145104B9F490E087309105D4F084
:101770009C012F5031092230310508F47CC086319C
:10178000910509F47EC04797D1F5CC24C394D12CA0
:1017900009E010E015C0813158F48F3018F48550FD
:1017A000823048F4CC24C394D12C04E010E008C06B
:1017B000863109F466C0CC24C394D12C01E010E03A
:1017C000F701408951896289738984899589A6893D
:1017D000B789411551056105710529F40097A105E7
:1017E000B10509F419CF49835A836B837C838D83B8
:1017F0009E83AF83B887CE0101961C010DCFA281D5
:10180000B381A60DB71D8C914114510401F58F30A1
:1018100020F08131A8F08731B9F084819581080FDB
:10182000191F9401200F311F86819781821793071A
:10183000D4F48FEE9BE2909303118093021110CFAA
:1018400015960C9110E0E9CF19960C91FBCF90E022
:10185000853091052CF08131910511F04797E9F61B
:1018600011960C91EFCF52E0C52ED12C1016110617
:101870000CF4A6CFD1CECC24C394D12C05E010E03B
:101880009FCFCC24C394D12C06E010E099CFAF9227
:10189000BF92CF92DF92EF92FF920F931F93CF935D
:1018A000DF93EC017B01E88DF98D0088F189E02D53
:1018B000BA01C70119958C01E88DF98D0288F38969
:1018C000E02DA801B701CE0119956B018FEFC81665
:1018D000D806B1F48E8181FF13C0A0900211B090A0
:1018E000031182EFA8168DE2B80661F5CE0136DC51
:1018F000CE01D0DCCE013DDCB0920311A0920211EA
:101900008E8181FF04C08FEFC816D806A9F21C147F
:101910001D0464F40C151D0549F08FEE9BE29093B5
:10192000031180930211CC24CA94DC2CC601DF91F0
:10193000CF911F910F91FF90EF90DF90CF90BF90CC
:10194000AF900895CE01A6DCCE0191DCD5CFAF9249
:10195000BF92CF92DF92EF92FF920F931F93CF939C
:10196000DF93CDB7DEB7C850D2400FB6F894DEBFD4
:101970000FBECDBF0097D1F486E190E090930311A4
:10198000809302118FEF9FEFC85FDD4F0FB6F89481
:10199000DEBF0FBECDBFDF91CF911F910F91FF90A2
:1019A000EF90DF90CF90BF90AF9008954C375105E6
:1019B0001CF082EF9BE2E2CF59017A01AB016C018E
:1019C000DC015896ED91FC910284F385E02D8E01A7
:1019D0000B5F1E4F970160E170E01995AC014F5FFE
:1019E0005F4FF801E80FF91FC701880F991F808327
:1019F000D50190E080E08E159F0534F1F7FE02C01E
:101A0000F12CE12CEE0CFF1C4E0D5F1DBE016B5F37
:101A10007E4FC6013CDF181619060CF0B5CF41E029
:101A200050E0BE016F5F7F4FC601B4DD8F3F980766
:101A300009F4AACF9C01AE014F5F5F4FBE016B5FFF
:101A40007E4FC60142DCA0CF2C9111963C9111979C
:101A500012963183228301963296CDCF2F923F92F8
:101A60004F925F926F927F928F929F92AF92BF92AE
:101A7000CF92DF92EF92FF920F931F93CF93DF935A
:101A8000CDB7DEB7C850D2400FB6F894DEBF0FBE58
:101A9000CDBF009711F586E190E0909303118093FC
:101AA00002118FEF9FEFC85FDD4F0FB6F894DEBFD6
:101AB0000FBECDBFDF91CF911F910F91FF90EF909F
:101AC000DF90CF90BF90AF909F908F907F906F905E
:101AD0005F904F903F902F900895413BA7E05A07A9
:101AE0001CF082EF9BE2D9CF39017A01AB016C0186
:101AF000DC015896ED91FC910284F385E02D8E0176
:101B00000B5F1E4F97016FE070E01995A7014770BA
:101B1000552721E030E0452B11F430E020E0B701FB
:101B2000F7FE02C0695F7F4FE3E075956795EA9520
:101B3000E1F7260F371F1C01BFEF2B1A3B0AE5E028
:101B4000F1E0EC0FFD1FE80FF91F208370E060E06B
:101B500090E080E02F01AF01441955094217530767
:101B60002CF137FF02C030E020E0A901420D531DE7
:101B7000BE016B5F7E4FC6018ADE181619060CF097
:101B800092CF41E050E0BE016F5F7F4FC60102DDA2
:101B90008F3F980709F487CF9C01AE014F5F5F4FDD
:101BA000BE016B5F7E4FC60190DB7DCF1182D301FA
:101BB000A60FB71F4C0148E0840E911C41E050E095
:101BC0005B01A81AB90AB501680F791F8815990534
:101BD00039F001968C01015011090E151F0514F002
:101BE0003196B9CF7D916181772329F0642B618390
:101BF000440F551FE8CF742F70956723F8CFCF930C
:101C0000DF93FC012285222361F0EC01638574855A
:101C100082819381C1DA8D859E85009729F0029794
:101C2000F1F090E080E018C02B893C8949895A89FD
:101C30006F8578898A819B8111DF1A861E8A1D8AA9
:101C4000188E1F8A1A8E198E1C8E1B8E9095991FC6
:101C50009927991F892F90E0DF91CF9108952B89C3
:101C60003C8949895A896F8578898A819B816FDE91
:101C7000E4CFEF92FF920F931F93CF93DF93CDB7F3
:101C8000DEB7C051D1400FB6F894DEBF0FBECDBF56
:101C90000097B1F486E190E09093031180930211D4
:101CA0008FEF9FEFC05FDE4F0FB6F894DEBF0FBE21
:101CB000CDBFDF91CF911F910F91FF90EF900895CD
:101CC0007C01DC015896ED91FC910284F385E02DB6
:101CD0008E010B5F1E4F1995AC01B801C701D7DD0E
:101CE00018161906FCF641E050E0BE016F5F7F4F09
:101CF000C70150DC8F3F9807A9F29C01AE014F5FEE
:101D00005F4FB801C701E1DACDCFCF92DF92EF92FA
:101D1000FF920F931F93CF93DF93CDB7DEB7C051E0
:101D2000D1400FB6F894DEBF0FBECDBF2E373105C0
:101D3000C4F082EF9BE290930311809302118FEF26
:101D40009FEFC05FDE4F0FB6F894DEBF0FBECDBF72
:101D5000DF91CF911F910F91FF90EF90DF90CF9087
:101D6000089568017C01DC015896ED91FC91028494
:101D7000F385E02D8E010B5F1E4F1995AC01B80164
:101D8000C70185DD18161906E4F641E050E0BE01F2
:101D90006F5F7F4FC701FEDB8F3F980781F29C0189
:101DA000AE014F5F5F4FBE016B5F7E4FC7018DDAA3
:101DB0008F3F980721F2D7015896ED91FC9122812F
:101DC0003381F60150E040E061E070E06C0F7D1F70
:101DD000260F371F481759070CF0B3CFDA01AA0FA7
:101DE000BB1FA20FB31F12966C91129713967C9192
:101DF000672776276727619371934F5F5F4FEACF1D
:101E00005F926F927F928F929F92AF92BF92CF928A
:101E1000DF92EF92FF920F931F93CF93DF93CDB793
:101E2000DEB7C051D1400FB6F894DEBF0FBECDBFB4
:101E30005C0179016801DC015896ED91FC91028406
:101E4000F385E02D8E010B5F1E4F1995AC01B80193
:101E5000C5011DDD1816190664F441E050E0045078
:101E60001140B801C50196DB8F3F9807C9F48FEF89
:101E70009FEFC05FDE4F0FB6F894DEBF0FBECDBF41
:101E8000DF91CF911F910F91FF90EF90DF90CF9056
:101E9000BF90AF909F908F907F906F905F900895CC
:101EA0009C01A801BE016B5F7E4FC5010EDA8F3F1A
:101EB0009807E9F2D5015896ED91FC910280F381E3
:101EC000E02D32963F01680E791EE00FF11F30E0E1
:101ED00020E0AF01401B510B4615570554F6819089
:101EE000912CD601A20FB31F590148E0A40EB11CDA
:101EF00041E050E02A153B0561F32E153F054CF7F4
:101F00002F5F3F4F55245394BA0168217921672BE5
:101F100009F4512C5D92440F551FECCF6F927F92C4
:101F20008F929F92AF92BF92CF92DF92EF92FF92E9
:101F30000F931F93CF93DF93FA018901DC015A9627
:101F40006D907C90C12CD12C76013097C1F020810E
:101F5000318142815381A8EEB3E00E94954F6B011D
:101F60007C01648175818681978128EE33E040E0B1
:101F700050E00E94574FC20ED31EE41EF51E0E9471
:101F80002C064B015C01F30182859385DC01ED9108
:101F9000FC910084F185E02D1995EC0180179107E3
:101FA000BCF40E942C06681979098A099B096C15F2
:101FB0007D058E059F0560F4F30182859385DC0124
:101FC000ED91FC910688F789E02D19958111DBCF01
:101FD000209741F484E790E09093031180930211DD
:101FE000CFEFDFEFCE01DF91CF911F910F91FF90E7
:101FF000EF90DF90CF90BF90AF909F908F907F90A9
:102000006F900895CF93DF93DC015A96CD91DC91C8
:102010008A859B85DC01ED91FC910084F185E02DA2
:102020001995892B51F08A859B85DC01ED91FC91F6
:102030000284F385E02D1995EBCF90E080E0DF91ED
:10204000CF910895DC015A96ED91FC91828593859C
:10205000DC01ED91FC910488F589E02D1994EF9253
:10206000FF920F931F93CF93DF9300D000D0CDB793
:10207000DEB7FC01A28DB38D1A968D919C911B97B2
:10208000FC0120813181F901E684F78412964D919B
:102090005C9113972BEF33E03A83298316960D91C9
:1020A0001D912D913C9119970B831C832D833E83A9
:1020B000BE016F5F7F4FF701199521E030E0892B5A
:1020C00011F030E020E088279927821B930B269699
:1020D0000FB6F894DEBF0FBECDBFDF91CF911F9139
:1020E0000F91FF90EF900895FA01DB019C918081A0
:1020F000981305C011969C918181981749F08FEE35
:102100009BE290930311809302118FEF9FEF08954C
:102110008281882319F083818111F1CF90E080E0E2
:102120000895CA010895DC015A96ED91FC918285CB
:102130009385DC01ED91FC910288F389E02D1995DE
:10214000BC01990F880B990B089550E040E022CA1A
:10215000DC015A96ED91FC9182859385DC01ED912D
:10216000FC910280F381E02D1995BC0190E080E0A4
:1021700008959B0126503109FC0134832583CB014E
:102180000895FC01208130E0322F22278181820FC7
:10219000932F911D0895DC01FB0115968C911597E5
:1021A000808314968C9114978183128213828C9170
:1021B000868312968C91878388E090E008950F9330
:1021C0001F93CF93DF93F801EC01AA8DBB8DCD91C6
:1021D000DC911197CF3FDC07D9F021961196DC9363
:1021E000CE9311967C91119770837C9171831282AA
:1021F0001382DC018C918683678350874187328705
:1022000023878CE090E0DF91CF911F910F9108958B
:1022100011961C921E92E5CF683F710530F4FC01C7
:102220007183608390E080E008956F3F7105B9F39A
:1022300086E190E090930311809302118FEF9FEF5E
:102240000895FB018081FA019081891759F0882354
:1022500049F083EF9BE290930311809302118FEF7B
:102260009FEF089590E080E00895CF93DF93FC0105
:10227000C28DD38D2E813F81232B51F041E050E060
:1022800089D91F821E8290E080E0DF91CF9108956E
:1022900050E040E07FD90097C1F721E030E03F8374
:1022A0002E83F3CFCF92DF92EF92FF927B016A01F0
:1022B0008091D10E9091D20E97FD03C061E00E94F3
:1022C00035058091CF0E9091D00E97FD07C061E04B
:1022D0000E94350583EC90E00197F1F781E080934F
:1022E000D30EA601B7018FEB9EE00E9464066C013D
:1022F000F12CE12C8091CB0E9091CC0EDC01ED9174
:10230000FC910680F781E02D19958091CF0E909178
:10231000D00E97FD07C0E3ECF0E03197F1F760E0F5
:102320000E9435051092D30E8091D10E9091D20E5D
:1023300097FD03C060E00E943505C701B601FF901C
:10234000EF90DF90CF900895FB01808191810297FB
:102350009183808390E080E00895DC01680F791F0D
:102360008FEF9FEFA617B70769F02D91292730E06F
:10237000F901E35EFD4F94919827F901E35EFE4F6A
:102380008491F0CF08950F931F93CF93DF93EC01C7
:102390008B01E3DFC00FD11F98838983C8010296A8
:1023A000DF91CF911F910F910895FC012081FB01D6
:1023B0002083FC018281FB01818382E090E008950B
:1023C000683F710530F4FC017183608390E080E028
:1023D000089586E190E090930311809302118FEFAE
:1023E0009FEF08950F931F93CF93DF93DC01A60F08
:1023F000B71FD0E0C0E08D01460F571FBD01681B1D
:10240000790B6417750728F0DF91CF911F910F9119
:102410000895FD01E01BF10B63E0F695E7956A95E1
:10242000E1F7E20FF31FE081F0E00C2E02C0F5951A
:10243000E7950A94E2F7E170ED932196C770DD27E6
:10244000DDCF81E00895FC018489882349F08485EB
:102450009585DC01ED91FC910190F081E02D1994BE
:1024600081E090E09383828390E080E00895DC0136
:102470001C968D919C91DC01ED91FC910680F78179
:10248000E02D1994DC011C968D919C91DC01ED915D
:10249000FC910284F385E02D19948F929F92AF9264
:1024A000BF92EF92FF920F931F93CF93DF937A0126
:1024B0008B01D0E0C0E0CE15DF0550F50E942C0660
:1024C0006093C70E7093C80E8093C90E9093CA0E86
:1024D0008FEB9EE0D7DF97FF29C00E942C068090EB
:1024E000C70E9090C80EA090C90EB090CA0E681981
:1024F00079098A099B098090C30E9090C40EA09020
:10250000C50EB090C60E681579058A059B0500F3C7
:10251000BE0190E080E0DF91CF911F910F91FF907D
:10252000EF90BF90AF909F908F900895F8018193A6
:102530008F012196C0CFDC011C968D919C91DC010E
:10254000ED91FC910484F585E02D1994DC011C9635
:102550008D919C91DC01ED91FC910084F185E02D41
:1025600019948F929F92AF92BF92CF92DF92EF9287
:10257000FF920F931F93CF93DF93FA018901C12C30
:10258000D12C76013097C1F0208131814281538175
:10259000A8EEB3E00E94954F6B017C0164817581C8
:1025A0008681978128EE33E040E050E00E94574F4B
:1025B000C20ED31EE41EF51E0E942C064B015C01C8
:1025C0008FEB9EE0C3DFEC01801791075CF40E9463
:1025D0002C06681979098A099B096C157D058E05F9
:1025E0009F0570F3209741F484E790E090930311E6
:1025F00080930211CFEFDFEFCE01DF91CF911F91DA
:102600000F91FF90EF90DF90CF90BF90AF909F9091
:102610008F9008958FEB9EE099DF892B21F08FEB4F
:102620009EE030DFF7CF90E080E00895EF92FF92D8
:102630000F931F93CF93DF937C01EB018A01888175
:1026400090E0F701208131812817390711F0892B9B
:1026500041F5B80162507109CE017FDEC00FD11F74
:10266000FE013297208121973881232732272327A3
:102670008217930771F0F701868182FF02C0C701BC
:10268000C9DF8EEE9BE290930311809302110FEF4E
:102690001FEFC801DF91CF911F910F91FF90EF9035
:1026A000089510E000E0F5CF0F931F93CF93DF93D1
:1026B0008C01FC01C485D585E881F9810680F7810C
:1026C000E02DCE011995EA89FB8980818F7E808378
:1026D000EA89FB898081877F8083EA89FB89808101
:1026E0008F778083EA89FB8980818F7D80838A8DC3
:1026F000898FF8018289938997FD08C060E00E9464
:10270000350560E0F80180890E949A05F80180890A
:10271000918997FD0CC060E00E94350560E0F801EA
:102720008289DF91CF911F910F910C949A05DF91CF
:10273000CF911F910F9108958091D10E9091D20E5B
:1027400097FD03C061E00E9435058FEB9EE0ACCFA2
:10275000CF92DF92EF92FF921F93CF93DF93EC0122
:102760006A017B01122FCD8ADE8AEF8AF88E298FCB
:102770003A8F8889998997FD07C061E00E949A0580
:1027800060E088890E9435058A899B8997FD07C08A
:1027900061E00E949A0561E08A890E9435051C8AE1
:1027A000212FB701A6018C859D85DF91CF911F91C7
:1027B000FF90EF90DF90CF900C94E006DC015A96EA
:1027C000ED91FC9124813581408151816281738139
:1027D0008FEB9EE0BDDF8091D10E9091D20E97FDE0
:1027E00003C060E00E94350590E080E00895DC01C0
:1027F000ED91FC910088F189E02D26E030E01994FC
:1028000090E02091290D233339F40C96982F990FDD
:10281000990F990F80E008954896F8CFCF93DF93F2
:102820001F92CDB7DEB76983DC01ED91FC91028088
:10283000F381E02D41E050E0BE016F5F7F4F1995BD
:102840000F90DF91CF910895CF93DF931F92CDB773
:10285000DEB76983DC01ED91FC910280F381E02D0C
:1028600041E050E0BE016F5F7F4F19950F90DF91FF
:10287000CF910895FC019485FB018485981303C0D2
:1028800081E0983008F080E00895CF93DF931F92A5
:10289000CDB7DEB76983DC01ED91FC910280F38155
:1028A000E02D41E050E0BE016F5F7F4F19950F9022
:1028B000DF91CF910895FC01848595850895FC01F1
:1028C0008489958908952BEF33E0FC0131832083BF
:1028D000FB014089518962897389FC0142835383DA
:1028E000648375830895DC01ED91FC91048CF58D72
:1028F000E02D1994FC0120812EBD9B01215031094E
:1029000041F051810DB407FEFDCF4EB55EBD419340
:10291000F5CF61507109860F971F0DB407FEFDCFEB
:102920002EB5FC0120830895E0918C0CF0918D0C64
:10293000808190918B0C892B80830895E0918C0C81
:10294000F0918D0C908180918B0C809589238083F0
:10295000089508958EBD00000DB407FEFDCF8EB51D
:102960000895AF92BF92CF92DF92EF92FF920F93B2
:102970001F93CF93DF9300D000D01F921F92CDB74B
:10298000DEB78C017B016A018091290D8333B1F49C
:102990005801A40EB51EA016B10609F463C0CEDF1F
:1029A00080EFD8DF812FD6DF802FD4DF0F5F1F4F5E
:1029B000F70181917F01CEDFB7DFEDCF5B01A40E80
:1029C000B51E8433A9F4BADF19830A838D2D80687C
:1029D0008B83CC8264E070E0CE0101968BDFAE1475
:1029E000BF0409F43EC0F70181917F01B3DFF7CF47
:1029F000A5DF0F3F110509F028F419820A8384E04E
:102A00008B830CC017FD17C019820A8333E016951B
:102A100007953A95E1F7007E0C600B8386E0C816B7
:102A2000D10490F5F701DE011496EA15FB0599F043
:102A300081918D93FACFC80126E0969587952A95C6
:102A4000E1F7807E19830A830115104C10F484612C
:102A5000D7CF8C61D5CFB6016D5F7F4FCE01019688
:102A600049DF62DFC60128960FB6F894DEBF0FBEBD
:102A7000CDBFDF91CF911F910F91FF90EF90DF902D
:102A8000CF90BF90AF90089563E070E0CE010196C3
:102A900031DFF70181917F015DDFAE14BF04C9F71B
:102AA000E0CFDA01E0918F0CF0E0FE2FEE27E60F89
:102AB000F71F90E0982F8827A901BD018E0F9F1F57
:102AC00050CFCF93DF931F921F92CDB7DEB779839C
:102AD0006A8322E030E0AE014F5F5F4F60E170E05B
:102AE000E0DF0F900F90DF91CF910895CF93DF93A8
:102AF0001F921F92CDB7DEB779836A8322E030E060
:102B0000AE014F5F5F4F64E070E0CBDF0F900F903E
:102B1000DF91CF910895FF920F931F93CF93DF938F
:102B2000EB01FC01178A168A2A81211109C02B8129
:102B3000211106C02C81211103C02D812223F1F027
:102B400041155105D9F08A01FC01F08C80E591E036
:102B50000E94ED03AE014E5F5F4F24E030E06CE079
:102B600070E08F2D9EDFB8018F2DABDF81E090E00C
:102B7000DF91CF911F910F91FF90089580E0F7CFE3
:102B8000CF93DF931F92CDB7DEB7898341E050E04A
:102B9000BE016F5F7F4F90E080E0E3DE0F90DF913A
:102BA000CF910895CF93DF931F92CDB7DEB72091D9
:102BB0008F0C30E0322F2227260F371F90E0982FFE
:102BC0008827498341E050E0BE016F5F7F4F820F4D
:102BD000931FC7DE0F90DF91CF910895DC0180E055
:102BE000615090F09D919827E92FEF70F0E0E3504D
:102BF000FF4F2491E92FE295EF70F0E0E35FFE4F85
:102C0000E491822F8E27ECCF0895DC012C91119650
:102C1000ED91FC91F8948181822B81839281322FF6
:102C200030959323928387E090E00197F1F78181BB
:102C30008323818383E290E00197F1F79081789478
:102C4000EFECF0E03197F1F7922381E009F480E0B6
:102C50000895FC0190810180F281E02D292F2095BB
:102C600060FF14C0F8948281822382838181892B42
:102C70008183A3E2B0E01197F1F78281982B9283D0
:102C8000789487ED90E00197F1F70895F8948281A8
:102C9000822382838181892B8183AFEFB0E01197FA
:102CA000F1F78281982B928378948FE090E0EBCFBC
:102CB000DF92EF92FF920F931F93CF93DF93EC017C
:102CC000D62EE42E08E010E0FF24F39461E08D2D71
:102CD0008F2109F460E0CE01BCDFFF0C0150110927
:102CE000A9F7E11010C0F894E981FA8191818881F7
:102CF000809589238183E981FA81928188818095F9
:102D0000892382837894DF91CF911F910F91FF9057
:102D1000EF90DF900895EF92FF920F931F93CF9360
:102D2000DF938C017B0140E065E5C2DFE70188E0CD
:102D3000E80EF11C699140E0C801BADFCE15DF054D
:102D4000C9F7DF91CF911F910F91FF90EF900895F8
:102D5000FC0190810180F281E02DF8948181292F7E
:102D600020958223818378943DE743E050E0315001
:102D700029F1DA011197F1F780818923C1F3F894E1
:102D80008281822382838181892B81837894ABE73E
:102D9000B7E01197F1F7F894818182238183A3E151
:102DA000B1E01197F1F78081982381E009F080E08C
:102DB0007894E3E6F6E03197F1F7089580E008951E
:102DC0006F927F928F929F92AF92BF92CF92DF923B
:102DD000EF92FF920F931F93CF93DF938C01EB0140
:102DE0008091811090918210B3DF882309F43BC059
:102DF000B80180918110909182108DDF40E06EEBE0
:102E0000809181109091821053DF7E016E0189E0E4
:102E1000C80ED11C8E01A0908110B090821088E065
:102E2000882E912C712C66246394C501EEDE8111ED
:102E30007628660CE1E08E1A9108B9F7F8017192D4
:102E40008F01CE16DF0639F78091811090918210A4
:102E50007FDF813041F4F70181917F01811105C04D
:102E6000E017F107C1F790E007C068E0CE01B6DED9
:102E700091E028852813F7CF892FDF91CF911F91FB
:102E80000F91FF90EF90DF90CF90BF90AF909F9009
:102E90008F907F906F900895FC01768765870895E5
:102EA000DC01ED91FC91068CF78DE02D199591E0F8
:102EB00089270895862F089581E086270895CF9366
:102EC000DF93DC01ED91FC9142815381DB01C281F2
:102ED000D38120813181C217D30758F42C9122234A
:102EE00041F09E012F5F3F4F338322832D91288332
:102EF000EECF188222813381F901E41BF50BDC014E
:102F000012962D913C9113972E0F3F1F13963C93D1
:102F10002E931297DF91CF9108950F931F93CF9324
:102F2000DF93CDB7DEB766970FB6F894DEBF0FBE5E
:102F3000CDBF9C01CB011E8AFE0176960AE010E00F
:102F4000B8010E94444F805D8293CB010097C1F786
:102F5000BF01C901B4DF66960FB6F894DEBF0FBE9D
:102F6000CDBFDF91CF911F910F910895CF93DF9344
:102F7000DC01ED91FC911197C281D3818081918117
:102F800030E020E0C817D90758F4CE0101969383AA
:102F9000828368830280F381E02D108221E030E09B
:102FA00012968D919C911397820F931F13969C9369
:102FB0008E931297DF91CF910895FF920F931F93F5
:102FC000CF93DF936115710541F463EE75E0DF91F6
:102FD000CF911F910F91FF9072CF8B01EC0162E2B4
:102FE000CE01C4DFF80161918F01662351F0E4ED59
:102FF000F5E0F080FF20A1F38181681751F032964F
:10300000F8CF62E2CE01DF91CF911F910F91FF9037
:10301000ADCF6CE5CE01AADF6F2DE2CF0F931F93EA
:10302000CF93DF93EC018B016BE5C8019FDF0A8032
:10303000DB81C02D209769F0B801CE01029610D037
:103040000990D881C02D209721F06CE2C8018EDF55
:10305000F1CF6DE5C801DF91CF911F910F9186CF20
:103060002F923F924F925F926F927F928F929F9298
:10307000AF92BF92CF92DF92EF92FF920F931F9386
:10308000CF93DF93CDB7DEB76C970FB6F894DEBF62
:103090000FBECDBFDC01ED91FC9111973197E83067
:1030A000F10508F0D2C11B018C018827E55AF74EC3
:1030B0008F4F0C9443507A1A741AA41A831A801AE8
:1030C000481A4D1A6318FD01428053806480758050
:1030D000A3019201C301B2010E94174E63EF75E094
:1030E00081110BC220E030E0A901C301B2010E94AE
:1030F000174E87FF07C06DE2C10138DF77FA709481
:1031000077F8709420E030E0A901C301B2010E9479
:10311000174E882389F0A3019201C301B2010E94D6
:10312000AF4F9B01AC01C301B2010E94174E67EF84
:1031300075E0882309F4E1C120E836E948E15BE461
:10314000C301B2010E943F5087FD7FC0AEE5EA2E69
:10315000A2E0FA2EBEE2CB2EB2E0DB2E16E4A12EC8
:1031600012E0B12E00E210E0188E1F8AD7015E91A6
:103170004E913E912E917D01C301B2010E943F50BC
:1031800087FD11C0F6012489358946895789C30115
:10319000B2010E947C4E2B013C018F89988D800FDB
:1031A000911F988F8F8B1595079594E0C91AD108B8
:1031B000AE14BF04D9F699249A9420E030E0A90116
:1031C000C301B2010E943F5018160CF045C02CEA12
:1031D00035EC47E257E3C301B2010E94174E1816BF
:1031E000DCF1A92DB4E0AB0250011124D12CC12C8B
:1031F000EFEF9E1689F17501EC0CFD1CF701EA5EFC
:10320000FD4FA301920160817181828193810E94AF
:103210003F5018169CF4F701EA5BFD4F2081318185
:1032200042815381C301B2010E947C4E2B013C01BB
:103230008F89988D801B910B988F8F8B1595079593
:103240009A9494E0C91AD108D3CF00E210E0E5E0E7
:103250009E2E188E1F8AB1CFC301B2010E94135057
:103260006B017C014B015C0106E080E492E4AFE07D
:10327000B0E0898F9A8FAB8FBC8F102F01509AE0EE
:1032800089169104A104B104C8F0698D7A8D8B8DE3
:103290009C8D2AE030E040E050E00E94574F298F9B
:1032A0003A8F4B8F5C8FC501B4012AE030E040E0DB
:1032B00050E00E94574F49015A01DFCFC701B601C4
:1032C0000E941B4E9B01AC01C301B2010E94AE4F94
:1032D0004B015C01698D7A8D8B8D9C8D0E941B4EFC
:1032E0009B01AC01C501B4010E947C4E4B015C0105
:1032F0000E9413502B013C010E941B4E9B01AC010C
:10330000C501B4010E94AE4F9B01AC010E94AF4FBA
:103310000E941350460E571E681E791E898D9A8D85
:10332000AB8DBC8D481659066A067B06D8F09FEF18
:10333000C91AD90AE90AF90AAF89B88DAB2B39F154
:10334000BAE0CB16D104E104F10408F1EF89F88D5D
:103350003196F88FEF8B412C512C3201C12CD12C9E
:103360007601C3945AE0852E912CA12CB12CC30177
:10337000B201A50194010E94574F672B682B692B5E
:1033800051F4111644F429013A011150F0CF412CA7
:10339000512C3201E7CF1E8ACE0146969A8F898F33
:1033A0004AE0842E912CA12CB12CC701B601A501B5
:1033B00094010E94574F605DA98DBA8D6E93BA8FAC
:1033C000A98F69017A01C114D104E104F10469F7FC
:1033D000BD01C10174DD112349F1188A6E01B0E10C
:1033E000CB0ED11C012F76013AE0832E912CA12C1B
:1033F000B12C015068F0C301B201A50194010E94F3
:10340000574F605DF60162936F0129013A01F1CFD8
:10341000612F70E0F701E61BF70B31978EE2808396
:10342000609570956E0D7F1DC10149DD8F89988D66
:1034300097FF24C060E076E0C10141DD6F89788D9F
:10344000719561957109C10168DD6C960FB6F894AC
:10345000DEBF0FBECDBFDF91CF911F910F91FF90C7
:10346000EF90DF90CF90BF90AF909F908F907F9024
:103470006F905F904F903F902F900895AF89B88DD7
:10348000AB2B19F365E6C10171DD6F89788DDBCF58
:10349000FD0182819381C2DDD8CF12960D911C91DE
:1034A0006BE7C10163DDF80102811381011511058C
:1034B000B9F0D80112966D917C91C1017EDD6AE36D
:1034C000C10154DDB101C8010496CADDF8010081D3
:1034D00011810115110521F06CE2C10147DDE6CF34
:1034E0006DE7C10143DDB1CF12966D917C91C101B1
:1034F00064DDABCFFD0162817381C101E0DCA5CF4A
:103500006DE2C10133DDD80112966D917D918D91EF
:103510009C9115971E8A8E010A5E1F4F2AE0C22ECB
:10352000D12CE12CF12CA70196010E94574F605D30
:10353000F80162938F01B901CA0161157105810516
:10354000910589F7BF01D9CFFD0182819381A481C3
:10355000B58168EE75E0892B8A2B8B2B71F66DEEA9
:1035600075E0CBCFCF93DF9300D000D01F921F9296
:10357000CDB7DEB741505109460F571F5E834D83CB
:1035800078876F83FB0110829E012B5F3F4F3A8348
:1035900029831C821B82BE016F5F7F4F3FDD8B81C1
:1035A0009C8128960FB6F894DEBF0FBECDBFDF9189
:1035B000CF910895FC0186819781680F791F24813E
:1035C00035812617370738F022813381820F931F08
:1035D00077836683089590E080E00895DB0110977B
:1035E00049F0ED91FC9111970190F081E02DBC0123
:1035F000CD01199490E080E00895CF93DF93EC0122
:10360000BC0184E090E0EADF009741F0FC01D18347
:10361000C08313821282DF91CF91089580912E0D85
:1036200081110BC010922B0D10922A0D10922D0DAE
:1036300010922C0D81E080932E0D8AE29DE0EBCF5D
:10364000CF93DF93EC01688179818AE090E0C6DF57
:10365000009729F0FC011182108215821482EA8100
:10366000FB81309721F49B838A8308C0F901208174
:10367000318121153105D1F791838083DF91CF917D
:103680000895EF92FF920F931F93CF93DF93DC0186
:10369000ED90FC90E114F10491F48091810C811182
:1036A0000BC010927E0C10927D0C1092800C109228
:1036B0007F0C81E08093810CCDE7DCE03EC08C0183
:1036C000B70184E090E08ADFEC01892B09F442C065
:1036D000F982E8821B821A82F8016081718188E098
:1036E00090E07CDFFC01892B21F011821082138293
:1036F0001282D80112962D913C9113972115310514
:1037000031F41396FC93EE93129709C09C01D901F2
:103710008D919C9111970097C9F7ED93FC93309789
:1037200061F088819981892B81F490E080E030E01C
:1037300020E03383228394838583CE01DF91CF9170
:103740001F910F91FF90EF9008959C2F8D2F27E0F0
:1037500030E0EFCF8091810C81110BC010927E0C74
:1037600010927D0C1092800C10927F0C81E080935F
:10377000810CCDE7DCE0B0CF089590E080E00895C3
:10378000CF93DF93E82FF0E0EE0FFF1FE257FD4FDE
:103790008181813029F5208130E0F901E65CFB4F21
:1037A0008491F901E751FC4FD491F901E856FC4F9F
:1037B000C491CC2309F43FC081110E94CE04EC2FA8
:1037C000F0E0EE0FFF1FE35EFC4FA591B491EC918A
:1037D000ED2381E090E009F480E0DF91CF9108953E
:1037E000823049F58081863308F0865320917B0032
:1037F000982F9870277F922B90937B00877080641E
:1038000080937C0080917A00806480937A0080911C
:103810007A0086FDFCCFA0917800B091790020EC71
:1038200036E70E944B502FEF33E040E050E00E941B
:10383000794FC901D2CF80E090E0CFCFBF92CF9235
:10384000DF92EF92FF920F931F93CF93DF93EC01E0
:10385000B62EC72E8D85811104C0CE0179DA811173
:103860000EC01B861D861C8680E0DF91CF911F91C4
:103870000F91FF90EF90DF90CF90BF90089540E0C0
:1038800060EFCE0115DA01E0E12CD12C11E0CE0180
:10389000BCD9F82ECE01B9D991E0F91218C0813007
:1038A00099F51134F0F2DB86D11002C081E08D87EA
:1038B0008B818823B1F22396EB2DFC2DCF01089646
:1038C00029912193E817F907D9F781E0CECFEE2DA2
:1038D000F0E0F8120FC08B851817A0F4DE01AE0FD0
:1038E000BF1F13968C91802379F4F12C193008F4C2
:1038F0001C87D12EEC0FFD1F8381902F909589237B
:1039000083830AC08113F1CFFE01EE0DF11D838187
:10391000802B8383FF24F3946F2DCE019AD91F5FF0
:10392000000F11F4E39401E087E08E1508F0AFCFAB
:10393000B8CFAF92BF92CF92DF92EF92FF920F93E8
:103940001F93CF93DF9300D01F92CDB7DEB78C01CA
:103950006B017A018091290D8333E9F45B016801E1
:10396000C40ED51EC016D106A9F10E949E148FE088
:103970000E94AA14812F0E94AA14802F0E94AA14C8
:103980000F5F1F4F80E00E94AA14F50181935F0131
:103990000E949414E7CF843369F50E949E14198322
:1039A0000A838F2D8F778B83EC8264E070E0CE01E9
:1039B00001960E947A14A70170E060E0C6010E949F
:1039C0005F52E114F10421F0B701C6010E947A149C
:1039D0000E949414C7010F900F900F900F90DF91E9
:1039E000CF911F910F91FF90EF90DF90CF90BF90FC
:1039F000AF9008950E949E140F3F110509F030F416
:103A000019820A831B8263E070E0D1CF17FD0BC0DF
:103A100019820A8333E0169507953A95E1F7007EFF
:103A200008600B83F0CFC80126E0969587952A950C
:103A3000E1F7807E19830A830115104C18F4806128
:103A40008B83E1CF8861FCCF1F93CF93DF931F92CD
:103A5000CDB7DEB7182F80E591E00E94ED03812FEE
:103A60000E94001427E0129FF0011124EF51F34F40
:103A700022813381377041E050E0BE016F5F7F4F9C
:103A8000820F931F56DF89810F90DF91CF911F9195
:103A90000895FC01808D883038F4218D328D232BE0
:103AA00019F0D2DF90E008958FEF9FEF0895CF9344
:103AB000DF93FC012485283028F08FEF9FEFDF9102
:103AC000CF910895EC010190F081E02D0084F18503
:103AD000E02D1995892B89F38C85B6DF90E0EFCF27
:103AE000DA01E0918F0CF0E0FE2FEE27E60FF71FD2
:103AF00090E0982F8827A901BD018E0F9F1F19CF35
:103B00007F928F929F92AF92BF92CF92DF92EF926D
:103B1000FF920F931F93CF93DF931F921F92CDB706
:103B2000DEB7782E8B014A01590122E030E0AE0168
:103B30004F5F5F4F64E270E0D3DFE980FA80FE24DC
:103B4000EF24FE24E00EF11E970137704091290DFD
:103B5000072D10E0433309F042C0085F1F4F102FBC
:103B60000027110F110F110FC901800F911F47334B
:103B7000C9F1A9014A0D5B1D4130584098F160E040
:103B800078E06B01C21AD30AA601B4010E94B114F5
:103B9000A5014C195D09B4016C0D7D1DC8010E9481
:103BA000B114EA0CFB1CF982EA8222E030E0AE019B
:103BB0004F5F5F4F64E270E0872D0E9451150F90B8
:103BC0000F90DF91CF911F910F91FF90EF90DF90B9
:103BD000CF90BF90AF909F908F907F900895005F9F
:103BE0001F4FBDCFA501B401DACFEF92FF921F9313
:103BF000CF93DF931F921F92CDB7DEB7182F22E02D
:103C000030E0AE014F5F5F4F60E270E069DFE98056
:103C1000FA80FE24EF24FE2422E030E0AE014F5F64
:103C20005F4F60E270E0812F5BDF89819A81982786
:103C300089279827E816F90689F487E0189FF0018C
:103C40001124EF51F34FF582E482C7010F900F90DA
:103C5000DF91CF911F91FF90EF9008957C01DCCF11
:103C60009F92AF92BF92CF92DF92EF92FF920F930B
:103C70001F93CF93DF938C015B01942EE52EFC0103
:103C8000C688D788F08C80E591E00E94ED038F2DE7
:103C9000ACDFC92DDE2D8C179D0708F4EC019E01C9
:103CA000A501B6018F2D2CDFF801868997898C0F2D
:103CB0009D1F978B868BCE01DF91CF911F910F9126
:103CC000FF90EF90DF90CF90BF90AF909F900895BE
:103CD000FF920F931F93CF93DF931F921F92CDB745
:103CE000DEB7F82E22E030E0AE014F5F5F4F66E2B4
:103CF00070E0F6DE09811A8110270127102722E0E3
:103D000030E0AE014F5F5F4F66E270E08F2DE8DE7E
:103D100089819A819827892798270817190749F4D4
:103D2000C8010F900F90DF91CF911F910F91FF90DD
:103D300008958C01E4CF1F93CF93DF93182F87E072
:103D4000189FE0011124CF51D34F888199810097AA
:103D500059F480E591E00E94ED03812FB9DF2E81B7
:103D6000821B910999838883DF91CF911F910895D8
:103D7000FC018485883008F4DECF90E080E008956F
:103D80000F931F93CF93DF931F921F92CDB7DEB790
:103D9000FC0124852830D8F48C0180E591E00E9454
:103DA000ED0322E030E0AE014F5F5F4F60E170E075
:103DB000F801848595DE89819A819827892798273B
:103DC0000F900F90DF91CF911F910F91089590E088
:103DD00080E0F6CF0F931F93CF93DF931F921F9234
:103DE000CDB7DEB7FC0124852830D8F48C0180E5FE
:103DF00091E00E94ED0322E030E0AE014F5F5F4FA3
:103E000064E070E0F80184856BDE89819A819827EF
:103E1000892798270F900F90DF91CF911F910F91D5
:103E2000089590E080E0F6CFCF93DF931F92CDB757
:103E3000DEB741E050E0BE016F5F7F4F7ADD8981E0
:103E40000F90DF91CF91089520918F0C30E0322FA9
:103E50002227620F731F90E0982F8827860F971FE5
:103E6000E3CF63E070E0F0CF1F93CF93DF93182F81
:103E700080E591E00E94ED03812FB7DEEC01812FF8
:103E8000F0DF873121F08C3111F0D0E0C0E0CE01BD
:103E9000DF91CF911F910895FC018485883008F44B
:103EA000E3CF90E080E00895CF93C82F80E591E0C4
:103EB0000E94ED038C2FCF91D4CFEF92FF920F93FE
:103EC0001F93CF93DF937C018091290DD4E083333E
:103ED00009F0D8E009E11DE0C0E0F801219131913D
:103EE0008F01F701848195812817390729F0CF5F69
:103EF000DC13F3CF80E005C08C2FD6DF8431B9F717
:103F000081E0DF91CF911F910F91FF90EF90089585
:103F1000CF93DF93EC018C858830C8F4C5DF843102
:103F200089F0882379F0883169F021E08C3159F4E7
:103F3000E881F9810084F185E02DCE01199521E019
:103F4000892B09F420E0822FDF91CF91089580E042
:103F5000FBCFCF93DF93EC018C85883050F4A4DF46
:103F6000873111F08C3129F48C857EDF81159840E2
:103F700098F3DF91CF910895CF93C82F462F61E03A
:103F800070E00E94D21561E070E08C2F5DDF81113E
:103F9000FACFCF9108958F929F92AF92BF92CF9216
:103FA000DF92EF92FF920F931F93CF93DF93CDB7E2
:103FB000DEB760970FB6F894DEBF0FBECDBF7C01B1
:103FC0009091290D911115C018E0812F60960FB6C0
:103FD000F894DEBF0FBECDBFDF91CF911F910F913F
:103FE000FF90EF90DF90CF90BF90AF909F908F9019
:103FF000089508E0933309F404E06B0180E591E053
:104000000E94ED039E012F5F3F4F5901490110E0CF
:10401000812F27DFF40181934F018823B9F01F5FBF
:104020000113F6CF00E0F50181915F018D3149F078
:10403000883139F08A51823020F00F5F1013F3CFAE
:10404000C3CF60E170E0802F97DF102FA12EB12C3D
:10405000F501EE0FFF1FE75EF24F1182108283EE33
:1040600093E00197F1F742E870E060E0812F0E9451
:10407000D2154FEF62E070E0812F0E94D215B60199
:10408000C114D10491F4809102029091030201962F
:104090008115F0EC9F0708F45AC0909303028093B7
:1040A00002026091020270910302812F0E94761534
:1040B00086E0E0E1F2E0DE01199601900D928A952A
:1040C000E1F7F70183818F778C8784818D878581E4
:1040D0008E87A7014E5F5F4F24E030E06CE070E018
:1040E000812F0E945115B601812F0E94611526E093
:1040F00030E0AE01475F5F4F66E070E0812F0E94C5
:10410000511561E070E0812F37DF27E02A9DC00163
:104110002B9D900D11249C012F51334F7901F901F2
:104120001182108222E030E0AE01415F5F4F68E211
:1041300070E0812FD5DC8F8598899827892798276B
:10414000F701938382831682158214823ECF80E02A
:1041500090ECA3CFCF92DF92EF92FF921F93CF9379
:10416000DF93182F7B01EA014130584010F0C0E086
:10417000D8E080E591E00E94ED03812F36DD6C01EF
:10418000812F6FDE873111F08C3101F5CC16DD0601
:1041900080F380E591E00E94ED039E01A70170E0AD
:1041A00060E0812FADDC60E270E0812FE5DE62E04F
:1041B00070E0812F49DE84FD0CC0812F52DE882300
:1041C000B9F080E591E00E94ED03F1CFD0E0C0E0CE
:1041D000E0CF40E162E070E0812F0E94D215CE0175
:1041E000DF91CF911F91FF90EF90DF90CF900895D6
:1041F000D0E0C0E0F4CF0F931F93CF93DF938C01F7
:10420000EA01FC018485883040F4A4DF892B39F46D
:1042100081E090E0F80193838283D0E0C0E0CE019A
:10422000DF91CF911F910F9108954F925F927F92EE
:104230008F929F92AF92BF92CF92DF92EF92FF92B6
:104240000F931F93CF93DF931F921F92CDB7DEB7CB
:10425000782E6B014A01A82EB12C27E0829FC00165
:104260001124FC01EF51F34F7F010081118180E5A2
:1042700091E00E94ED03081519054CF4872D28DD07
:10428000F70126818C01021B11091183008301159E
:10429000110511F5872DE5DD843159F0882349F0AA
:1042A00001E010E08C3111F410E000E0119501956F
:1042B0001109C8010F900F90DF91CF911F910F91BD
:1042C000FF90EF90DF90CF90BF90AF909F908F9036
:1042D0007F905F904F900895801691060CF48401B2
:1042E00087E08A9DF0018B9DF00D1124EF51F34F73
:1042F000E280F380C114D10441F12701F7E05F228D
:10430000872D0E940014840D951D2091290D2733BF
:1043100009F450C09801240D351D2130384008F4AF
:1043200049C020E038E0490184189508A401B6018D
:1043300000DB2601480C591C6801C818D908872DD4
:104340000E940014A601B201F4DAE00EF11E87E02B
:104350008A9DF0018B9DF00D1124EF51F34FF382F4
:10436000E28220813181201B310B318320838681C1
:10437000800F912F911D8A3F910510F4232BE9F4B2
:1043800087E08A9DF0018B9DF00D1124EF51F34FD2
:104390001682F982EA8222E030E0AE014F5F5F4F81
:1043A00068E270E0872D0E94511560E470E0872D6F
:1043B000E3DD7FCFA801B601C7CF86837ACFCF9345
:1043C000DF93FC01218D328D2115310529F48FEF0A
:1043D0009FEFDF91CF910895EC01808D4217530735
:1043E00008F0A90122DF181619068CF7298D3A8DDD
:1043F000281B390B3A8F298FECCF0F931F93CF9344
:10440000DF931F92CDB7DEB7FC01218D328D232BB8
:1044100041F48FEF9FEF0F90DF91CF911F910F919C
:1044200008958C0141E050E0BE016F5F7F4FFC01B9
:10443000808DFBDE1816190664F7F801818D928DC8
:104440000197928F818F898190E0E5CFCF93DF93A1
:104450001F92CDB7DEB741E050E0BE016F5F7F4FE6
:10446000FC018485E2DE1816190634F4898190E097
:104470000F90DF91CF9108958FEF9FEFF9CFFC015F
:104480008485883008F4D1CE90E080E00895CF9301
:10449000C82F80E591E00E94ED0368E070E08C2F6A
:1044A000CF916ACD9F92AF92BF92CF92DF92EF925F
:1044B000FF920F931F93CF93DF93EC017B018091C9
:1044C000290D811121C01B821A8288EE93E0A0E0A1
:1044D000B0E08C839D83AE83BF8385E993E09983AD
:1044E000888388E08C8788EE93E09E878D87CE0155
:1044F000DF91CF911F910F91FF90EF90DF90CF90C0
:10450000BF90AF909F90089534E0932E833311F0C5
:1045100028E0922E89E1C82E8DE0D82E10E098E098
:10452000B92EA12CD6012D913D916D01F701848109
:1045300095812817390779F4812FB6DC082F873148
:1045400011F08C3129F5812FF6DB892B51F50C31D7
:1045500011F4812F9CDF1F5F9112E4CFA11008C0DE
:10456000D701ED91FC910084F185E02DC7011995EB
:104570001B821A8288EE93E0A0E0B0E08C839D83DA
:10458000AE83BF8385E993E099838883BC86ABCFF4
:10459000843149F08111DFCFF60132971182108208
:1045A000DACFB12ED8CFAA24A394D5CF8F929F92E1
:1045B000AF92BF92CF92DF92EF92FF920F931F9331
:1045C000CF93DF93CDB7DEB72F970FB6F894DEBF4A
:1045D0000FBECDBF5C014B017A018091290D88236C
:1045E000B1F104E0833309F008E0B501CE01019692
:1045F00059DF89E1C82E8DE0D82E10E0F601219117
:1046000031916F01F501848195812817390741F4B3
:10461000812F4ADC873121F4A701B401812F9ADD73
:104620001F5F0113EBCFC7012F960FB6F894DEBFC3
:104630000FBECDBFDF91CF911F910F91FF90EF90F3
:10464000DF90CF90BF90AF909F908F900895F12C06
:10465000E12CE9CFCF93C82F80E591E00E94ED03D4
:1046600060E170E08C2FCF9187CCCF92DF92EF92F8
:10467000FF920F931F93CF93DF9300D000D0CDB75D
:10468000DEB78C016B017A01FC01808D883008F463
:10469000E1DF8BEF93E09A838983F6018281938136
:1046A000A481B5818B839C83AD83BE83B701CE018A
:1046B000019671DCF801808F8830A0F4F586E486DD
:1046C000128E118E81E026960FB6F894DEBF0FBED3
:1046D000CDBFDF91CF911F910F91FF90EF90DF90B1
:1046E000CF90089580E0EFCFCF93DF93EC01888DDA
:1046F000883018F4AFDF88E0888FDF91CF9108957C
:10470000CF92DF92EF92FF92CF93DF93EC018C85F3
:10471000883058F4BCDE0E942C066B017C018C852D
:10472000C3DB811109C088E08C87DF91CF91FF90B6
:10473000EF90DF90CF90089561E070E080E090E02E
:104740000E94FB050E942C06AB01BC014C195D09BF
:104750006E097F098D859E85B0E0A0E04817590756
:104760006A077B07E0F28C8575DFDDCF8F929F9221
:10477000AF92BF92CF92DF92EF92FF920F931F936F
:10478000CF93DF9300D000D000D01F92CDB7DEB71B
:104790009091290D911115C018E0812F2A960FB61E
:1047A000F894DEBF0FBECDBFDF91CF911F910F9167
:1047B000FF90EF90DF90CF90BF90AF909F908F9041
:1047C000089528E0F22E933311F494E0F92E6B0152
:1047D000082F80E591E00E94ED039E012F5F3F4F7F
:1047E0005901490110E0812F3CDBF40181934F0115
:1047F0008823B9F01F5FF112F6CFF12CF5019191EA
:104800005F019D3149F0983139F09A51923020F092
:10481000F3941F11F3CFC0CF60E170E08F2DACDBBC
:104820001F2DE12EF12CF701EE0FFF1FE75EF24F77
:104830001182108283EE93E00197F1F7402F70E030
:1048400060E0812F0E94D2154FEF62E070E0812F6F
:104850000E94D215B601CD2889F480910202909170
:10486000030201968115F0EC9F0788F190930302F3
:10487000809302026091020270910302812F0E94D4
:10488000761561E070E0812F77DB27E02E9DC00177
:104890002F9D900D11249C012F51334F7901F90167
:1048A0001182108222E030E0AE01475F5F4F68E284
:1048B00070E0812F15D989859A85982789279827AF
:1048C000F7019383828316821582148266CF80E07B
:1048D00090ECCCCF0F931F93CF93DF93EC018B0120
:1048E000888D883008F4B6DEB80182E03FDF888F1B
:1048F000883050F41D870C871A8E198E81E0DF9165
:10490000CF911F910F91089580E0F9CFCF93FC01D3
:10491000C08D80E591E00E94ED0360E270E08C2F95
:104920002BDB62E070E08C2F8FDA84FD15C062E033
:1049300070E08C2F89DA83FF0AC048E162E070E002
:104940008C2F0E94D21580E090E0CF91089580E5F1
:1049500091E00E94ED03E5CF40E162E070E08C2F32
:104960000E94D21581E0F0CF0F931F93CF938C015B
:10497000FC016481758181E2F9DEC82F8830E0F4A2
:1049800080E591E00E94ED038C2F6BDA833129F0F2
:104990008C2FCF911F910F917ACD62E070E08C2F18
:1049A000EBDAF80184819581EC2FF0E0EE0FFF1F28
:1049B000E75EF24F91838083CF911F910F9108950D
:1049C000CF92DF92EF92FF921F93CF93DF93EC0190
:1049D0007B016A018C85883038F466DA882311F00F
:1049E0008C8555DD88E08C87F70182819381A481D5
:1049F000B5810097A105B10551F490E080E0DF9109
:104A0000CF911F91FF90EF90DF90CF9008958F3F4F
:104A10009F4FAF4FBF4F89F370E060E081E2A6DEA9
:104A2000182F8C87883048F780E591E00E94ED03CD
:104A3000A7014E5F5F4F24E030E06CE070E0812F13
:104A40000E945115B601812F0E94611564E070E04B
:104A5000812F92DA0E942C066B017C018C8524DA6E
:104A6000873109F18C31F9F0882339F20E942C0644
:104A7000AB01BC014C195D096E097F098D859E85CE
:104A8000B0E0A0E084179507A607B70738F061E00B
:104A900070E080E090E00E94FB05E0CF8C85DADDDD
:104AA00088E08C87AACF81E090E0A9CF90E080E0F9
:104AB000BBC9CF93DF93C4E1D0E0F8DF882361F076
:104AC00061E070E080E090E00E94FB052197A9F78B
:104AD00080E0DF91CF91089581E0FBCF1F93CF93CA
:104AE000DF931F921F92CDB7DEB760E372E080E0E4
:104AF00090E00E94FB051FB7F89480918E0C811105
:104B000027C0EDECF3E08491EEE1F4E09491E82F1E
:104B1000F0E0EE0FFF1FEC59FC4FA591B491EC9122
:104B2000E92321F461E085E30E94350561E085E336
:104B30000E949A058CB580618CBD8CB580648CBD5B
:104B400061E084E30E949A0561E083E30E949A0594
:104B500080918E0C8F5F80938E0C1FBFEEEDF3E083
:104B6000E491F0E0EE0FFF1FE258FC4F8591949125
:104B700090938D0C80938C0CEFE2F4E0E491E09341
:104B80008B0C61E086E40E949A050E94941480E5F3
:104B900091E00E94ED0384E38093290D80E80E9458
:104BA000C01587DF882371F188E00E94C0157EDF81
:104BB000883041F580E10E94C01578DF803111F521
:104BC00080E00E94C01572DF182F81111BC08FE199
:104BD00090E02AD98330B1F480E480938F0C42E0D6
:104BE0006EE170E0812F0E94D21542E06FE170E02B
:104BF000812F0E94D2151F5F183089F781E08093C2
:104C0000720D5BC087E38093290D80E80E94C01578
:104C100050DF8823D9F088E00E94C01547DF883034
:104C2000A9F480E10E94C01541DF182F803171F492
:104C300080E00E94C0153ADF811108C089E390E04E
:104C4000F3D8843019F410938F0CD8CF83E380937A
:104C5000290D80E80E94C0152CDF882359F180E1DE
:104C60000E94C01523DF803129F582E10E94C01522
:104C70001DDF8231F9F480E00E94C01517DF811139
:104C800019C084E080938F0C15E51A8341E050E051
:104C9000BE016E5F7F4F8BE190E00E94B1141983DB
:104CA00041E050E0BE016F5F7F4F8AE190E00E94DB
:104CB000B114A4CF1092290D80E00F900F90DF91D6
:104CC000CF911F910895CF92DF92EF92FF92CF93F1
:104CD000DF93CDB7DEB7C254D1090FB6F894DEBF6B
:104CE0000FBECDBFFC014281538164817581239643
:104CF0004CAF5DAF6EAF7FAF239781E023968FAF50
:104D000023972396CCACDDACEEACFFAC2397CBAABB
:104D1000DCAAEDAAFEAA4DA75EA76FA778AB88AB69
:104D2000CDA4DEA4EFA4F8A8CFA2D8A6E9A6FAA63F
:104D30008EABCBA8DCA8EDA8FEA8C9A2DAA2EBA294
:104D4000FCA22BEF33E03C8B2B8B9FEF9D8B9E8B3C
:104D50009F8B188E3E872D878AA7CFA0D8A4E9A461
:104D6000FAA4CF86D88AE98AFA8A8CA389A19AA163
:104D7000ABA1BCA189879A87AB87BC873A8329837B
:104D80004B835C836D837E838091720D882309F44D
:104D900043C080E591E00E94ED0346E050E064E00E
:104DA00072E089E090E00E94B11444E050E0BE015E
:104DB0006D5F7F4F8FE090E00E94B11444E050E0BF
:104DC000BE01615F7F4F81E090E00E94B11444E03A
:104DD00050E0BE016B5E7F4F85E090E00E94B11411
:104DE00081E08C8789859A85AB85BC858093F40E9C
:104DF0009093F50EA093F60EB093F70ECE5BDF4FB7
:104E00000FB6F894DEBF0FBECDBFDF91CF91FF90FC
:104E1000EF90DF90CF90089561DE882379F3B9CFCA
:104E20000F931F93CF93DF938C018CE190E00E944E
:104E30005150EC018FEF9FEF9B838A831D821C8270
:104E40001F821E82188619861A861B8680E291EAC6
:104E5000A7E0B0E08C879D87AE87BF87188A198A44
:104E60001A8A1B8A8C8B9D8BAE8BBF8B8FEF90E049
:104E70009983888385EF92E0998F888F8CE090E00A
:104E80000E945150FC019B8F8A8F13861286D80195
:104E900012964D915D916D917C9115974683578344
:104EA000608771871382128211821082CE01DF9196
:104EB000CF911F910F9108950F931F93CF93DF937D
:104EC000EC018B0186E090E00E945150FC011183BF
:104ED000008381E090E093838283158214828A812B
:104EE0009B81892B69F0AC81BD811596FC93EE9373
:104EF0001497FD83EC83DF91CF911F910F9108955B
:104F0000FB83EA83F6CFCF93DF9300D000D0CDB7F9
:104F1000DEB746E0E3E0F6E09E012F5F3F4FD901A8
:104F200001900D924A95E1F742E34B839F938F9353
:104F30007F936F933F932F9386E39DE09F938F938F
:104F40000E9481520FB6F894DEBF0FBECDBF86E33C
:104F50009DE026960FB6F894DEBF0FBECDBFDF9161
:104F6000CF910895FB0101900020E9F73197AF013F
:104F7000461B570BDC01ED91FC910280F381E02D83
:104F800019948F929F92AF92BF92EF92FF920F93DC
:104F90001F93CF93DF93CDB7DEB7A1970FB6F894E9
:104FA000DEBF0FBECDBF7C01FA01CB0119A22230BA
:104FB00008F42AE08E010F5D1F4F822E912CB12C38
:104FC000A12CBF01A50194010E94574FF901CA010C
:104FD0006A3004F5605DD8016E938D01232B242B7C
:104FE000252B79F790E080E0109719F0BD01C701FB
:104FF000B9DFA1960FB6F894DEBF0FBECDBFDF912B
:10500000CF911F910F91FF90EF90BF90AF909F9025
:105010008F900895695CDFCFCF92DF92EF92FF927D
:105020000F931F93CF93DF936B01770FEE08FF0869
:10503000F7FE1EC0EC01E881F9810190F081E02DBE
:105040006DE219958C0144275527BA014C195D0969
:105050006E097F092AE0CE0194DF800F911FDF9156
:10506000CF911F910F91FF90EF90DF90CF90089517
:105070002AE0B701A601DF91CF911F910F91FF9018
:10508000EF90DF90CF907DCF8F929F92AF92BF92A3
:10509000CF92DF92EF92FF920F931F93CF93DF9304
:1050A0007C01EB016C0182E0C80ED11C4701E5E0F8
:1050B0008E0E911C10E000E0F60141916F0150E06E
:1050C00070E060E02AE0CE015CDF5C01E881F981FC
:1050D0000190F081E02D6EE2CE0119958A0D9B1DA5
:1050E000080F191FC814D90439F7F701458150E09A
:1050F00070E060E02AE0CE0144DF800F911FDF9175
:10510000CF911F910F91FF90EF90DF90CF90BF90C4
:10511000AF909F908F90089566E57CE023CF0F932A
:105120001F93CF93DF938C01D0E0C0E06115710530
:1051300011F018DFEC01C801EFDF8C0F9D1FDF912C
:10514000CF911F910F910895EF92FF920F931F93AC
:10515000CF93DF93FC010281138161EF70E083E75D
:105160009DE00E944006D0E0C0E00115110599F0D5
:105170006AEE70E083E79DE00E9440067E01FFEF4B
:10518000EF1AFF0ABE0183E79DE046DFF8010481C4
:105190001581E701EACF64EE70E083E79DE00E94AD
:1051A000400683E79DE0DF91CF911F910F91FF9023
:1051B000EF90B2CF6115710509F0D4CE90E080E098
:1051C0000895CF93DF93EB01BC0184E59FE00E943B
:1051D00040066EEB7AE084E59FE0ECDFBE0184E5FB
:1051E0009FE00E9440066EE677E084E59FE0DF9155
:1051F000CF910C944006CF93DF93EB01BC0184E583
:105200009FE00E9440066EEB7AE084E59FE0D2DFEB
:10521000BE0184E59FE0CEDF6BE677E084E59FE0AA
:10522000DF91CF910C944006CF92DF92EF92FF92E4
:105230000F931F93CF93DF9300D01F92CDB7DEB7AC
:105240008C016B017A0184E59FE00E94881F88230E
:1052500009F4B4C080914B108111B0C084E59FE087
:105260000E94881F882309F448C060E177E084E544
:105270009FE00E944006B80184E59FE0CDDE6EEE1F
:1052800079E084E59FE096DF64E076E0033921E091
:10529000120749F10CF0F9C064E876E00C3281E0C5
:1052A000180709F10CF0B0C06CED76E00A3C11056E
:1052B000D1F00CF090C060EF76E00536110599F062
:1052C00044F464E077E00436110569F06BE874E0BB
:1052D0000AC06DEE76E0083C110529F065EE76E037
:1052E000093C110599F784E59FE00E9440066DE0B6
:1052F00077E084E59FE00E94400684E59FE00E94FD
:10530000881F882329F06FE477E080E697E059DF73
:10531000C114D10421F489E0C82E86E0D82E84E59A
:105320009FE00E94881F882321F0B60182E497E065
:1053300062DFE114F10459F1809113069091140693
:10534000A0911506B091160689839A83AB83BC831E
:10535000A7011F921F925F93EF92CE0101969F9338
:105360008F9386E39DE09F938F930E94815284E503
:105370009FE00E94881F0FB6F894DEBF0FBECDBF1E
:10538000882329F066E37DE083E397E034DF84E55A
:105390009FE00E94881F882329F06DE177E083E277
:1053A00097E00FDF84E59FE00E94881F882331F09B
:1053B0006AE177E084E59FE00E9440060F900F903D
:1053C0000F900F90DF91CF911F910F91FF90EF9071
:1053D000DF90CF90089563EB76E00C3C110509F463
:1053E00082CF6EEB76E00C3C11050CF47CCF65EAC5
:1053F00076E00D3C110509F476CF65E976E00E3CC8
:10540000110509F470CF62CF6BE476E0013331E02F
:10541000130709F468CFE4F46CE676E00E3221E07D
:10542000120709F460CF62E776E00E3231E013072D
:105430000CF459CF62E676E00F3281E0180709F4E8
:1054400052CF65E576E00033114009F44CCF3ECFF2
:105450006CE276E0003931E0130709F444CF3CF404
:1054600068E376E00333114009F43DCF2FCF6FE1BD
:1054700076E0013931E0130709F435CF6EE076E0CC
:105480000239114009F42FCF21CF6EE575E00D39B7
:1054900021E0120709F427CF0CF040C069EA75E05B
:1054A000083981E0180709F41ECFE4F467EE75E0CF
:1054B000053931E0130709F416CF6AEF75E00539B5
:1054C00081E018070CF40FCF68ED75E0063921E094
:1054D000120709F408CF6AEB75E00739114009F4A7
:1054E00002CFF4CE6BE975E00A3981E0180709F4C0
:1054F000FACE60EA75E00A3921E012070CF4F3CE27
:105500006BE875E00B3931E0130709F4ECCE67E77F
:1055100075E00C39114009F4E6CED8CE68EE74E09F
:10552000043F21E0120709F4DECEE4F461E375E004
:105530000F3981E0180709F4D6CE68E475E00F3919
:1055400021E012070CF4CFCE61E175E0003A31E0C2
:10555000130709F4C8CE6EEF74E0013A114009F464
:10556000C2CEB4CE68EB74E0073F21E0120709F425
:10557000BACE74F468ED74E0053F81E0180709F4D1
:10558000B2CE6CEC74E0063F114009F4ACCE9ECE76
:1055900067EA74E0083F31E0130709F4A4CE6CE831
:1055A00074E0093F114009F49ECE90CE50E040E0F7
:1055B00070E060E039DE81E080934B100895CF9376
:1055C000DF93EC01FC0101900020E9F73197AF0176
:1055D000481B590B67E176E088EC90E025DE84E516
:1055E0009FE00E94881F882321F0BE0184E59FE090
:1055F000E1DD81E080934B1080934C1080934D103F
:10560000DF91CF910895CF92DF92EF92FF920F93A7
:105610001F93CF93DF936C018B017A018AE090E0B6
:105620000E945150EC01D982C88281E090E09B83B6
:105630008A831D821C821F821E82F986E886F801F9
:1056400001900020E9F7CF01801B910B0E9451507F
:105650009F838E83B8010E947A528091480F909167
:10566000490F892B99F0E0914A0FF0914B0FD583A8
:10567000C483D0934B0FC0934A0FDF91CF911F91FA
:105680000F91FF90EF90DF90CF900895D093490F46
:10569000C093480FEECFAF92BF92CF92DF92EF92BE
:1056A000FF921F93CF93DF935C01C0903110D09095
:1056B0003210CBE3D0E1F12CE12C10E0EC14FD042E
:1056C000BCF462E276E0888199810E947152892B54
:1056D00041F4B5018A819B810E94715221E0892B9E
:1056E00009F020E0122B8FEFE81AF80A2496E6CF93
:1056F000812FDF91CF911F91FF90EF90DF90CF909E
:10570000BF90AF9008950F931F93CF93DF938B01BA
:10571000FC01C281D381209771F06A817B81611580
:10572000710529F0C8010E947152892B21F009905E
:10573000D881C02DF0CFCE01DF91CF911F910F9175
:1057400008950F931F93CF93DF93EC018B0162E2D7
:1057500076E0D9DF009751F4CE010E94201B00971C
:1057600091F022E236E0FC013383228322E030E034
:10577000FC01358324831783068381E0DF91CF9179
:105780001F910F91089580E0F9CFEF92FF920F9350
:105790001F93CF93DF938C01EB017A01B4DF009765
:1057A00041F4C8010E94201B0097C9F0FC01D3837B
:1057B000C283F701408150E070E060E024E030E017
:1057C000FC0135832483468357836087718781E09A
:1057D000DF91CF911F910F91FF90EF90089580E09E
:1057E000F7CFEF92FF920F931F93CF93DF938C012C
:1057F000EB017A0188DF009741F4C8010E94201B69
:10580000009739F1FC01D383C283F70140815181B4
:1058100057FD15C0052E000C660B770B24E030E019
:10582000FC0135832483468357836087718781E039
:10583000DF91CF911F910F91FF90EF9008955195B7
:1058400041955109052E000C660B770B25E030E0E1
:10585000E7CF80E0EDCF8F929F92AF92BF92CF9231
:10586000DF92EF92FF920F931F93CF93DF937C0110
:105870004B016A015901E8011C161D064CF082EF2C
:105880009DE29093031180930211D0E0C0E05BC0D1
:1058900082E090E04230510514F481E090E08C9F6A
:1058A000B0018D9F700D9C9F700D1124F7018389AD
:1058B00094890E947651F701948B838B892BF9F29E
:1058C000B401828193810E94CC08F7010389148975
:1058D00082819381F2E0CF16D10409F442C023E023
:1058E000C216D10409F44CC0E1E0CE16D10481F017
:1058F000009719F486E190E0C4CF9E01A50161E014
:1059000070E0C13DF7E0DF076CF082EF9BE2B9CFBA
:10591000009781F39E01A50162E070E0C13DF7E0D0
:10592000DF079CF70E94000F019609F4AECFF70144
:105930001286D686C586D68BC58B108E178A128E98
:10594000118E148E138ECE01DF91CF911F910F9186
:10595000FF90EF90DF90CF90BF90AF909F908F908F
:105960000895009739F29E01A50163E070E0CE37FB
:10597000D1055CF60E94850E019609F486CFD7CF3B
:10598000009709F4B7CFCE37D1050CF0BECF9E01FA
:10599000A50164E070E0EECFEF92FF920F931F93AA
:1059A000CF93DF938C017B01DC011296CD91DC91CA
:1059B000209739F188819981E816F90671F4D801A8
:1059C0001296ED91FC911397CE17DF0771F48C813D
:1059D0009D8113969C938E931297CE010E94ED5059
:1059E0000C80DD81C02DE4CFFC013097B1F38481C0
:1059F0009581C817D907C1F72C813D813583248350
:105A0000F3CFDF91CF911F910F91FF90EF90089509
:105A1000CF93DF93EC018DEC93E0998388838C899D
:105A20009D89009711F00E94ED508E899F89009703
:105A300011F00E94ED50888D998D009711F00E9411
:105A4000ED508A8D9B8D009711F00E94ED508A8158
:105A50009B81009721F0DF91CF910C94A308DF91F7
:105A6000CF91089527ED33E0FC0131832083D0CF1F
:105A7000CF93DF93EC01F6DFCE01DF91CF910C9451
:105A8000ED5021EE33E0FC0131832083EBCF21E6A2
:105A900033E0FC0131832083BBCFCF93DF93EC0154
:105AA000F6DFCE01DF91CF910C94ED50CF93DF93D1
:105AB000EC018BE693E0998388838B899C8900971E
:105AC00011F00E94ED508A819B81009721F0DF91B7
:105AD000CF910C94A308DF91CF910895CF93DF93DA
