:100000000C9474040C94D72B0C94022C0C942D2C6F
:100010000C94582C0C94832C0C94AE2C0C94D92C4E
:100020000C94042D0C94A5040C94A5040C94A50424
:100030000C94A5040C94762B0C94A5040C94A504A4
:100040000C94A5040C94A5040C94A5040C94A5048C
:100050000C94A5040C94A5040C94A5040C942F2DC9
:100060000C94A5040C94FF250C943B260C94A50439
:100070000C94A5040C94A5040C94A5040C94A5045C
:100080000C94A5040C94A5040C94A5040C94A5044C
:100090000C94A8260C94E4260C94A5040C94A504B6
:1000A0000C94A5040C94A5040C94A5040C94A5042C
:1000B0000C94A5040C94A5040C94A5040C94A5041C
:1000C0000C94A5040C94A5040C94A5040C9451273D
:1000D0000C948D270C94A5040C94FA270C943628C4
:1000E0000C94A504ED09ED090C0A0C0A180A180A6B
:1000F000EA09180A180A180A180A180A180A180A1F
:10010000180A180A260A180A180A180A180A1B0ACE
:100110000C0AD90A070BDC0ADF0AE20AE50AE80A38
:10012000EB0A030BEE0AF10AF40AF70AFA0A030BC8
:10013000FD0A000B690C690C8E0C8E0CC50CC50CED
:10014000C50CC50CC50CC50CC50CC50CC50CC50C27
:100150009F0C9F0CBE0CC50CC50CC50CC50CC50C6A
:100160008E0C7D0F7D0F4C104C1025119D117B13B3
:100170004E154E154E154E154E154E154E15EF11CA
:100180008C1240134E154E154E154E159713FF1336
:10019000B02EB42E9E2EA42EAA2EF92EB82EBE2E30
:1001A000C42ECA2ED02ED62EDC2EE22EF92EE82E0C
:1001B000EE2EF42E2D582D584C594C593A5AF05ACF
:1001C000C65DC65DC65DC65DC65DC65DC65DC65D17
:1001D000735B8B5C0C94473D0C942A230C94E80AC7
:1001E0000C9439570C9465260C948D3B0C947C57D9
:1001F0000C94070B0C94F13D0C94FE230C943F38A7
:100200000C94735B0C94ED090C949E2E0C94743D2D
:100210000C94CC220C944A3A0C949F0C0C94FD370D
:100220000C94CC3E0C9475570C943A5A0C94013EA5
:100230000C9453070C94264A0C94243D0C94E7220A
:100240000C94453E0C9438070C94E20A0C94043844
:100250000C94DC540C94EB0A0C94DC2E0C94DC0A09
:100260000C94C5220C94FA040C94E3560C94673A4F
:100270000C94A8070C94A42E0C94180A0C94B12486
:100280000C94F40A0C94943B0C94F6370C947D0F68
:100290000C944E080C94091F0C945F560C94940512
:1002A0000C94DE3E0C949D110C94DF0A0C948C127D
:1002B0000C94A4060C9419070C94343B0C94CF08AE
:1002C0000C941C3A0C94C42E0C94030B0C94FE3921
:1002D0000C940D240C94B5560C94BE2E0C94490924
:1002E0000C9442520C9409380C94D62E0C94D23BA8
:1002F0000C9459520C9441080C94BE0C0C942A5E38
:100300000C94C5050C9458050C94E22E0C94260A06
:100310000C9496060C949E560C94F3540C948E0CEC
:100320000C9431050C9441240C9428050C94F10A8A
:100330000C9481070C947F1F0C947B130C94741FF6
:100340000C9400240C94563D0C9461230C94D02EF4
:100350000C94FA560C94BA070C94E74F0C940C3D8D
:100360000C94D0220C9422070C94153E0C94EF119F
:100370000C944C330C94D62B0C944C590C94E124D3
:100380000C94690C0C94FF130C94AA2E0C949507F2
:100390000C9405220C941B0A0C94D71F0C94DE1F9E
:1003A0000C9407380C94313F0C94F5230C945E1F89
:1003B0000C94E9390C9454290C94DF390C9440576F
:1003C0000C9414220C94E50A0C94CF220C94303D2A
:1003D0000C940E230C94651F0C9418270C94C50CD8
:1003E0000C942D580C94B82E0C94C5540C94283DA4
:1003F0000C9472280C94F4220C94EE0A0C94CF07FF
:100400000C9425110C944C100C946A380C941157D0
:100410000C94263A0C94E8040C9417380C94CA2EC9
:100420000C946F260C94053D0C9460280C94E82ED7
:100430000C94EA090C9487560C943A290C943706CC
:100440000C94CC560C94FA0A0C94B02E0C94E53211
:100450000C94143D0C94DA220C942F220C94EB5241
:100460000C946A280C942F240C946C1F0C94F05A52
:100470000C944B050C948C050C94C1270C946F3E86
:100480000C94C65D0C94F70A0C9411080C94F43883
:100490000C9448570C94FD0A0C94000B0C94F92E04
:1004A0000C9466560C942D380C94AA3B0C94EE2EAA
:1004B0000C94B42E0C94B7270C94F42E0C94F105E4
:1004C0000C941B240C940C0A0C942F390C94971345
:1004D0000C94011C0C94C8090C94A0070C94EB1B01
:1004E0000C94111F0C94303A0C94D90A0C944E15AC
:1004F0000C942C3D0C9401230C940C220C9440136E
:100500000C948B5C0C9420080C940E270C94A93C42
:100510000C9413380C94FB3D0C94D03A0C94CD07FA
:100520000C94463D0C94282300C0C101C30302C2B1
:10053000C60607C705C5C404CC0C0DCD0FCFCE0E23
:100540000ACACB0BC90908C8D81819D91BDBDA1A93
:100550001EDEDF1FDD1D1CDC14D4D515D71716D603
:10056000D21213D311D1D010F03031F133F3F23273
:1005700036F6F737F53534F43CFCFD3DFF3F3EFEE3
:10058000FA3A3BFB39F9F83828E8E929EB2B2AEA53
:10059000EE2E2FEF2DEDEC2CE42425E527E7E626C3
:1005A00022E2E323E12120E0A06061A163A3A26233
:1005B00066A6A767A56564A46CACAD6DAF6F6EAEA3
:1005C000AA6A6BAB69A9A86878B8B979BB7B7ABA13
:1005D000BE7E7FBF7DBDBC7CB47475B577B7B67683
:1005E00072B2B373B17170B05090915193535292F3
:1005F00096565797559594549C5C5D9D5F9F9E5E63
:100600005A9A9B5B99595898884849894B8B8A4AD2
:100610004E8E8F4F8D4D4C8C448485458747468642
:10062000824243834181804000C1814001C08041BA
:1006300001C0804100C1814001C0804100C18140B2
:1006400000C1814001C0804101C0804100C18140A2
:1006500000C1814001C0804100C1814001C0804192
:1006600001C0804100C1814001C0804100C1814082
:1006700000C1814001C0804100C1814001C0804172
:1006800001C0804100C1814000C1814001C0804162
:1006900001C0804100C1814001C0804100C1814052
:1006A00000C1814001C0804101C0804100C1814042
:1006B00000C1814001C0804100C1814001C0804132
:1006C00001C0804100C1814000C1814001C0804122
:1006D00001C0804100C1814001C0804100C1814012
:1006E00000C1814001C0804100C1814001C0804102
:1006F00001C0804100C1814001C0804100C18140F2
:1007000000C1814001C0804101C0804100C18140E1
:1007100000C1814001C0804100C1814001C08041D1
:1007200001C0804100C181400200000A0B02090C97
:100730000D0E080703040100000000000000000087
:1007400000000000000000000000000000000000A9
:100750000000000000121110000000000000000066
:100760000000000000000000000000000000000089
:10077000000000000000000000000102102020081E
:1007800008102040102040800201020108040201EC
:10079000010204081020408080402010080402015B
:1007A00080040201804020100804020108040201B4
:1007B000010204081020408001020408102040803B
:1007C00008400480804020102040100505050507E2
:1007D0000508080808020202020A0A0808040404BC
:1007E00004010101010101010103030303030303E8
:1007F00003040707070C0C0C0C0C0C0C0C02020277
:100800000206060606060606060B0B0B0B0B0B0B69
:100810000B0A050A0A050A0A0404040A000020005B
:100820002300260029002C002F00320000010000C8
:1008300003010601090100002200250028002B0009
:100840002E003100340002010000050108010B01F7
:1008500000002100240027002A002D003000330072
:1008600001010000040107010A01005EBCE2613FD2
:10087000DD83C29C7E20A3FD1F41009D23BE46DB7D
:1008800065F88C11AF32CA57E9742320636F6E6E1E
:10089000656374656420746F2000C8095E1FD71FEC
:1008A0000522C522F5236F261827C1276A283A2971
:1008B000E5324C33F6378D3B053D313F264AE74F55
:1008C00042525952EB52C554DC54F3545F5687568A
:1008D0009E56B556CC56E356FA56115739577557AA
:1008E0002A5E651FDE1F665611241FBECFEFD1E2C0
:1008F000DEBFCDBF00E00CBF1EE0A0E0B2E0E2EF43
:10090000FAEC00E00BBF02C007900D92AE3DB107BC
:10091000D9F723E1AEEDBEE001C01D92AB38B207BE
:10092000E1F714E0C1E7D4E000E006C02197010937
:10093000802FFE010E94D45FCD34D10780E00807EC
:10094000A9F70E9442290C9467650C940000FF925D
:100950000F931F93CF93DF93C62FD72FA62FB72FB9
:1009600060E070E029C08C010A0F1B1FFD01EC1B29
:10097000FD0BF695E795F695E795F695E795E20F69
:10098000F31FE081F0E0062E02C0F595E7950A948A
:10099000E2F7FF24F394E0FFF12CF801F0826F5F9F
:1009A0007F4F67707078772334F461507109686FF6
:1009B0007F6F6F5F7F4F1196FE01E40FF51FAE173B
:1009C000BF0788F2DF91CF911F910F91FF9008959B
:1009D000683F710530F4FC017183608380E090E032
:1009E000089586E190E09093801380937F138FEFBA
:1009F0009FEF0895FC012081FB012083FC0182818F
:100A0000FB01818382E090E00895CF93FC01CFEF5A
:100A10009FEFAB0141505109672B99F0DF0111960F
:100A2000E081E9272E2F30E0F901E85DF94F84914C
:100A30009C2F9827F901E85DFA4FC491BA01FD0196
:100A4000E8CF892F90E0982F88278C2BCF9108959D
:100A5000FB018081918102979183808380E090E007
:100A600008950F931F93CF93DF938C01EB010E94A6
:100A700005059E012F5F3F4FF801EC0FFD1F90838E
:100A8000F801E20FF31F8083CE010296DF91CF9130
:100A90001F910F910895CF93DF93EC018A8D9B8D69
:100AA0000E948E60CE010E948E60DF91CF910895EA
:100AB000FC01DB019C91DA012C91921739F1992309
:100AC00041F144815581452BC1F0E5E8F3E13481E2
:100AD00045811F929F931F922F938DE892E09F93E1
:100AE0008F934F933F930E9411628DB79EB70896E4
:100AF0000FB6F8949EBF0FBE8DBF83EF9BE290931D
:100B0000801380937F138FEF9FEF089580E090E034
:100B1000089580E090E0089589E29FE00E94F42A21
:100B2000BC0180E090E008950F931F93CF93DF9373
:100B3000EC010A8D1B8DF80186819781892B91F03C
:100B400041E0CE010E949315F801178216828C8134
:100B50009D81892B99F083EC92E00E94B96280E03C
:100B600090E00EC040E0CE010E949315009741F442
:100B700021E030E0F8013783268302C080E090E076
:100B8000DF91CF911F910F910895CF92DF92EF9255
:100B9000FF927B016A0189E29FE00E94EC2389E2D7
:100BA0009FE00E94B423E091290FF0912A0F028068
:100BB000F381E02DA601B70189E29FE019956C0150
:100BC000E12CF12C89E29FE00E94C72389E29FE09B
:100BD0000E94E323C701B601FF90EF90DF90CF9012
:100BE00008950F931F93F801DC018D919C918F3F25
:100BF000BFEF9B0711F40E94FC61808361835283E5
:100C000043833483258386E090E01F910F910895FC
:100C1000CF92DF92EF92FF920F931F93CF93DF93C8
:100C20006B017C018A018CE190E00E94F65FEC018F
:100C30000E94E00D83E393E0998F888F88E090E035
:100C40000E94F65FFC019B8F8A8FC082D182E28274
:100C5000F3821583048317821682CE01DF91CF9130
:100C60001F910F91FF90EF90DF90CF9008958F929A
:100C70009F92AF92BF92CF92DF92EF92FF920F932B
:100C80001F93CF93DF93FA0189013097C9F0208138
:100C9000318142815381A8EEB3E00E94EB5F6B018A
:100CA0007C01648175818681978128EE33E040E084
:100CB00050E00E94935FC20ED31EE41EF51E03C0D7
:100CC000C12CD12C76010E948A2D4B015C0189E256
:100CD0009FE00E94DA22EC01801791076CF40E94D9
:100CE0008A2DDC01CB0188199909AA09BB098C1549
:100CF0009D05AE05BF0558F3209749F484E790E0C1
:100D00009093801380937F138FEF9FEF02C08C2FFF
:100D10009D2FDF91CF911F910F91FF90EF90DF906A
:100D2000CF90BF90AF909F908F90089589E29FE001
:100D30000E94DA22892B29F089E29FE00E94F422A6
:100D4000F5CF80E090E00895EF92FF920F931F930C
:100D5000CF93DF937C01EB018A014881842F90E0DF
:100D6000F7012081318182179307D1F0892BC1F0DF
:100D700084819581009709F455C03F932F931F926A
:100D80004F938AED92E09F938F930E949F620F9002
:100D90000F900F900F900F900F9080E090E042C066
:100DA000B80162507109CE010E940505C00FD11F24
:100DB000FE013297208130E0322F2227219748818F
:100DC000242B8217930769F1F70144815581452B44
:100DD000C1F0E5E8F3E1448155819F938F933F9300
:100DE0002F9381E093E09F938F935F934F930E94A3
:100DF00011628DB79EB708960FB6F8949EBF0FBECE
:100E00008DBFF701868182FF03C0C7010E9496064D
:100E10008EEE9BE29093801380937F138FEF9FEF72
:100E200001C0C801DF91CF911F910F91FF90EF900A
:100E3000089589E29FE00E94EC2389E29FE00E94EE
:100E400061230895DC015A96ED91FC915B97248112
:100E50003581408151816281738189E29FE00E94E6
:100E60002A2389E29FE00E94E32380E090E0089536
:100E7000683F710530F4FC017183608380E090E08D
:100E800008956F3F710531F4FC017183608380E048
:100E900090E0089586E190E09093801380937F1313
:100EA0008FEF9FEF08950F931F93CF93DF93F80178
:100EB000EC01AA8DBB8DCD91DC911197CF3F7FEFD7
:100EC000D70729F021961196DC93CE9303C0119693
:100ED0001C921E9211967C91119770837C91718364
:100EE00012821382DC018C9186836783508741874D
:100EF000328723878CE090E0DF91CF911F910F9193
:100F00000895DC01FB0115968C911597808314964A
:100F10008C9114978183128213828C91868312960E
:100F20008C91878388E090E00895FC01208130E077
:100F3000322F22278181A901480F511DCA0108952E
:100F40009B0126503109FC0134832583CB01089590
:100F5000DC015A96ED91FC915B9782859385DC01CB
:100F6000ED91FC910280F381E02D1995BC0180E0A8
:100F700090E00895DC015A96ED91FC915B97828593
:100F80009385DC01ED91FC910288F389E02D1995A0
:100F9000BC01990F880B990B0895CA010895EF922F
:100FA000FF920F931F93CF93DF9300D000D0CDB764
:100FB000DEB7FC01A28DB38D1A968D919C911B9783
:100FC000FC0120813181F901E684F78412964D916C
:100FD0005C9113972DE53BE03A83298316960D919A
:100FE0001D912D913C9119970B831C832D833E837A
:100FF000BE016F5F7F4FF7011995892B19F48FEFB1
:101000009FEF02C080E090E026960FB6F894DEBF16
:101010000FBECDBFDF91CF911F910F91FF90EF9049
:101020000895DC015A96ED91FC915B97828593853A
:10103000DC01ED91FC910488F589E02D1995089566
:10104000CF93DF93DC015A96CD91DC915B978A8533
:101050009B85DC01ED91FC910084F185E02D1995D3
:10106000892B51F08A859B85DC01ED91FC910284EE
:10107000F385E02D1995EBCF80E090E0DF91CF91E3
:101080000895CF93DF93EC018A8D9B8D0E948E6033
:10109000CE010E948E60DF91CF9108956F927F9272
:1010A0008F929F92AF92BF92CF92DF92EF92FF9278
:1010B0000F931F93CF93DF93FA013901DC015A9606
:1010C0000D911C915B973097C9F02081318142814D
:1010D0005381A8EEB3E00E94EB5F6B017C01648159
:1010E00075818681978128EE33E040E050E00E94D0
:1010F000935FC20ED31EE41EF51E03C0C12CD12C7B
:1011000076010E948A2D4B015C01F801828593854E
:10111000DC01ED91FC910084F185E02D1995EC0145
:101120008615970504F50E948A2DDC01CB018819EC
:101130009909AA09BB098C159D05AE05BF0570F478
:10114000F80182859385DC01ED91FC910688F78991
:10115000E02D1995882321F081E003C080E001C0D3
:1011600080E08111D2CF209749F484E790E09093FA
:10117000801380937F138FEF9FEF02C08C2F9D2FE2
:10118000DF91CF911F910F91FF90EF90DF90CF9063
:10119000BF90AF909F908F907F906F900895CF9366
:1011A000DF93DC01FA01EB0128819081291304C04F
:1011B000498131814317B1F114964D915C91159796
:1011C000452B39F130E0322F2227DB0111968C912B
:1011D000280F311D892F90E0982F88274181840F97
:1011E000911DE5E8F3E1448155813F932F939F934F
:1011F0008F9389E593E09F938F935F934F930E9422
:101200001162CDB7DEB728960FB6F894DEBF0FBED9
:10121000CDBF8FEE9BE29093801380937F138FEF6F
:101220009FEF34C09281992361F12381222361F1E0
:1012300014964D915C911597452BD1F0892F90E034
:10124000982F8827820F911DE5E8F3E124813581ED
:101250009F938F938AE893E09F938F933F932F936D
:101260000E9411620F900F900F900F900F900F90AF
:101270008FEE9BE29093801380937F138FEF9FEF0D
:1012800005C080E090E002C080E090E0DF91CF9167
:10129000089540E00E94931508950F93019759F423
:1012A0006F3F7F4F41F400E020E040E060E08EEDD2
:1012B0009EE00E94B3280F910895892B49F486E19E
:1012C00090E09093801380937F138FEF9FEF0895AA
:1012D00080E090E00895009749F486E190E09093D3
:1012E000801380937F138FEF9FEF08956115710531
:1012F00049F486E190E09093801380937F138FEF01
:101300009FEF0895DC015A96ED91FC915B977387EE
:10131000628780E090E00895CF92DF92EF92FF9293
:101320000F931F93CF93DF936C017B018A018CE1B4
:1013300090E00E94F65FEC010E94E00D8FEF90E0DC
:101340009983888387EB93E0998F888F8CE090E076
:101350000E94F65FFC019B8F8A8FD386C286D701DD
:1013600012964D915D916D917C91159746835783AF
:10137000608771871383028311821082CE01DF910F
:10138000CF911F910F91FF90EF90DF90CF90089534
:101390006FEF7FEF81E090E00E944D090895CF93B9
:1013A000DF93EB01FC01A08DB18D12962D913C9144
:1013B0001397FB01E20FF31FE0814E2F50E0FA017B
:1013C0003197E731F105A0F58827EE58FF4F8F4F91
:1013D0000C94D45F83E090E030C0C20FD31F4B81E8
:1013E00050E0542F44278C81482BCA0155230CF41C
:1013F00007969595879595958795959587950296E6
:10140000BA016770772741E050E0672B11F440E0A4
:1014100050E0840F951F11C0C20FD31F8B8190E045
:10142000982F88274C81842B0196880F991F05C01F
:1014300085E090E002C087E090E0280F391F149605
:101440008D919C911597820F931F02C08FEF9FEF94
:10145000DF91CF910895611110C087309105F4F0AC
:101460009C012F50310922303105D0F08631910591
:10147000C9F04797C9F489E00895813191053CF49A
:101480008F3091053CF40597029730F403C04697DE
:1014900069F002C084E0089581E0089584E0089531
:1014A00085E0089586E0089580E0089586E0089537
:1014B000DC015896ED91FC91599782819381DB0173
:1014C000A80FB91F2C91A22FB0E0411115C02F30E9
:1014D00010F1213118F0273141F01DC0DB01A80FB8
:1014E000B91F15968C9190E01BC0DB01A80FB91FA6
:1014F00019968C9190E014C0A530B1052CF0A13163
:10150000B10511F0579751F4DB01A80FB91F1196DF
:101510008C9190E005C080E090E002C080E090E017
:1015200024813581820F931F08958D369105F9F03E
:101530004CF48530910569F186319105A9F0892B2C
:1015400029F50FC084379105C1F024F48F36910539
:1015500089F01CC08638910599F0823F9D4299F030
:1015600015C08DED93E008958FEE93E0089580E02F
:1015700094E0089587E194E008958AE294E0089564
:101580008FE394E008958DE494E0089587E694E075
:10159000089585EE93E008959C01FC01E35EFB4213
:1015A000E131F10580F58827E757FF4F8F4F0C9405
:1015B000D45F8FE694E0089585E994E0089588EA81
:1015C00094E0089587EC94E0089583ED94E0089505
:1015D00082EF94E0089587E095E008958BE195E02F
:1015E000089584E395E0089584E595E0089580E604
:1015F00095E008958DE695E0089584E895E00895D6
:1016000082E995E00895C9010E94950A089580E84D
:1016100094E00895CF93DF93FC0184819581892B19
:10162000D1F1EB0180917F13909180130E94CC0A3D
:10163000E5E8F3E1248135819F938F9384EB95E076
:101640009F938F933F932F930E9411620F900F905F
:101650000F900F900F900F902097A9F0E5E8F3E11D
:1016600024813581DF93CF9388EC9DE09F938F9306
:101670003F932F930E9411620F900F900F900F9045
:101680000F900F9008C06091891370918A138AE0BF
:1016900090E00E942162DF91CF910895CF93DF9374
:1016A000EC01288539854A855B85A8EEB3E00E9468
:1016B000EB5F0E94BC2D8C859D850E94F92DDF91EA
:1016C000CF9108950F931F93CF93DF93009749F421
:1016D00086E190E09093801380937F138FEF9FEFCC
:1016E00024C0EC01E88DF98D00A0F1A1E02D199541
:1016F0008C010F3F8FEF180799F08C819D81892B0A
:1017000091F01F930F938DEB95E09F938F930E9421
:101710009F620F900F900F900F90802F912F05C018
:10172000802F912F02C0802F912FDF91CF911F9199
:101730000F9108955F926F927F928F929F92AF92D6
:10174000BF92CF92DF92EF92FF920F931F93CF93AE
:10175000DF93EC018B016A014901E88DF98DE2808C
:10176000F3803A016E0C7F1CD3015C90A52CB12C48
:10177000028CF38DE02D309779F01995019661F484
:101780008E8182FF66C1CE010E944E0BCE010E9467
:10179000620B8FEF9FEF5FC1B801CE010E94CF09AE
:1017A000E0E8AE16B1040CF442C0E88DF98D8481F6
:1017B00095818E0D9F1D02968816990651F5F801A8
:1017C000EE0DFF1D208130E0D3018C9190E0805818
:1017D000910928173907E9F4F601EE0DFF1D818103
:1017E00090E08C3091053CF48E51944D9093801391
:1017F00080937F1306C080EF9BE2909380138093C9
:101800007F1360E070E0CE010E940A0B8FEF9FEF24
:1018100022C180EF9BE29093801380937F1360E05E
:1018200070E0CE010E940A0B8FEF9FEF14C1881663
:10183000990629F08F3FBFEF9B0709F0DCC0E0E875
:10184000AE16B1040CF0D7C0F801EE0DFF1D80817B
:10185000282F30E0A216B30671F12C813D81232B95
:10186000C1F0E5E8F3E1248135811F928F931F9247
:101870005F9281ED95E09F938F933F932F930E940A
:1018800011628DB79EB708960FB6F8949EBF0FBE33
:101890008DBF8E8182FF06C0CE010E944E0BCE010D
:1018A0000E94620B8FEE9BE29093801380937F13D4
:1018B0008FEF9FEFD0C0852D90E0FC013197E7318D
:1018C000F10508F062C08827E656FF4F8F4F0C9451
:1018D000D45FF801EE0DFF1D838190E0982F8827DB
:1018E0002481820F911D9C01992314F4295F3F4F9D
:1018F000359527953595279535952795877099279F
:1019000041E050E0892B11F440E050E0240F351FF6
:10191000F601EE0DFF1D818190E03BC0F801EE0D58
:10192000FF1D238130E0322F22278481280F311DB3
:10193000F601EE0DFF1D8181869590E02AC0C7015A
:101940000396F801E80FF91F208130E0322F22279B
:10195000A4E0EA0EF11CF801EE0DFF1D4081240FFA
:10196000311DF601E80FF91F808190E0982F88273C
:10197000F601EE0DFF1D4081842B0BC0F601EE0D2C
:10198000FF1D218130E0C90104C081E090E021E029
:1019900030E02817390709F45EC04C815D81452B82
:1019A000C1F0E5E8F3E1448155813F932F939F9384
:1019B0008F9384E196E09F938F935F934F930E9460
:1019C0001162EDB7FEB738960FB6F894FEBF0FBEA2
:1019D000EDBF8E8182FF06C0CE010E944E0BCE016C
:1019E0000E94620B8FEE9BE29093801380937F1393
:1019F0008FEF9FEF30C02C813D81232BC1F0E5E8B4
:101A0000F3E1248135819F938F939F928F928AE493
:101A100096E09F938F933F932F930E9411628DB70F
:101A20009EB708960FB6F8949EBF0FBE8DBF8E81ED
:101A300082FF06C0CE010E944E0BCE010E94620BB7
:101A40008FEE9BE29093801380937F138FEF9FEF35
:101A500002C08FEF9FEFDF91CF911F910F91FF9009
:101A6000EF90DF90CF90BF90AF909F908F907F903E
:101A70006F905F900895009749F486E190E090930D
:101A8000801380937F138FEF9FEF0895DC015896AA
:101A9000ED91FC9159970488F589E02D19950895E9
:101AA000DF92EF92FF920F931F93CF93DF93DB01AF
:101AB000E12CF12CC0E0D0E01DC0FC01EA0FFB1FBF
:101AC000E081F0E00C2E02C0EE0FFF1F0A94E2F757
:101AD000EE2AFF2AC730D10559F4F901E00FF11FB2
:101AE000E0820F5F1F4FE12CF12CC0E0D0E001C07D
:101AF00021961196FB01E40FF51FAE17BF07ECF21C
:101B0000CD2B31F0F901E00FF11FE0820F5F1F4F85
:101B1000C801DF91CF911F910F91FF90EF90DF905F
:101B20000895BF92CF92DF92EF92FF920F931F938F
:101B3000CF93DF93CDB7DEB7CD84DE84EF84F88812
:101B4000B9880B891C89D60114968D919C911597A3
:101B5000892B59F0AE01475E5F4F6F89788D809178
:101B6000891390918A130E94E9628D899E89892B3D
:101B700031F0C6010E944E0BC6010E94620BF701B4
:101B80008281938180589F4F93838283D601589698
:101B9000ED91FC9159970484F585E02DB801C701BA
:101BA0001995F801E80FF91FB0820196DF91CF91E6
:101BB0001F910F91FF90EF90DF90CF90BF9008950D
:101BC000FC018FEF9FEF9183808393838283158243
:101BD000148217821682108611861286138680E27E
:101BE00091EAA7E0B0E084879587A687B787108A37
:101BF000118A128A138A848B958BA68BB78B0895D2
:101C0000009749F486E190E09093801380937F13CE
:101C10008FEF9FEF0895DC015896ED91FC91599755
:101C20000084F185E02D19950895009749F486E127
:101C300090E09093801380937F138FEF9FEF089530
:101C400070E0FC017783668380E090E008950F9355
:101C50001F93009789F0411551056105710529F41D
:101C6000011511052105310539F00034E2E41E07A4
:101C7000EFE02E07310548F086E190E09093801365
:101C800080937F138FEF9FEF0BC0FC01408751873C
:101C900062877387048715872687378780E090E0FF
:101CA0001F910F910895009749F486E190E0909379
:101CB000801380937F138FEF9FEF0895DC01589678
:101CC000ED91FC915997048CF58DE02D19950895AF
:101CD000009749F0DC015896ED91FC915997068CDC
:101CE000F78DE02D19950895AF92BF92CF92DF92B4
:101CF000EF92FF920F931F93CF93DF93EC017B0141
:101D0000E88DF98D0088F189E02DBA01C701199598
:101D10008C018C819D81892BA9F41DC0F701EC0DEC
:101D2000FD1D80811F928F938EE896E09F938F9385
:101D30000E949F628FEFC81AD80A0F900F900F90E1
:101D40000F9002C0C12CD12CC016D1063CF38AE002
:101D500090E00E94B362E88DF98D0288F389E02D4E
:101D6000A801B701CE0119956B018FEFC816D806EF
:101D700029F560E070E0CE010E940A0B8E8181FFA0
:101D80001DC0A0907F13B090801382EFA8168DE243
:101D9000B80651F4CE010E94680ECE010E944E0B8F
:101DA000CE010E94530E06C0CE010E944E0BCE0102
:101DB0000E94620BB0928013A0927F138E8181FFEC
:101DC00004C08FEFC816D80631F21C141D0464F449
:101DD0000C151D0561F08FEE9BE2909380138093AC
:101DE0007F138FEF9FEF05C08C2D9D2D02C08C2D92
:101DF0009D2DDF91CF911F910F91FF90EF90DF907C
:101E0000CF90BF90AF9008952F923F924F925F92E4
:101E10006F927F928F929F92AF92BF92CF92DF92FA
:101E2000EF92FF920F931F93CF93DF93CDB7DEB75F
:101E3000C451D1400FB6F894DEBF0FBECDBFC55F11
:101E4000DE4F59834883CB50D140009749F486E157
:101E500090E09093801380937F138FEF9FEF49C69C
:101E600029017B013C01DC0158962D913C91599749
:101E7000F901A280B380C35FDE4FB982A882CD5042
:101E8000D140FB01EA0DFB1DCF010197DC01CC9095
:101E9000D12C3080832C912C018110E0102F002751
:101EA0008281080F111DCB5FDE4FD982C882C550D9
:101EB000D140C95FDE4F99828882C750D140D90195
:101EC0001E96ED91FC911F97BE01655F7E4FC70185
:101ED0001995C75FDE4F99838883C950D140832D00
:101EE00090E0FC013197E731F10508F0D7C588276C
:101EF000EF54FF4F8F4F0C94D45FB2E08B169104D8
:101F000021F4F2014681578105C0D20112964D910C
:101F10005C911397B2E08B16910421F4F201648175
:101F2000758103C0D2016D917C91B2E08B16910452
:101F300021F4F2014288538805C0D20150964D9099
:101F40005C905197B2E08B16910419F4E5E9F6E044
:101F500002C0E5EAF6E0AE0CBF1CD5011396EC908A
:101F60001397F12C9E2D882714962C917C01E20E5C
:101F7000F11C5801A41AB50AC50197012150310975
:101F8000203D374030F187E08F9380ED8F93FF93B2
:101F9000EF93FF92EF9283ED96E09F938F931F92C2
:101FA00081E08F93CE0101969F938F931F9283E0E0
:101FB0008F93CE018B5F9E4F9F938F937F926F92F3
:101FC0000E94910D5C010FB6F894DEBF0FBECDBF2D
:101FD00084C5992334F097012A0D3B1D62177307BE
:101FE0002CF5992314F00E0D1F1DFF93EF931F93F3
:101FF0000F938BEF96E09F938F931F921F92CE01CA
:1020000001969F938F931F9282E08F93CE018B5FF7
:102010009E4F9F938F937F926F920E94910D5C01D0
:102020000FB6F894DEBF0FBECDBF57C5D30158968B
:10203000ED91FC9159970484F585E02DBE016F5F09
:102040007F4FCE018B5F9E4F19958C010F5F1F4F05
:102050009701FF2014F4295F3F4F3595279535955B
:1020600027953595279561E0A70147705527452BA2
:1020700009F460E0E1E0F0E0EC0FFD1FE80FF91F6C
:10208000260F20839E012F5F3F4FA701B501C2019C
:102090000E94500D5C0121C5B4E08B16910421F41F
:1020A000F2014285538505C0D2011E964D915C9187
:1020B0001F97B4E08B16910431F4D2011896ED917C
:1020C000FC91199705C0D2011C96ED91FC911D97CA
:1020D000B4E08B16910431F4D20154964D905C908B
:1020E000559705C0D20156964D905C905797B4E035
:1020F0008B16910419F48FEA96E002C084EC96E006
:10210000D701AA0DBB1D13962C901397312C322C9E
:10211000222414962C91220E311C4801841A950A0F
:1021200074019101215031092D37310528F11F9299
:102130002DE72F939F938F933F922F9283ED96E0FD
:102140009F938F931F9281E08F93CE0101969F936F
:102150008F931F9283E08F93CE018B5F9E4F9F934F
:102160008F937F926F920E94910D5C010FB6F8944D
:10217000DEBF0FBECDBFB1C499202CF0820C931CE2
:10218000E815F9052CF5FF2014F0020D131D9F939F
:102190008F931F930F938BEF96E09F938F931F92D4
:1021A0001F92CE0101969F938F931F9282E08F938F
:1021B000CE018B5F9E4F9F938F937F926F920E9471
:1021C000910D5C010FB6F894DEBF0FBECDBF85C484
:1021D000D3015896ED91FC9159970484F585E02D33
:1021E000BE016F5F7F4FCE018B5F9E4F19955C01E3
:1021F000BFEFAB1ABB0AE1E0F0E0EC0FFD1FE80F08
:10220000F91F220C20821DC0F701EE0FFF1FE40D05
:10221000F51D8181A1E0B0E0AC0FBD1FAA0DBB1D73
:102220008C938081F501319621E030E02C0F3D1F29
:10223000E20FF31F32E0A30EB11C80834FEFE41ACC
:10224000F40AE814F90404F348C4D20112968D91FB
:102250009C911397A801481B590B2AF02D913C9192
:1022600042175307FCF01F930F938DE197E09F9364
:102270008F931F921F92CE0101969F938F931F926F
:1022800082E08F93CE018B5F9E4F9F938F937F92BF
:102290006F920E94910D5C010FB6F894DEBF0FBEE5
:1022A000CDBF1BC4F701EA0DFB1D838190E0982F81
:1022B00088272481820F911D8115FFEF9F0711F060
:1022C0000097D1F4D20150962D913C915197F9018C
:1022D000E40FF51F21E0892B09F420E02083C55F7E
:1022E000DE4FA880B980CB50D140A501B701CE0107
:1022F00001960E940162F1C31F930F939F938F93E6
:1023000086E497E09F938F931F921F92CE010196D0
:102310009F938F931F9283E08F93CE018B5F9E4F8D
:102320009F938F937F926F920E94910D5C010FB6E5
:10233000F894DEBF0FBECDBFD0C3D2011E968D91E3
:102340009C911F97F801E81BF90BCF013AF01C96FE
:102350004D915C911D97E417F507FCF01F930F93C7
:1023600084E897E09F938F931F921F92CE0101966E
:102370009F938F931F9282E08F93CE018B5F9E4F2E
:102380009F938F937F926F920E94910D5C010FB685
:10239000F894DEBF0FBECDBFA0C3F701EA0DFB1D51
:1023A000238130E0322F22274481240F311DD201B6
:1023B0005696ED91FC915797880F991FE80FF91FDA
:1023C00031832083C55FDE4FA880B980CB50D140D8
:1023D000A501B701CE0101960E9401627EC3F701FB
:1023E000EA0DFB1D438150E0542F44278481480FA0
:1023F000511DF20182819381B801681B790BCB01D9
:102400009A0121503109203B374020F187E08F931A
:1024100080EB8F935F934F9382EB97E09F938F9323
:102420001F9281E08F93CE0101969F938F931F920D
:1024300083E08F93CE018B5F9E4F9F938F937F920C
:102440006F920E94910D5C010FB6F894DEBF0FBE33
:10245000CDBF43C399234CF0D201ED91FC919A0179
:10246000260F371FE217F3071CF5992314F0040F0A
:10247000151F1F930F9386EE97E09F938F931F92E4
:102480001F92CE0101969F938F931F9282E08F93AC
:10249000CE018B5F9E4F9F938F937F926F920E948E
:1024A000910D5C010FB6F894DEBF0FBECDBF15C312
:1024B00095012A5F3F4F2E0D3F1DD20150968D9101
:1024C0009C9151970E94A704D3015896ED91FC91DD
:1024D00059970484F585E02DBE016F5F7F4FCE01D3
:1024E0008B5F9E4F1995E1E0F0E0EC0FFD1FE80FC8
:1024F000F91FD701A80FB91F2D913C911197318376
:10250000208312962D913C911397338322835C0193
:10251000B4E0AB0EB11CE1C2F701EA0DFB1D8381F3
:1025200090E0982F88272481820F911DF201268543
:102530003785B801621B730B9B01AC0141505109F7
:102540004B37510518F11F922BE72F939F938F93D1
:1025500080E198E09F938F931F9281E08F93CE014B
:1025600001969F938F931F9283E08F93CE018B5F91
:102570009E4F9F938F937F926F920E94910D5C016B
:102580000FB6F894DEBF0FBECDBFA7C2772344F0CD
:10259000680F791F44855585461757070CF043C0CF
:1025A000332314F0080F191F1F930F9389E498E049
:1025B0009F938F931F921F92CE0101969F938F93AB
:1025C0001F9282E08F93CE018B5F9E4F9F938F93DC
:1025D0007F926F920E94910D5C010FB6F894DEBF5E
:1025E0000FBECDBF7AC2F201A689B789C901880F93
:1025F000991FA80FB91FC35FDE4FE881F981CD5045
:10260000D140E40FF51FEE0DFF1D808190E0982F63
:102610008827E1818E0F911D8D939C932F5F3F4FF3
:102620004E5F5F4F02C046E050E026173707DCF2EE
:10263000D3015896ED91FC9159970484F585E02DCE
:10264000BE016F5F7F4FCE018B5F9E4F1995E1E01A
:10265000F0E0EC0FFD1FE80FF91FD701A80FB91F1D
:102660002D913C9111973183208312962D913C91AD
:102670001397338322835C01B4E0AB0EB11C2DC2EF
:10268000D3015896ED91FC9159970484F585E02D7E
:10269000BE016F5F7F4FCE018B5F9E4F1995DC01AE
:1026A0001196FC01329621E030E02C0F3D1FA20F65
:1026B000B31F24EB2C93DC01139641E050E04C0F48
:1026C0005D1FE40FF51F2FEF2083A40FB51F28E037
:1026D000E8E7F8E001900D922A95E1F75C015BE0F4
:1026E000A50EB11CE1E0F0E0EC0FFD1FE80FF91FB3
:1026F0008AE08083F2C1D30114968D919C91159745
:10270000892B61F02091891330918A1346E150E0C2
:1027100061E070E081E898E00E945D628DE690E003
:102720009093801380937F138FEF9FEFE2C1F201AC
:10273000868597859801281B390BC90199232CF0B0
:102740004485558524173507FCF01F930F9384E8C3
:1027500097E09F938F931F921F92CE0101969F93B4
:102760008F931F9282E08F93CE018B5F9E4F9F933A
:102770008F937F926F920E94910D5C010FB6F89437
:10278000DEBF0FBECDBFA9C10688F789E02D880F37
:10279000991FE80FF91F60817181AE0CBF1CD50134
:1027A00013968C91A82FB0E03A2F2227D5011496CA
:1027B0008C9114978901080F111D15964C9115974E
:1027C00050E0542F442716968C919A01280F311D02
:1027D000C90162277327D801A623B7238A279B271D
:1027E00091838083C55FDE4FA880B980CB50D140F4
:1027F000A501B701CE0101960E9401626EC1F701E9
:10280000EA0DFB1D8380912C982C88248481880EEE
:10281000911C458150E0542F44278681480F511D5B
:10282000878190E0982F88272085820F911DA185B0
:10283000B0E0F201668577859801261B370B1901F8
:10284000FA01E61BF70BC15FDE4FF983E883CF5037
:10285000D140BC01615071096937710568F41814E1
:10286000190454F46EE78616910434F4BC01660F23
:10287000771FA617B70741F11F922DE72F931F92DD
:1028800029E72F939F928F929F938F9388E998E0E7
:102890009F938F931F9281E08F93CE0101969F9318
:1028A0008F931F9283E08F93CE018B5F9E4F9F93F8
:1028B0008F937F926F920E94910D5C010FB6F894F6
:1028C000DEBF0FBECDBF09C133232CF1D401A20F4F
:1028D000B31FCF5EDE4FB983A883C151D140D2016F
:1028E0001C962D913C911D97CF5EDE4F68817981BA
:1028F000C151D1402617370774F0332064F0DC0152
:10290000AE0FBF1FCD5EDE4FB983A883C351D14048
:102910002A173B077CF5C15FDE4FE881F981CF5074
:10292000D140FF2314F0480F591F332014F0080D35
:10293000191D5F934F931F930F9384EE98E09F931D
:102940008F931F921F92CE0101969F938F931F9298
:1029500082E08F93CE018B5F9E4F9F938F937F92E8
:102960006F920E94910D5C010FB6F894DEBF0FBE0E
:10297000CDBFB3C0D3015896ED91FC915997048413
:10298000F585E02DBE016F5F7F4FCE018B5F9E4FBF
:1029900019955C01BFEFAB1ABB0AE1E0F0E0EC0F68
:1029A000FD1FE80FF91F880C80822AE030E032C05A
:1029B000D2015696ED91FC915797C15FDE4F888109
:1029C0009981CF50D140880F991FE80FF91FC35F3D
:1029D000DE4FA881B981CD50D140A20FB31FAE0DFB
:1029E000BF1D8C9190E0982F882711964C91840FF1
:1029F000911D91838083C15FDE4FE881F981CF50C3
:102A0000D1403196C15FDE4FF983E883CF50D1408A
:102A10002E5F3F4FC15FDE4F48815981CF50D1407B
:102A2000CD5EDE4F68817981C351D140461757078B
:102A30000CF4BECF29C0D2015696ED91FC91579768
:102A4000C101880F991FE80FF91F2181E1E0F0E033
:102A5000EC0FFD1FEA0DFB1D208356962D913C9136
:102A60005797F901E80FF91F8081F501319621E0B0
:102A700030E02C0F3D1FE20FF31F32E0A30EB11C1C
:102A800080834FEF241A340ACF5EDE4F688179814C
:102A9000C151D1402616370674F21FC01F923F92D3
:102AA00085E399E09F938F931F9281E08F939E011E
:102AB0002F5F3F4F3F932F931F928F93CE018B5FDA
:102AC0009E4F9F938F937F926F920E94910D5C0116
:102AD0000FB6F894DEBF0FBECDBFCD2841F0A501E3
:102AE000BE016F5F7F4FC3010E94740E02C080E081
:102AF00090E0CC5EDE4F0FB6F894DEBF0FBECDBFC8
:102B0000DF91CF911F910F91FF90EF90DF90CF90C9
:102B1000BF90AF909F908F907F906F905F904F90FD
:102B20003F902F9008952F923F924F925F926F9215
:102B30007F928F929F92AF92BF92CF92DF92EF924D
:102B4000FF920F931F93CF93DF93CDB7DEB72A97F2
:102B50000FB6F894DEBF0FBECDBF3C014B01242E53
:102B6000DC0114968D919C911597892B59F0411198
:102B700005C08AE599E00E94B96204C086E799E041
:102B80000E94B962D3015896ED91FC915997C28089
:102B9000D380BFEFCB1ADB0A2220B1F0F30180858E
:102BA0009185A285B3858B839C83AD83BE83848509
:102BB0009585A685B7858F839887A987BA872E01C3
:102BC000F3E04F0E511C02C0412C512C312CA12C92
:102BD000B12C0BC1D3015896ED91FC91599702A0ED
:102BE000F3A1E02D9601A201BE016F5F7F4FC301EB
:102BF0001995019641F564E979E0C3010E940A0B39
:102C0000F301868181FF0DC100917F131091801324
:102C10000437110539F4C3010E944E0BC3010E9411
:102C2000620B0AC0023FFDE21F0731F4C3010E949C
:102C3000680EC3010E94530E1093801300937F13FC
:102C40008FEF9FEFF6C0D3015896ED91FC91599705
:102C50000688F789E02DA601B4016A0D7B1DC3012A
:102C600019957B01672B49F482EF9DE290938013C5
:102C700080937F13EE24EA94FE2CBFEFEB16FB0645
:102C800031F56BE979E0C3010E940A0BF3018681FB
:102C900081FFCAC000917F1310918013023FFDE2B3
:102CA0001F0741F00F36110529F0023F2DE21207F0
:102CB00009F0BDC0C3010E94680EC3010E94530EFB
:102CC0001093801300937F138FEF9FEFB2C0D30157
:102CD00014968D919C911597892BB1F41AC0F5012A
:102CE000E00FF11FE80DF91D80811F928F9380EA9C
:102CF00099E09F938F930E949F620F5F1F4F0F90E9
:102D00000F900F900F9002C000E010E00E151F050D
:102D100034F3AE0CBF1CCE18DF0809F041C03320DD
:102D200021F0B1E03B16A9F03BC0D3015896ED91DC
:102D3000FC9159970280F381E02DE80DF91D808107
:102D4000622D90E00E942B0AC82ED12CC114D10410
:102D500009F5422DB401C3010E94580A6C01950186
:102D6000280F391FD3015896ED91FC915997868110
:102D70009781821793078CF48FEE9BE290938013D8
:102D800080937F1367EA79E0C3010E940A0B8FEFFB
:102D90009FEF4FC03324339403C06894332431F839
:102DA0001C141D0414F5F30180899189A289B3894B
:102DB0000097A105B10541F4448955896689778951
:102DC000452B462B472B89F08B839C83AD83BE8399
:102DD000F30184899589A689B7898F839887A98704
:102DE000BA872E01F3E04F0E511CC114D10409F033
:102DF000F1CED30114968D919C911597892B21F0DA
:102E00008AE090E00E94B362D3015896ED91FC9164
:102E10005997008CF18DE02DA501B401C3011995DE
:102E200008C08FEF9FEF05C08FEF9FEF02C08FEFBD
:102E30009FEF2A960FB6F894DEBF0FBECDBFDF918D
:102E4000CF911F910F91FF90EF90DF90CF90BF90A7
:102E5000AF909F908F907F906F905F904F903F903A
:102E60002F9008956F927F928F929F92AF92BF9210
:102E7000CF92DF92EF92FF920F931F93CF93DF9346
:102E8000CDB7DEB7C051D1400FB6F894DEBF0FBE4C
:102E9000CDBF4C0179016801DC015896ED91FC91A0
:102EA00059970284F385E02D8E010F5F1F4F19950E
:102EB000AC01B801C4010E94740E181619060CF07A
:102EC00058C041E0BE01635F7F4FC4010E9493156B
:102ED0008F3FBFEF9B0709F447C09C01AE01435FE2
:102EE0005F4FB801C4010E949A0B5C018F3F2FEF26
:102EF0009207E9F1D4015896ED91FC91599702811E
:102F000013810E5F1F4F38014C01800E911EE0E0CF
:102F1000F0E024C08DE090E08C0F9D1F860D971D82
:102F2000DC016C9170E081E090E010C0AF014F5F78
:102F30005F4FEC0DFD1D11E09C0126233723232B51
:102F400009F410E01083880F991FFA01882319F003
:102F5000EE15FF055CF3BFEF6B1A7B0A681479046A
:102F6000CCF28A2D9B2D05C08FEF9FEF02C08FEF13
:102F70009FEFC05FDE4F0FB6F894DEBF0FBECDBF30
:102F8000DF91CF911F910F91FF90EF90DF90CF9045
:102F9000BF90AF909F908F907F906F9008950F9308
:102FA0001F93CF93DF93009749F486E190E09093CD
:102FB000801380937F138FEF9FEF3BC08901EA015D
:102FC000AB01C13D27E0D20744F1FC01848195812A
:102FD000892BD1F0E5E8F3E12481358187E08F93F7
:102FE00080ED8F93DF93CF9385EB99E09F938F9341
:102FF0003F932F930E941162EDB7FEB738960FB63C
:10300000F894FEBF0FBEEDBF82EF9BE2909380135A
:1030100080937F138FEF9FEF0CC09E0161E070E003
:103020000E943217019619F48FEF9FEF02C08C2F88
:103030009D2FDF91CF911F910F9108950F931F93B3
:10304000CF93DF93009749F486E190E0909380134B
:1030500080937F138FEF9FEF3BC08901EA01AB01A3
:10306000C13D27E0D20744F1FC0184819581892B81
:10307000D1F0E5E8F3E12481358187E08F9380ED9D
:103080008F93DF93CF938EED99E09F938F933F9330
:103090002F930E941162EDB7FEB738960FB6F894E1
:1030A000FEBF0FBEEDBF82EF9BE290938013809333
:1030B0007F138FEF9FEF0CC09E0162E070E00E94D3
:1030C0003217019619F48FEF9FEF02C08C2F9D2FBE
:1030D000DF91CF911F910F910895AF92BF92CF9240
:1030E000DF92EF92FF920F931F93CF93DF93CDB7B1
:1030F000DEB7C051D1400FB6F894DEBF0FBECDBFD2
:103100005C0178012E37310534F1DC0114968D9184
:103110009C911597892BB1F0E5E8F3E14481558145
:103120001F928DE78F933F932F9382E19AE09F93B5
:103130008F935F934F930E9411620FB6F894DEBF96
:103140000FBECDBF82EF9BE29093801380937F13DD
:103150008FEF9FEF6BC0DC015896ED91FC91599772
:103160000284F385E02D8E010F5F1F4F1995AC018E
:10317000B801C5010E94740E9C01181619060CF0C6
:103180004EC041E0BE01635F7F4FC5010E949315B1
:103190008F3FBFEF9B0709F444C09C01AE01435F22
:1031A0005F4FB801C5010E949A0B6C010196E1F1D5
:1031B000D5015896ED91FC915997A280B38060E0BB
:1031C00070E027C0FB01EE0FFF1F87010E0F1F1FCE
:1031D000C50102968E0F9F1F2DE030E02C0F3D1F82
:1031E000820F931FDC012C9130E0322F2227A501A2
:1031F0004D5F5F4FE40FF51F8DE090E08C0F9D1F3A
:10320000E80FF91F8081282BD8012D933C936F5F25
:103210007F4F6C157D05B4F28C2D9D2D07C0932F2B
:1032200005C08FEF9FEF02C08FEF9FEFC05FDE4FB3
:103230000FB6F894DEBF0FBECDBFDF91CF911F91C7
:103240000F91FF90EF90DF90CF90BF90AF900895D7
:103250000F931F93009749F486E190E090938013B9
:1032600080937F138FEF9FEF31C089019A01AB01EB
:103270002E3731053CF1FC0184819581892BC9F001
:10328000E5E8F3E1448155811F928DE78F933F93E9
:103290002F9382E19AE09F938F935F934F930E94C5
:1032A00011628DB79EB708960FB6F8949EBF0FBEF9
:1032B0008DBF82EF9BE29093801380937F138FEFFB
:1032C0009FEF04C063E070E00E946D181F910F91A2
:1032D00008950F931F93009749F486E190E090932F
:1032E000801380937F138FEF9FEF2CC089019A0189
:1032F000AB012E37310514F1E5E8F3E14481558146
:103300001F928DE78F933F932F9380E49AE09F93D2
:103310008F935F934F930E94116282EF9BE2909391
:10332000801380937F138DB79EB708960FB6F894DD
:103330009EBF0FBE8DBF8FEF9FEF04C064E070E0B3
:103340000E946D181F910F910895EF92FF920F93B5
:103350001F93CF93DF93CDB7DEB7C051D1400FB6E7
:10336000F894DEBF0FBECDBF009749F486E190E030
:103370009093801380937F138FEF9FEF30C07C0179
:10338000DC015896ED91FC9159970284F385E02D6C
:103390008E010F5F1F4F1995AC01B801C7010E9444
:1033A000740E9C0118161906CCF441E0BE01635F4F
:1033B0007F4FC7010E9493158F3FBFEF9B0719F402
:1033C0008FEF9FEF0CC09C01AE01435F5F4FBE01CA
:1033D0006F5F7F4FC7010E949A0B01C0932FC05FA0
:1033E000DE4F0FB6F894DEBF0FBECDBFDF91CF9199
:1033F0001F910F91FF90EF900895009749F486E197
:1034000090E09093801380937F138FEF9FEF089548
:10341000452B19F020E03FEF02C020E030E0AB0187
:1034200065E070E00E94A5190895009749F486E1CF
:1034300090E09093801380937F138FEF9FEF089518
:103440009A01AB0166E070E00E94A51908956F92A1
:103450007F928F929F92AF92BF92CF92DF92EF9224
:10346000FF920F931F93CF93DF93CDB7DEB7C85072
:10347000D2400FB6F894DEBF0FBECDBF009749F41F
:1034800086E190E09093801380937F138FEF9FEFFE
:10349000C5C069017A01AB015C0121EBE21627E0AE
:1034A000F2063CF1DC0114968D919C911597892BC5
:1034B000B9F0E5E8F3E12481358187E08F9380EB73
:1034C0008F93FF92EF9284E79AE09F938F933F93BD
:1034D0002F930E9411620FB6F894DEBF0FBECDBFCE
:1034E00082EF9BE29093801380937F138FEF9FEF87
:1034F00095C0DC015896ED91FC9159970284F385B3
:10350000E02D8E010F5F1F4F97016FE070E019955E
:103510009701FF2014F4295F3F4F35952795359586
:1035200027953595279501E010E0A70147705527AD
:10353000452B11F400E010E0020F131FAC014F5FA8
:103540005F4FE1E0F0E0EC0FFD1FE80FF91F008393
:1035500080E090E060E070E0612C712C3BC0E1E025
:10356000F0E0EC0FFD1FE40FF51F108221E030E0CA
:1035700024C0BC016F5F7F4F8C0D9D1DDC018C91C1
:10358000882359F081E090E08C0F9D1F840F951FD8
:10359000DC019C90922A9C920CC081E090E08C0F00
:1035A0009D1F840F951FDC018C90922E9094982083
:1035B0009C92220F331FCB01BF01222331F0FB016C
:1035C00031966E157F05ACF2BF014F5F5F4FBFEFC5
:1035D0006B1A7B0A6016710614F2BE016F5F7F4F93
:1035E000C5010E94740E18161906C4F441E0BE010C
:1035F0006B5F7E4FC5010E9493158F3FEFEF9E07D3
:1036000019F48FEF9FEF0AC09C01AE014B5F5E4F34
:10361000BE016F5F7F4FC5010E949A0BC85FDD4FEF
:103620000FB6F894DEBF0FBECDBFDF91CF911F91D3
:103630000F91FF90EF90DF90CF90BF90AF909F9051
:103640008F907F906F900895AF92BF92CF92DF924C
:10365000EF92FF920F931F93CF93DF93CDB7DEB717
:10366000C850D2400FB6F894DEBF0FBECDBF009752
:1036700049F486E190E09093801380937F138FEF5D
:103680009FEF8BC069017A01AB015C012CE7E21668
:10369000F10434F1DC0114968D919C911597892BDE
:1036A000B1F0E5E8F3E1248135811F928BE78F9338
:1036B000FF92EF928BE99AE09F938F933F932F9322
:1036C0000E9411620FB6F894DEBF0FBECDBF82EF2D
:1036D0009BE29093801380937F138FEF9FEF5DC0E9
:1036E000DC015896ED91FC9159970284F385E02D09
:1036F0008E010F5F1F4F970160E170E01995AC01DB
:103700004F5F5F4FF801E80FF91F9701220F331F3A
:10371000208380E090E01AC0FC01EE0FFF1FEC0D4B
:10372000FD1D2181A1E0B0E0AC0FBD1FA40FB51FAE
:103730002C932081FA01319661E070E06C0F7D1FBF
:10374000E60FF71F4E5F5F4F208301968E159F0592
:103750001CF3BE016F5F7F4FC5010E94740E9C0178
:1037600018161906CCF441E0BE016B5F7E4FC5010F
:103770000E9493158F3F7FEF970719F48FEF9FEF0C
:103780000CC09C01AE014B5F5E4FBE016F5F7F4F6F
:10379000C5010E949A0B01C0932FC85FDD4F0FB681
:1037A000F894DEBF0FBECDBFDF91CF911F910F9177
:1037B000FF90EF90DF90CF90BF90AF90089500976B
:1037C00049F0DC015896ED91FC91599704A0F5A1C0
:1037D000E02D19950895CF93DF93EC0183E09BE0F2
:1037E000998388838B899C89009711F00E948E6051
:1037F0008A819B81009711F00E94DF1BDF91CF919E
:103800000895CF93DF93EC010E94EB1BCE010E9441
:103810005129DF91CF910895FC0183E09BE09183D2
:103820008083138212824483558366837783118653
:1038300010861286148A138A168A158A108E178AA1
:10384000128E118E148E138E0895CF93DF93EC0198
:103850008B899C89009721F00E948E601C8A1B8AAC
:103860008A819B81009741F00E94680E8A819B812A
:103870000E94DF1B1B821A82DF91CF910895EF9285
:10388000FF921F93CF93DF93EC017A01122F8A816D
:103890009B810E94000E412F50E0B7018A819B81DD
:1038A0000E94FD1999231CF480E090E002C081E0A1
:1038B00090E0DF91CF911F91FF90EF900895EF92EC
:1038C000FF920F931F93CF93DF93EC018A0179014D
:1038D0008A819B810E94000EA701B8018A819B8189
:1038E0000E94151A99231CF480E090E002C081E048
:1038F00090E0DF91CF911F910F91FF90EF9008958D
:103900008F929F92AF92BF92CF92DF92EF92FF92EF
:103910000F931F93CF93DF934115510519F0423058
:10392000510519F4101611064CF082EF9DE29093A8
:10393000801380937F1380E090E03EC041155105D5
:1039400019F4E1E0F0E002C0E2E0F0E079014A01C0
:103950006B01EC010E9F50010F9FB00C1E9FB00C2D
:103960001124B5018B899C890E9417619C8B8B8BDC
:10397000009749F482EF9DE29093801380937F1328
:1039800080E090E019C0A50160E070E00E940A624A
:1039900081E08A87DC86CB869E868D86F88AEF86D4
:1039A0001A8B098B1E8A1D8A188E1F8A1A8F098FFF
:1039B0001C8E1B8E81E090E0DF91CF911F910F91C3
:1039C000FF90EF90DF90CF90BF90AF909F908F903F
:1039D0000895FC0182858823C9F1818D928D181686
:1039E0001906BCF585859685009719F00297B1F008
:1039F00033C023893489838D948DAC014F5F5F4F31
:103A0000548F438FD901A80FB91F6C93818D928D6C
:103A10000197928F818F81E090E00895A389B48906
:103A2000838D948D9C012F5F3F4F348F238F880FA0
:103A3000991FA80FB91F6C9311967C93818D928D5D
:103A40000197928F818F81E090E0089580E090E06F
:103A5000089580E090E0089580E090E00895CF938D
:103A6000DF93FC012285222399F1EC0163857485A3
:103A7000828193810E94000E8D859E85009719F0AA
:103A8000029761F028C02B893C8949895A896F8542
:103A900078898A819B810E94271A0AC02B893C89D8
:103AA00049895A896F8578898A819B810E94241B64
:103AB0001A861E8A1D8A188E1F8A1A8E198E1C8ECF
:103AC0001B8E892F8095881F8827881F90E005C04E
:103AD00080E090E002C080E090E0DF91CF91089517
:103AE000AF92BF92CF92DF92EF92FF920F931F930C
:103AF000CF93DF934430510518F4101611064CF0A3
:103B000082EF9DE29093801380937F1380E090E09A
:103B100073C04230510518F4E1E0F0E002C0E2E089
:103B2000F0E069015A017B01EC010E9FB0010F9F8B
:103B3000700D1E9F700D11248B899C890E94176146
:103B40009C8B8B8B892B49F482EF9DE290938013A1
:103B500080937F1380E090E04FC0B7018A819B8102
:103B60000E94000E21E0A216B104B9F024F4A114C1
:103B7000B10451F02DC022E0A216B104B9F083E0E7
:103B8000A816B104E1F024C02B893C89A801B60134
:103B90008A819B810E94CF171DC02B893C89A80177
:103BA000B6018A819B810E941E1814C02B893C8912
:103BB000A801B6018A819B810E9428190BC02B891C
:103BC0003C89A801B6018A819B810E94691902C0C3
:103BD0008FEF9FEF019671F01A86BE86AD861E8B21
:103BE0000D8B188E1F8A1A8E198E1C8E1B8E802F9D
:103BF000912F02C080E090E0DF91CF911F910F9153
:103C0000FF90EF90DF90CF90BF90AF900895FC01B0
:103C10008589968918161906CCF5258536853323AE
:103C2000FCF02230310524F02430310564F018C056
:103C3000A389B4892789308DA20FB31F4C9150E01E
:103C400060E070E010C023893489A789B08DAA0F85
:103C5000BB1FA20FB31F4D915C9160E070E003C0E9
:103C60004FEF5FEFBA014F3F2FEF52076207720726
:103C700091F00197968B858B8789908D0196908F17
:103C8000878B342F252F862F972F09C03FEF2FEFDB
:103C90008FEF9FEF04C0342F252F862F972F632F90
:103CA000722F089580917F1390918013009719F0DF
:103CB0000E94CC0A089580E090E00895CF92DF92B0
:103CC000EF92FF920F931F93CF93DF93FC014483F6
:103CD000558366837783C281D3812097B9F0CB0166
:103CE000BA0128EE33E040E050E00E94935F6901A2
:103CF0007A019B01AC01A8EEB3E00E94EB5F8B015F
:103D00009C01B701A601CE010E94270EDF91CF9141
:103D10001F910F91FF90EF90DF90CF900895EF9259
:103D2000FF920F931F93CF93DF93EC018B017A01E6
:103D30000E94251C1B830A83F986E886011511055C
:103D400031F1C8010E94530E892B49F08A819B8171
:103D50000E94DF1B1B821A8280E090E01AC01A8644
:103D60001E8A1D8A188E1F8A1A8E198E1C8E1B8E13
:103D700064E08A819B810E94150E4C815D816E8179
:103D80007F81CE010E945E1E81E090E002C080E053
:103D900090E0DF91CF911F910F91FF90EF900895E8
:103DA000CF93DF93262F372F2430310518F41416C4
:103DB00015064CF082EF9DE29093801380937F1361
:103DC00080E090E023C02230310518F421E030E09B
:103DD00002C022E030E0EC01429FB001439F700D31
:103DE000529F700D11248B899C890E9417619C8BB6
:103DF0008B8B892B49F482EF9DE290938013809303
:103E00007F1380E090E002C081E090E0DF91CF91ED
:103E100008952BE03BE0FC01318320830E94EB1BE3
:103E20000895CF93DF93EC010E94091FCE010E94F9
:103E30005129DF91CF910895CF93DF93EC0148EEA4
:103E400053E060E070E00E940C1C8BE09BE09983E3
:103E50008883DF91CF9108950F931F93CF93DF93C2
:103E6000EC018B01019739F46F3F7F4F21F484EE11
:103E70009EE00E941C1FCD2B39F40F3F1F4F21F4F1
:103E800084EE9EE00E94091FDF91CF911F910F9158
:103E90000895CF93DF93EC01CB01BA01A9010E94F1
:103EA000080640E050E0BC01CE010E948F1E009742
:103EB00011F081E090E0DF91CF9108956FEF7FEFF7
:103EC00081E090E00E942C1F08956FEF7FEF80E06B
:103ED00090E00E942C1F089523E13BE0FC01318318
:103EE00020830E94F71F0895CF93DF93EC010E9477
:103EF0006C1FCE010E945129DF91CF9108950F933D
:103F00001F93CF93DF93CDB7DEB7DA950FB6F89452
:103F1000DEBF0FBECDBF8C01BE016F5F7F4FFC01C6
:103F2000828193810E943B0D1816190664F4980152
:103F30002C5F3F4FAC01BE016F5F7F4FF801828164
:103F400093810E94040FD3950FB6F894DEBF0FBE85
:103F5000CDBFDF91CF911F910F910895CF93DF9344
:103F6000EC010E94E51F83E19BE099838883DF9148
:103F7000CF9108950F931F93CF93DF93EC018B01A3
:103F8000019739F46F3F7F4F21F481E09FE00E9459
:103F9000AE1FCD2B39F40F3F1F4F21F481E09FE07E
:103FA0000E946C1FDF91CF911F910F9108956FEFC9
:103FB0007FEF81E090E00E94BA1F08956FEF7FEFDE
:103FC00080E090E00E94BA1F08952DE13BE0DC0103
:103FD00011963C932E9313961C921E921297FC01FD
:103FE000349628E1DF011D922A95E9F70895CF93D1
:103FF000DF93EC018DE19BE0998388838C899D8917
:10400000009711F00E948E608E899F89009711F0B1
:104010000E948E60888D998D009711F00E948E60AD
:104020008A8D9B8D009711F00E948E608A819B8102
:10403000009711F00E94DF1BDF91CF910895EF925E
:10404000FF920F931F93CF93DF9377231CF01416E7
:1040500015064CF082EF9DE29093801380937F13BE
:104060008FEF9FEF1EC08A017B01EC01BA018C89A2
:104070009D890E9417619D8B8C8B009739F41F825C
:104080001E821D821C8280E090E00BC0A80160E0CF
:1040900070E00E940A62FF82EE821D830C8381E041
:1040A00090E0DF91CF911F910F91FF90EF900895D5
:1040B000CF92DF92EF92FF920F931F93CF93DF93F4
:1040C00077231CF0141615064CF082EF9DE29093B6
:1040D000801380937F138FEF9FEF21C08A017B01B4
:1040E000EC016A01CC0CDD1CB6018A8D9B8D0E940F
:1040F00017619B8F8A8F009739F41B8A1A8A198A55
:10410000188A80E090E00BC0A60160E070E00E9499
:104110000A62FB8AEA8A198B088B81E090E0DF91C2
:10412000CF911F910F91FF90EF90DF90CF90089566
:10413000CF92DF92EF92FF920F931F93CF93DF9373
:1041400077231CF0141615064CF082EF9DE2909335
:10415000801380937F138FEF9FEF21C08A017B0133
:10416000EC016A01CC0CDD1CB601888D998D0E9492
:104170001761998F888F009739F41F861E861D86D8
:104180001C8680E090E00BC0A60160E070E00E9419
:104190000A62FF86EE861D870C8781E090E0DF9142
:1041A000CF911F910F91FF90EF90DF90CF900895E6
:1041B000FC01268137816217730754F08481958151
:1041C000820F931FAB014F5F5F4F841795074CF42D
:1041D00084EE9BE29093801380937F138FEF9FEF89
:1041E00008950488F589E02D621B730BE60FF71F15
:1041F000808190E00895FC0122893389621773075A
:1042000054F080899189820F931FAB014F5F5F4FFC
:104210008417950754F484EE9BE290938013809367
:104220007F136FEF7FEFCB010895028CF38DE02DAC
:10423000621B730B660F771FE60FF71F608171819A
:1042400080E090E00895DC0116962D913C9117973F
:10425000621773075CF01496ED91FC911597E20FCD
:10426000F31FDB011196EA17FB074CF484EE9BE287
:104270009093801380937F1380E090E00895DC0199
:104280005496ED91FC915597621B730BE60FF71F47
:10429000408381E090E00895DC0152962D913C919D
:1042A0005397621773075CF05096ED91FC9151970C
:1042B000E20FF31FDB011196EA17FB074CF484EEC3
:1042C0009BE29093801380937F1380E090E00895A9
:1042D000DC015A96ED91FC915B97621B730B660FA4
:1042E000771FE60FF71F5183408381E090E0089528
:1042F000DC011E962D913C911F97621773075CF0AD
:104300001C96ED91FC911D97E20FF31FDB011196B6
:10431000EA17FB074CF484EE9BE2909380138093A2
:104320007F1380E090E00895DC015896ED91FC91B8
:104330005997621B730B660F771FE60FF71F5183A8
:10434000408381E090E00895CF93DF93EC018C8966
:104350009D89009711F00E948E608E899F89009739
:1043600011F00E948E60888D998D009711F00E9447
:104370008E608A8D9B8D009711F00E948E6088E17F
:10438000FE013496DF011D928A95E9F78A819B81AF
:10439000009741F00E94680E8A819B810E94DF1B7A
:1043A0001B821A82DF91CF910895EF92FF920F93B3
:1043B0001F93CF93DF938C01EB017A010E94A4211C
:1043C000F801D383C283209739F0B701CE010E9450
:1043D000000E81E090E002C080E090E0DF91CF919C
:1043E0001F910F91FF90EF9008950F93019759F44B
:1043F0006F3F7F4F41F400E020E040E060E08DE15E
:104400009FE00E94B3280F9108956FEF7FEF81E046
:1044100090E00E94F521089527E23BE0FC01318302
:1044200020830E94F71F0895CF93DF93EC010E9431
:104430000C22CE010E945129DF91CF9108950F9354
:10444000019759F46F3F7F4F41F400E020E040E0D6
:1044500060E083E29FE00E94B3280F9108950F93DC
:104460001F93CF93DF93CDB7DEB7C450D1400FB6C3
:10447000F894DEBF0FBECDBFFC01248D358D232BFC
:10448000B9F08C01BE016F5F7F4F828193810E94E2
:104490003B0D1816190664F498012C5F3F4FAC01D0
:1044A000BE016F5F7F4FF801828193810E94040FEC
:1044B000CC5FDE4F0FB6F894DEBF0FBECDBFDF91ED
:1044C000CF911F910F910895CF93DF93EC010E943C
:1044D000E51F87E29BE0998388831D8E1C8EDF9108
:1044E000CF910895CF92DF92EF92FF920F931F9397
:1044F000CF93DF9300D000D0CDB7DEB77C016B0146
:1045000000E020E040E060E0CE0101960E94B32888
:1045100040E050E0BE016F5F7F4F80E090E00E947E
:104520008C098C01A601BC01C7010E94D52100970E
:1045300051F0C8010E945D09892B19F080E090E0DC
:1045400002C081E090E026960FB6F894DEBF0FBE61
:10455000CDBFDF91CF911F910F91FF90EF90DF9032
:10456000CF9008950F931F93CF93DF93EC018B01AE
:104570008A819B810E946B09892B11F41D8F0C8FFE
:10458000DF91CF911F910F9108956FEF7FEF81E041
:1045900090E00E941F22089580E090E00895089521
:1045A000DC01ED91FC910088F189E02D26E030E0FE
:1045B00019950895DC011C968D919C911D97DC0145
:1045C000ED91FC910084F185E02D19950895DC01B1
:1045D0001C968D919C911D97DC01ED91FC910484BA
:1045E000F585E02D19950895DC011C968D919C911F
:1045F0001D97DC01ED91FC910284F385E02D199566
:104600000895DC011C968D919C911D97DC01ED9124
:10461000FC910680F781E02D19950895DC015496F0
:104620002C915497211109C021E030E013963C935E
:104630002E93129780E090E00895FC018485958583
:10464000DC01ED91FC910190F081E02D1995089528
:1046500081E00895CF92DF92EF92FF921F93CF9364
:10466000DF93EC016A017B01122F4D8B5E8B6F8B08
:10467000788F298F3A8F8889998999233CF061E056
:104680000E94FA2E60E088890E94392F8A899B89CE
:1046900099233CF061E00E94FA2E61E08A890E9431
:1046A000392F1C8A212FB701A6018C859D850E9478
:1046B0004525DF91CF911F91FF90EF90DF90CF9034
:1046C0000895CF93DF93EC018C859D850E94AB25E7
:1046D0008A899B8999233CF060E00E94392F60E031
:1046E00088890E94FA2E8889998999233CF060E094
:1046F0000E94392F60E08A890E94FA2EDF91CF91C3
:1047000008950F931F93FC011382128288EE93E0A9
:10471000A0E0B0E084839583A683B78381E39BE028
:10472000918380837587648757874687318B208B79
:10473000138B028B148A1F910F9108950F931F936F
:10474000019779F46F3F7F4F61F40CE410E02BE4A4
:1047500030E04EE050E06BE171E189E29FE00E94C1
:1047600081231F910F910895CF93DF93EC018889E6
:10477000998999233CF061E00E94392F82E390E00F
:104780000E94F92D81E08C8BDF91CF910895CF931A
:10479000DF93EC018C859D85DC01ED91FC91068019
:1047A000F781E02D199588899989992344F082E34E
:1047B00090E00E94F92D60E088890E94392F1C8AC0
:1047C000DF91CF910895FC018289938999231CF090
:1047D00060E00E94392F0895FC0182899389992312
:1047E0001CF061E00E94392F08956FEF7FEF81E0A8
:1047F00090E00E949E2308950E94FC610E94FC2389
:10480000FC01218D30E0205C3F4F828DA901481BC7
:104810005109CA018F7399270895FC01918D828DEA
:10482000981731F0828DE80FF11D858D90E0089585
:104830008FEF9FEF0895FC01918D828D981761F0A5
:10484000828DDF01A80FB11D5D968C91928D9F5FC7
:104850009F73928F90E008958FEF9FEF0895FC0172
:10486000238D348D231738F08FE390E0821B91095C
:10487000830F911D0895832F90E0821B910901976A
:10488000089585E696E2892B39F080E090E0892B47
:1048900029F00E94652603C080E001C080E08111FC
:1048A0000E9400008EE097E2892B39F080E090E0D2
:1048B000892B29F00E940E2703C080E001C080E010
:1048C00081110E94000087EB97E2892B39F080E08C
:1048D00090E0892B29F00E94B72703C080E001C037
:1048E00080E081110E94000080E698E2892B39F077
:1048F00080E090E0892B29F00E94602803C080E0CE
:1049000001C080E081110E9400000895FC01848DA7
:10491000DF01A80FB11DA35ABF4F8C91248D30E049
:104920002F5F3F4F2F733078332334F421503109F8
:10493000206C3F6F2F5F3F4F248FA689B7898C93E0
:10494000A089B1898C91837080648C93938D848DC0
:10495000981306C00288F389E02D80818F7D8083C3
:1049600008951F93CF93DF93EC01188D112329F144
:10497000EA89FB89808185FD07C0A889B9898C9166
:1049800086FD04C0812F03C0812F01C080E08823F1
:10499000A1F00FB607FC05C0908195FD03C080E033
:1049A00001C080E0882321F3E889F989808185FFAF
:1049B000DFCFCE010E948624DBCFDF91CF911F9104
:1049C00008950F931F93CF93DF93EC0181E0888FBD
:1049D0009B8D8C8D981307C0E889F989808185FDAE
:1049E00004C080E003C080E001C081E0882391F032
:1049F0008FB7F89491E0992359F0EE89FF8960838D
:104A0000E889F989908193709064908390E0F3CF66
:104A10008FBF34C02B8D30E02F5F3F4F2F73307826
:104A2000332334F421503109206C3F6F2F5F3F4F07
:104A3000162F022F8C8D08130CC00FB607FCFACF6F
:104A4000E889F989808185FFF5CFCE010E9486240F
:104A5000F1CF8B8DFE01E80FF11DE35AFF4F10835C
:104A60009FB7F89481E0882341F00B8FEA89FB8996
:104A700080818062808380E0F6CF9FBF81E090E0FC
:104A8000DF91CF911F910F910895CF92DF92EF9216
:104A9000FF921F93CF93DF93EC016A017B01122FEA
:104AA00060E079E08DE390E0A70196010E94935FBA
:104AB000DA01C9010197A109B109B695A7959795A2
:104AC00087959C01E889F98982E08083C11481EE91
:104AD000D806E104F10421F0211580E13807A8F09F
:104AE000E889F989108260E874E88EE190E0A70116
:104AF00096010E94935FDA01C9010197A109B109EA
:104B0000B695A795979587959C01EC85FD85308393
:104B1000EE85FF852083188EEC89FD891083EA8954
:104B2000FB89808180618083EA89FB89808188603C
:104B30008083EA89FB89808180688083EA89FB8998
:104B400080818F7D8083DF91CF911F91FF90EF90C7
:104B5000DF90CF900895CF93DF93EC01E881F98146
:104B60000680F781E02D1995EA89FB8980818F7E87
:104B70008083EA89FB898081877F8083EA89FB893A
:104B800080818F778083EA89FB8980818F7D808314
:104B90008A8D898FDF91CF910895019779F56F3FC5
:104BA0007F4F61F5E4E4FFE01382128288EE93E028
:104BB000A0E0B0E084839583A683B7838BE49BE079
:104BC0009183808385EC90E09587848784EC90E0E6
:104BD0009787868780EC90E0918B808B81EC90E0CA
:104BE000938B828B82EC90E0958B848B86EC90E0AB
:104BF000978B868B118E128E138E148E08951F92B2
:104C00000F920FB60F9211240BB60F922F938F9322
:104C10009F93AF93BF93EF93FF93E091540FF09165
:104C2000550F808182FD14C0E4E4FFE0A689B789B6
:104C30002C91818D8F5F8F73928D891771F0DF01B9
:104C4000E18DF0E0EC5BF04F258F59968C9305C019
:104C5000E0915A0FF0915B0F8081FF91EF91BF912E
:104C6000AF919F918F912F910F900BBE0F900FBE20
:104C70000F901F9018951F920F920FB60F9211244C
:104C80000BB60F922F933F934F935F936F937F9346
:104C90008F939F93AF93BF93EF93FF9384E49FE031
:104CA0000E948624FF91EF91BF91AF919F918F91C8
:104CB0007F916F915F914F913F912F910F900BBE1C
:104CC0000F900FBE0F901F90189584E49FE00E94F4
:104CD000002421E0892B09F420E0822F08956FEF52
:104CE0007FEF81E090E00E94CD250895019779F54E
:104CF0006F3F7F4F61F5E1EEFFE01382128288EE95
:104D000093E0A0E0B0E084839583A683B7838BE42F
:104D10009BE0918380838DEC90E0958784878CEC79
:104D200090E09787868788EC90E0918B808B89EC68
:104D300090E0938B828B8AEC90E0958B848B8EEC49
:104D400090E0978B868B118E128E138E148E0895A1
:104D50001F920F920FB60F9211240BB60F922F9342
:104D60008F939F93AF93BF93EF93FF93E091F10FD6
:104D7000F091F20F808182FD14C0E1EEFFE0A68980
:104D8000B7892C91818D8F5F8F73928D891771F008
:104D9000DF01E18DF0E0EF51F04F258F59968C93B4
:104DA00005C0E091F70FF091F80F8081FF91EF912E
:104DB000BF91AF919F918F912F910F900BBE0F904C
:104DC0000FBE0F901F9018951F920F920FB60F9263
:104DD00011240BB60F922F933F934F935F936F93D2
:104DE0007F938F939F93AF93BF93EF93FF9381EE46
:104DF0009FE00E948624FF91EF91BF91AF919F9118
:104E00008F917F916F915F914F913F912F910F9073
:104E10000BBE0F900FBE0F901F90189581EE9FE074
:104E20000E94002421E0892B09F420E0822F0895BC
:104E30006FEF7FEF81E090E00E9476260895019762
:104E400079F56F3F7F4F61F5EEE7F0E11382128253
:104E500088EE93E0A0E0B0E084839583A683B783D7
:104E60008BE49BE09183808385ED90E09587848738
:104E700084ED90E09787868780ED90E0918B808B22
:104E800081ED90E0938B828B82ED90E0958B848B0B
:104E900086ED90E0978B868B118E128E138E148E7A
:104EA00008951F920F920FB60F9211240BB60F9216
:104EB0002F938F939F93AF93BF93EF93FF93E091C3
:104EC0008E10F0918F10808182FD14C0EEE7F0E12A
:104ED000A689B7892C91818D8F5F8F73928D8917E9
:104EE00071F0DF01E18DF0E0E258FF4E258F599619
:104EF0008C9305C0E0919410F09195108081FF9102
:104F0000EF91BF91AF919F918F912F910F900BBE19
:104F10000F900FBE0F901F9018951F920F920FB613
:104F20000F9211240BB60F922F933F934F935F93E1
:104F30006F937F938F939F93AF93BF93EF93FF9361
:104F40008EE790E10E948624FF91EF91BF91AF918F
:104F50009F918F917F916F915F914F913F912F9191
:104F60000F900BBE0F900FBE0F901F9018958EE7FD
:104F700090E10E94002421E0892B09F420E0822F97
:104F800008956FEF7FEF81E090E00E941F27089562
:104F9000019779F56F3F7F4F61F5EBE1F1E1138206
:104FA000128288EE93E0A0E0B0E084839583A6832C
:104FB000B7838BE49BE09183808385E391E09587C1
:104FC000848784E391E09787868780E391E0918BE3
:104FD000808B81E391E0938B828B82E391E0958BD0
:104FE000848B86E391E0978B868B118E128E138EC5
:104FF000148E08951F920F920FB60F9211240BB6C4
:105000000F922F938F939F93AF93BF93EF93FF9341
:10501000E0912B11F0912C11808182FD14C0EBE105
:10502000F1E1A689B7892C91818D8F5F8F73928D65
:10503000891771F0DF01E18DF0E0E55EFE4E258F0E
:1050400059968C9305C0E0913111F0913211808115
:10505000FF91EF91BF91AF919F918F912F910F9001
:105060000BBE0F900FBE0F901F9018951F920F92BE
:105070000FB60F9211240BB60F922F933F934F93BD
:105080005F936F937F938F939F93AF93BF93EF93B0
:10509000FF938BE191E10E948624FF91EF91BF91F4
:1050A000AF919F918F917F916F915F914F913F91C0
:1050B0002F910F900BBE0F900FBE0F901F90189561
:1050C0008BE191E10E94002421E0892B09F420E08A
:1050D000822F08956FEF7FEF81E090E00E94C82754
:1050E00008950895CF92DF92EF92FF920F931F934E
:1050F000CF93DF936C017B0100E010E0C0E0D0E0D3
:1051000003301105A4F4F601E00FF11F62814AE0BB
:1051100050E0C7010E94BC2AC80FD91F6EE2C70128
:105120000E94C029C80FD91F0F5F1F4FE9CFF6019A
:1051300065814AE050E0C7010E94BC2A8C0F9D1F88
:10514000DF91CF911F910F91FF90EF90DF90CF9063
:1051500008952DE53BE0FC01318320831282138208
:105160001482158208950F93FC018DE59BE09183D5
:10517000808362834383248305830F9108950F9373
:10518000019759F46F3F7F4F41F400E020E040E089
:1051900060E088EB91E10E94B3280F9108952DE51E
:1051A0003BE0FC0131832083428353836483758316
:1051B0000895FC012DE53BE021933193DB012D9116
:1051C0003C91DC0113963C932E931297DB011296CF
:1051D0008D919C911397938382830895CF93DF934E
:1051E000DC01FB0140E020E030E09081992329F1CF
:1051F000319650ED590F5A30A0F4B901660F771F60
:10520000220F331F220F331F220F331F260F371F8A
:10521000290F311D205331092F3F310531F328F378
:1052200012C09E3291F4433091F0ED01C40FD11DB4
:105230002A834F5F20E030E0D8CF433051F41596F9
:105240002C9381E007C080E005C080E003C080E0CF
:1052500001C080E0DF91CF910895FB012081318171
:10526000FC0133832283FB0122813381FC013583DE
:10527000248308956FEF7FEF81E090E00E94BF28C4
:10528000089508950E94042E0E9441290E942857E3
:105290000E94345781E494E2892BD1F30E94412487
:1052A000F7CF0E948E600895CF92DF92EF92FF9227
:1052B0000F931F93CF93DF938C01DB01C0E0D0E00D
:1052C0007A0181E0E81AF108452BA1F0F80180810C
:1052D0009181FC01208131816D01FFEFCF1ADF0A3E
:1052E0006C91C801F9011995892B21F02196A7012C
:1052F000D601E6CFCE01DF91CF911F910F91FF90A4
:10530000EF90DF90CF900895EF92FF920F931F934D
:10531000CF93DF938C01FB01C0E0D0E07F018FEFE2
:10532000E81AF80A6491662369F0D801ED91FC91BE
:105330000190F081E02DC8011995892B19F0219673
:10534000F701ECCFCE01DF91CF911F910F91FF902C
:10535000EF9008956115710581F0FB010190002027
:10536000E9F73197AF01461B570BDC01ED91FC913A
:105370000280F381E02D1995089580E090E0089572
:10538000DC01ED91FC910190F081E02D19950895DB
:10539000DB01ED91FC9111970190F081E02DBC01B2
:1053A000CD0119950895DC01ED91FC910280F38106
:1053B000E02D42E050E06FE57BE0199508950F93F2
:1053C0001F93CF93DF93EC010E94AA298C01CE0199
:1053D0000E94D329800F911FDF91CF911F910F91D0
:1053E00008950F931F93CF93DF93EC010E94C82978
:1053F0008C01CE010E94D329800F911FDF91CF91A4
:105400001F910F9108958F929F92AF92BF92DF925A
:10541000EF92FF920F931F93CF93DF93CDB7DEB739
:10542000A1970FB6F894DEBF0FBECDBF7C01CB01B4
:10543000BA01D22E19A221E02D1520F00F2EFAE08C
:10544000DF2EF02D8E010F5D1F4F8D2C912CA12C86
:10545000B12CA50194010E94935FE62F622F732F58
:10546000842F952F01501109EA3010F4E05D01C03E
:10547000E95CD801EC93611571058105910529F767
:105480000115110591F0F80101900020E9F731971D
:10549000AF01401B510BD701ED91FC910280F381CC
:1054A000E02DB801C701199502C080E090E0A196F7
:1054B0000FB6F894DEBF0FBECDBFDF91CF911F9125
:1054C0000F91FF90EF90DF90BF90AF909F908F90E3
:1054D0000895CF92DF92EF92FF920F931F93CF9395
:1054E000DF93EC016A017B012115310541F4E8816C
:1054F000F9810190F081E02D642F19951DC02A30AB
:105500003105C1F4772394F46DE20E94C0298C0127
:1055100044275527BA014C195D096E097F092AE015
:10552000CE010E94032A800F911F06C02AE00E942C
:10553000032A02C00E94032ADF91CF911F910F918D
:10554000FF90EF90DF90CF9008959A01AB01770F15
:10555000660B770B0E94692A08952115310549F4DD
:10556000DC01ED91FC910190F081E02D642F199503
:1055700008950E94032A08959A01462F50E060E0A2
:1055800070E00E94AD2A08950F931F93CF93DF938D
:10559000EC010E948A2D688779878A879B87E8813A
:1055A000F9810284F385E02DCE0119959923BCF48D
:1055B0000E948A2D088519852A853B85DC01CB014F
:1055C000801B910BA20BB30B0C811D812E813F819F
:1055D00080179107A207B30710F38FEF9FEFDF91BA
:1055E000CF911F910F910895CF92DF92EF92FF928A
:1055F0000F931F93CF93DF936C018B017A01C0E06F
:10560000D0E0CE15DF0558F4C6010E94C42A9923C4
:1056100034F0F801808321960F5F1F4FF2CFCE0147
:10562000DF91CF911F910F91FF90EF90DF90CF907E
:1056300008958230A9F028F4882349F0813051F090
:105640000895843021F1E8F0853039F10895109201
:105650006E000895EFE6F0E080818D7F80830895ED
:10566000E0E7F0E080818D7F808381E08093B0006F
:10567000E1EBF0E08081887F846080831092B3004A
:105680000895E1E7F0E080818D7F80830895E2E76F
:10569000F0E080818D7F80830895E3E7F0E08081F2
:1056A0008D7F80830895CF93C82F20E030E01216BD
:1056B00013069CF0F901EA5FFD4F80818C130AC04C
:1056C000F901E85DF84F8491F901EA5FFD4F9FEF22
:1056D000908304C02F5F3F4FEACF8FEF0E94192BBA
:1056E00060E08C2F0E94392FCF9108951F920F9266
:1056F0000FB60F9211240BB60F922F933F934F9337
:105700005F936F937F938F939F93AF93BF93EF9329
:10571000FF938091C1119091C211A091C311B091DA
:10572000C411892B8A2B8B2B51F19091BE11E091E2
:10573000BF11F091C0118081892780838091C111B0
:105740009091C211A091C311B091C41118161906FD
:105750001A061B06C4F48091C1119091C211A09148
:10576000C311B091C4110197A109B1098093C1116E
:105770009093C211A093C311B093C41104C080913F
:1057800006020E94532BFF91EF91BF91AF919F9121
:105790008F917F916F915F914F913F912F910F90DA
:1057A0000BBE0F900FBE0F901F90189508951F927B
:1057B0000F920FB60F9211240BB60F922F933F93B7
:1057C0004F935F936F937F938F939F93AF93BF9309
:1057D000EF93FF93E0910B02F0910C021995FF916A
:1057E000EF91BF91AF919F918F917F916F915F9159
:1057F0004F913F912F910F900BBE0F900FBE0F90C6
:105800001F9018951F920F920FB60F9211240BB68E
:105810000F922F933F934F935F936F937F938F9349
:105820009F93AF93BF93EF93FF93E0910D02F0919D
:105830000E021995FF91EF91BF91AF919F918F91BA
:105840007F916F915F914F913F912F910F900BBE80
:105850000F900FBE0F901F9018951F920F920FB6CA
:105860000F9211240BB60F922F933F934F935F9398
:105870006F937F938F939F93AF93BF93EF93FF9318
:10588000E0910F02F09110021995FF91EF91BF91F5
:10589000AF919F918F917F916F915F914F913F91C8
:1058A0002F910F900BBE0F900FBE0F901F90189569
:1058B0001F920F920FB60F9211240BB60F922F93D7
:1058C0003F934F935F936F937F938F939F93AF9388
:1058D000BF93EF93FF93E0911102F091120219959B
:1058E000FF91EF91BF91AF919F918F917F916F91B8
:1058F0005F914F913F912F910F900BBE0F900FBE74
:105900000F901F9018951F920F920FB60F921124AF
:105910000BB60F922F933F934F935F936F937F93A9
:105920008F939F93AF93BF93EF93FF93E091070201
:10593000F09108021995FF91EF91BF91AF919F915E
:105940008F917F916F915F914F913F912F910F9028
:105950000BBE0F900FBE0F901F9018951F920F92C5
:105960000FB60F9211240BB60F922F933F934F93C4
:105970005F936F937F938F939F93AF93BF93EF93B7
:10598000FF93E0910902F0910A021995FF91EF91BE
:10599000BF91AF919F918F917F916F915F914F9147
:1059A0003F912F910F900BBE0F900FBE0F901F9045
:1059B00018951F920F920FB60F9211240BB60F92EB
:1059C0002F933F934F935F936F937F938F939F9307
:1059D000AF93BF93EF93FF93E0911302F091140202
:1059E0001995FF91EF91BF91AF919F918F917F9109
:1059F0006F915F914F913F912F910F900BBE0F9040
:105A00000FBE0F901F9018951F920F920FB60F9216
:105A100011240BB60F922F933F934F935F936F9385
:105A20007F938F939F93AF93BF93EF93FF93E091F7
:105A30001502F09116021995FF91EF91BF91AF9168
:105A40009F918F917F916F915F914F913F912F9196
:105A50000F900BBE0F900FBE0F901F9018951F92C6
:105A60000F920FB60F9211240F931F932F933F9312
:105A70004F935F936F937F938F939F93AF93BF9356
:105A80000091C6111091C7112091C8113091C91110
:105A90009091C511B901A8014F5F5F4F6F4F7F4FC4
:105AA00083E0890F8D3740F086E8890FB901A8019E
:105AB0004E5F5F4F6F4F7F4F8093C5114093C6116C
:105AC0005093C7116093C8117093C9118091CA1186
:105AD0009091CB11A091CC11B091CD110196A11D47
